{
	"contract_address_balance.sol": {
		"Deposit": {
			"abi": [
				{
					"inputs": [],
					"stateMutability": "nonpayable",
					"type": "constructor"
				},
				{
					"stateMutability": "payable",
					"type": "fallback"
				},
				{
					"inputs": [],
					"name": "getBalance",
					"outputs": [
						{
							"internalType": "uint256",
							"name": "",
							"type": "uint256"
						}
					],
					"stateMutability": "view",
					"type": "function"
				},
				{
					"inputs": [],
					"name": "owner",
					"outputs": [
						{
							"internalType": "address",
							"name": "",
							"type": "address"
						}
					],
					"stateMutability": "view",
					"type": "function"
				},
				{
					"inputs": [],
					"name": "sendEther",
					"outputs": [],
					"stateMutability": "payable",
					"type": "function"
				},
				{
					"inputs": [
						{
							"internalType": "address payable",
							"name": "recipent",
							"type": "address"
						},
						{
							"internalType": "uint256",
							"name": "amount",
							"type": "uint256"
						}
					],
					"name": "transferEther",
					"outputs": [
						{
							"internalType": "bool",
							"name": "",
							"type": "bool"
						}
					],
					"stateMutability": "nonpayable",
					"type": "function"
				},
				{
					"stateMutability": "payable",
					"type": "receive"
				}
			],
			"devdoc": {
				"kind": "dev",
				"methods": {},
				"version": 1
			},
			"evm": {
				"assembly": "    /* \"contract_address_balance.sol\":33:782  contract Deposit {... */\n  mstore(0x40, 0x80)\n    /* \"contract_address_balance.sol\":83:132  constructor() {... */\n  callvalue\n  dup1\n  iszero\n  tag_1\n  jumpi\n  0x00\n  dup1\n  revert\ntag_1:\n  pop\n    /* \"contract_address_balance.sol\":115:125  msg.sender */\n  caller\n    /* \"contract_address_balance.sol\":107:112  owner */\n  0x00\n  dup1\n    /* \"contract_address_balance.sol\":107:125  owner = msg.sender */\n  0x0100\n  exp\n  dup2\n  sload\n  dup2\n  0xffffffffffffffffffffffffffffffffffffffff\n  mul\n  not\n  and\n  swap1\n  dup4\n  0xffffffffffffffffffffffffffffffffffffffff\n  and\n  mul\n  or\n  swap1\n  sstore\n  pop\n    /* \"contract_address_balance.sol\":33:782  contract Deposit {... */\n  dataSize(sub_0)\n  dup1\n  dataOffset(sub_0)\n  0x00\n  codecopy\n  0x00\n  return\nstop\n\nsub_0: assembly {\n        /* \"contract_address_balance.sol\":33:782  contract Deposit {... */\n      mstore(0x40, 0x80)\n      jumpi(tag_1, lt(calldatasize, 0x04))\n      shr(0xe0, calldataload(0x00))\n      dup1\n      0x05b1137b\n      eq\n      tag_3\n      jumpi\n      dup1\n      0x0e29df22\n      eq\n      tag_4\n      jumpi\n      dup1\n      0x12065fe0\n      eq\n      tag_5\n      jumpi\n      dup1\n      0x8da5cb5b\n      eq\n      tag_6\n      jumpi\n      jump(tag_2)\n    tag_1:\n      jumpi(tag_2, calldatasize)\n      stop\n    tag_2:\n      stop\n        /* \"contract_address_balance.sol\":393:780  function transferEther(address payable recipent, uint256 amount)... */\n    tag_3:\n      callvalue\n      dup1\n      iszero\n      tag_11\n      jumpi\n      0x00\n      dup1\n      revert\n    tag_11:\n      pop\n      tag_12\n      0x04\n      dup1\n      calldatasize\n      sub\n      dup2\n      add\n      swap1\n      tag_13\n      swap2\n      swap1\n      tag_14\n      jump\t// in\n    tag_13:\n      tag_15\n      jump\t// in\n    tag_12:\n      mload(0x40)\n      tag_16\n      swap2\n      swap1\n      tag_17\n      jump\t// in\n    tag_16:\n      mload(0x40)\n      dup1\n      swap2\n      sub\n      swap1\n      return\n        /* \"contract_address_balance.sol\":312:387  function sendEther() public payable {... */\n    tag_4:\n      tag_18\n      tag_19\n      jump\t// in\n    tag_18:\n      stop\n        /* \"contract_address_balance.sol\":209:306  function getBalance() public view returns (uint256) {... */\n    tag_5:\n      callvalue\n      dup1\n      iszero\n      tag_20\n      jumpi\n      0x00\n      dup1\n      revert\n    tag_20:\n      pop\n      tag_21\n      tag_22\n      jump\t// in\n    tag_21:\n      mload(0x40)\n      tag_23\n      swap2\n      swap1\n      tag_24\n      jump\t// in\n    tag_23:\n      mload(0x40)\n      dup1\n      swap2\n      sub\n      swap1\n      return\n        /* \"contract_address_balance.sol\":56:76  address public owner */\n    tag_6:\n      callvalue\n      dup1\n      iszero\n      tag_25\n      jumpi\n      0x00\n      dup1\n      revert\n    tag_25:\n      pop\n      tag_26\n      tag_27\n      jump\t// in\n    tag_26:\n      mload(0x40)\n      tag_28\n      swap2\n      swap1\n      tag_29\n      jump\t// in\n    tag_28:\n      mload(0x40)\n      dup1\n      swap2\n      sub\n      swap1\n      return\n        /* \"contract_address_balance.sol\":393:780  function transferEther(address payable recipent, uint256 amount)... */\n    tag_15:\n        /* \"contract_address_balance.sol\":490:494  bool */\n      0x00\n        /* \"contract_address_balance.sol\":540:550  msg.sender */\n      caller\n        /* \"contract_address_balance.sol\":531:550  owner == msg.sender */\n      0xffffffffffffffffffffffffffffffffffffffff\n      and\n        /* \"contract_address_balance.sol\":531:536  owner */\n      0x00\n      dup1\n      sload\n      swap1\n      0x0100\n      exp\n      swap1\n      div\n      0xffffffffffffffffffffffffffffffffffffffff\n      and\n        /* \"contract_address_balance.sol\":531:550  owner == msg.sender */\n      0xffffffffffffffffffffffffffffffffffffffff\n      and\n      eq\n        /* \"contract_address_balance.sol\":510:617  require(... */\n      tag_31\n      jumpi\n      mload(0x40)\n      0x08c379a000000000000000000000000000000000000000000000000000000000\n      dup2\n      mstore\n      0x04\n      add\n      tag_32\n      swap1\n      tag_33\n      jump\t// in\n    tag_32:\n      mload(0x40)\n      dup1\n      swap2\n      sub\n      swap1\n      revert\n    tag_31:\n        /* \"contract_address_balance.sol\":642:654  getBalance() */\n      tag_34\n        /* \"contract_address_balance.sol\":642:652  getBalance */\n      tag_22\n        /* \"contract_address_balance.sol\":642:654  getBalance() */\n      jump\t// in\n    tag_34:\n        /* \"contract_address_balance.sol\":632:638  amount */\n      dup3\n        /* \"contract_address_balance.sol\":632:654  amount <= getBalance() */\n      gt\n        /* \"contract_address_balance.sol\":628:774  if (amount <= getBalance()) {... */\n      tag_35\n      jumpi\n        /* \"contract_address_balance.sol\":670:678  recipent */\n      dup3\n        /* \"contract_address_balance.sol\":670:687  recipent.transfer */\n      0xffffffffffffffffffffffffffffffffffffffff\n      and\n        /* \"contract_address_balance.sol\":670:695  recipent.transfer(amount) */\n      0x08fc\n        /* \"contract_address_balance.sol\":688:694  amount */\n      dup4\n        /* \"contract_address_balance.sol\":670:695  recipent.transfer(amount) */\n      swap1\n      dup2\n      iszero\n      mul\n      swap1\n      mload(0x40)\n      0x00\n      mload(0x40)\n      dup1\n      dup4\n      sub\n      dup2\n      dup6\n      dup9\n      dup9\n      call\n      swap4\n      pop\n      pop\n      pop\n      pop\n      iszero\n      dup1\n      iszero\n      tag_37\n      jumpi\n      returndatasize\n      0x00\n      dup1\n      returndatacopy\n      revert(0x00, returndatasize)\n    tag_37:\n      pop\n        /* \"contract_address_balance.sol\":716:720  true */\n      0x01\n        /* \"contract_address_balance.sol\":709:720  return true */\n      swap1\n      pop\n      jump(tag_30)\n        /* \"contract_address_balance.sol\":628:774  if (amount <= getBalance()) {... */\n    tag_35:\n        /* \"contract_address_balance.sol\":758:763  false */\n      0x00\n        /* \"contract_address_balance.sol\":751:763  return false */\n      swap1\n      pop\n        /* \"contract_address_balance.sol\":393:780  function transferEther(address payable recipent, uint256 amount)... */\n    tag_30:\n      swap3\n      swap2\n      pop\n      pop\n      jump\t// out\n        /* \"contract_address_balance.sol\":312:387  function sendEther() public payable {... */\n    tag_19:\n        /* \"contract_address_balance.sol\":358:367  uint256 x */\n      0x00\n        /* \"contract_address_balance.sol\":377:380  x++ */\n      dup1\n      dup1\n      tag_40\n      swap1\n      tag_41\n      jump\t// in\n    tag_40:\n      swap2\n      pop\n      pop\n        /* \"contract_address_balance.sol\":348:387  {... */\n      pop\n        /* \"contract_address_balance.sol\":312:387  function sendEther() public payable {... */\n      jump\t// out\n        /* \"contract_address_balance.sol\":209:306  function getBalance() public view returns (uint256) {... */\n    tag_22:\n        /* \"contract_address_balance.sol\":252:259  uint256 */\n      0x00\n        /* \"contract_address_balance.sol\":278:299  address(this).balance */\n      selfbalance\n        /* \"contract_address_balance.sol\":271:299  return address(this).balance */\n      swap1\n      pop\n        /* \"contract_address_balance.sol\":209:306  function getBalance() public view returns (uint256) {... */\n      swap1\n      jump\t// out\n        /* \"contract_address_balance.sol\":56:76  address public owner */\n    tag_27:\n      0x00\n      dup1\n      sload\n      swap1\n      0x0100\n      exp\n      swap1\n      div\n      0xffffffffffffffffffffffffffffffffffffffff\n      and\n      dup2\n      jump\t// out\n        /* \"#utility.yul\":88:205   */\n    tag_44:\n        /* \"#utility.yul\":197:198   */\n      0x00\n        /* \"#utility.yul\":194:195   */\n      dup1\n        /* \"#utility.yul\":187:199   */\n      revert\n        /* \"#utility.yul\":334:460   */\n    tag_46:\n        /* \"#utility.yul\":371:378   */\n      0x00\n        /* \"#utility.yul\":411:453   */\n      0xffffffffffffffffffffffffffffffffffffffff\n        /* \"#utility.yul\":404:409   */\n      dup3\n        /* \"#utility.yul\":400:454   */\n      and\n        /* \"#utility.yul\":389:454   */\n      swap1\n      pop\n        /* \"#utility.yul\":334:460   */\n      swap2\n      swap1\n      pop\n      jump\t// out\n        /* \"#utility.yul\":466:570   */\n    tag_47:\n        /* \"#utility.yul\":511:518   */\n      0x00\n        /* \"#utility.yul\":540:564   */\n      tag_68\n        /* \"#utility.yul\":558:563   */\n      dup3\n        /* \"#utility.yul\":540:564   */\n      tag_46\n      jump\t// in\n    tag_68:\n        /* \"#utility.yul\":529:564   */\n      swap1\n      pop\n        /* \"#utility.yul\":466:570   */\n      swap2\n      swap1\n      pop\n      jump\t// out\n        /* \"#utility.yul\":576:714   */\n    tag_48:\n        /* \"#utility.yul\":657:689   */\n      tag_70\n        /* \"#utility.yul\":683:688   */\n      dup2\n        /* \"#utility.yul\":657:689   */\n      tag_47\n      jump\t// in\n    tag_70:\n        /* \"#utility.yul\":650:655   */\n      dup2\n        /* \"#utility.yul\":647:690   */\n      eq\n        /* \"#utility.yul\":637:708   */\n      tag_71\n      jumpi\n        /* \"#utility.yul\":704:705   */\n      0x00\n        /* \"#utility.yul\":701:702   */\n      dup1\n        /* \"#utility.yul\":694:706   */\n      revert\n        /* \"#utility.yul\":637:708   */\n    tag_71:\n        /* \"#utility.yul\":576:714   */\n      pop\n      jump\t// out\n        /* \"#utility.yul\":720:875   */\n    tag_49:\n        /* \"#utility.yul\":774:779   */\n      0x00\n        /* \"#utility.yul\":812:818   */\n      dup2\n        /* \"#utility.yul\":799:819   */\n      calldataload\n        /* \"#utility.yul\":790:819   */\n      swap1\n      pop\n        /* \"#utility.yul\":828:869   */\n      tag_73\n        /* \"#utility.yul\":863:868   */\n      dup2\n        /* \"#utility.yul\":828:869   */\n      tag_48\n      jump\t// in\n    tag_73:\n        /* \"#utility.yul\":720:875   */\n      swap3\n      swap2\n      pop\n      pop\n      jump\t// out\n        /* \"#utility.yul\":881:958   */\n    tag_50:\n        /* \"#utility.yul\":918:925   */\n      0x00\n        /* \"#utility.yul\":947:952   */\n      dup2\n        /* \"#utility.yul\":936:952   */\n      swap1\n      pop\n        /* \"#utility.yul\":881:958   */\n      swap2\n      swap1\n      pop\n      jump\t// out\n        /* \"#utility.yul\":964:1086   */\n    tag_51:\n        /* \"#utility.yul\":1037:1061   */\n      tag_76\n        /* \"#utility.yul\":1055:1060   */\n      dup2\n        /* \"#utility.yul\":1037:1061   */\n      tag_50\n      jump\t// in\n    tag_76:\n        /* \"#utility.yul\":1030:1035   */\n      dup2\n        /* \"#utility.yul\":1027:1062   */\n      eq\n        /* \"#utility.yul\":1017:1080   */\n      tag_77\n      jumpi\n        /* \"#utility.yul\":1076:1077   */\n      0x00\n        /* \"#utility.yul\":1073:1074   */\n      dup1\n        /* \"#utility.yul\":1066:1078   */\n      revert\n        /* \"#utility.yul\":1017:1080   */\n    tag_77:\n        /* \"#utility.yul\":964:1086   */\n      pop\n      jump\t// out\n        /* \"#utility.yul\":1092:1231   */\n    tag_52:\n        /* \"#utility.yul\":1138:1143   */\n      0x00\n        /* \"#utility.yul\":1176:1182   */\n      dup2\n        /* \"#utility.yul\":1163:1183   */\n      calldataload\n        /* \"#utility.yul\":1154:1183   */\n      swap1\n      pop\n        /* \"#utility.yul\":1192:1225   */\n      tag_79\n        /* \"#utility.yul\":1219:1224   */\n      dup2\n        /* \"#utility.yul\":1192:1225   */\n      tag_51\n      jump\t// in\n    tag_79:\n        /* \"#utility.yul\":1092:1231   */\n      swap3\n      swap2\n      pop\n      pop\n      jump\t// out\n        /* \"#utility.yul\":1237:1727   */\n    tag_14:\n        /* \"#utility.yul\":1313:1319   */\n      0x00\n        /* \"#utility.yul\":1321:1327   */\n      dup1\n        /* \"#utility.yul\":1370:1372   */\n      0x40\n        /* \"#utility.yul\":1358:1367   */\n      dup4\n        /* \"#utility.yul\":1349:1356   */\n      dup6\n        /* \"#utility.yul\":1345:1368   */\n      sub\n        /* \"#utility.yul\":1341:1373   */\n      slt\n        /* \"#utility.yul\":1338:1457   */\n      iszero\n      tag_81\n      jumpi\n        /* \"#utility.yul\":1376:1455   */\n      tag_82\n      tag_44\n      jump\t// in\n    tag_82:\n        /* \"#utility.yul\":1338:1457   */\n    tag_81:\n        /* \"#utility.yul\":1496:1497   */\n      0x00\n        /* \"#utility.yul\":1521:1582   */\n      tag_83\n        /* \"#utility.yul\":1574:1581   */\n      dup6\n        /* \"#utility.yul\":1565:1571   */\n      dup3\n        /* \"#utility.yul\":1554:1563   */\n      dup7\n        /* \"#utility.yul\":1550:1572   */\n      add\n        /* \"#utility.yul\":1521:1582   */\n      tag_49\n      jump\t// in\n    tag_83:\n        /* \"#utility.yul\":1511:1582   */\n      swap3\n      pop\n        /* \"#utility.yul\":1467:1592   */\n      pop\n        /* \"#utility.yul\":1631:1633   */\n      0x20\n        /* \"#utility.yul\":1657:1710   */\n      tag_84\n        /* \"#utility.yul\":1702:1709   */\n      dup6\n        /* \"#utility.yul\":1693:1699   */\n      dup3\n        /* \"#utility.yul\":1682:1691   */\n      dup7\n        /* \"#utility.yul\":1678:1700   */\n      add\n        /* \"#utility.yul\":1657:1710   */\n      tag_52\n      jump\t// in\n    tag_84:\n        /* \"#utility.yul\":1647:1710   */\n      swap2\n      pop\n        /* \"#utility.yul\":1602:1720   */\n      pop\n        /* \"#utility.yul\":1237:1727   */\n      swap3\n      pop\n      swap3\n      swap1\n      pop\n      jump\t// out\n        /* \"#utility.yul\":1733:1823   */\n    tag_53:\n        /* \"#utility.yul\":1767:1774   */\n      0x00\n        /* \"#utility.yul\":1810:1815   */\n      dup2\n        /* \"#utility.yul\":1803:1816   */\n      iszero\n        /* \"#utility.yul\":1796:1817   */\n      iszero\n        /* \"#utility.yul\":1785:1817   */\n      swap1\n      pop\n        /* \"#utility.yul\":1733:1823   */\n      swap2\n      swap1\n      pop\n      jump\t// out\n        /* \"#utility.yul\":1829:1938   */\n    tag_54:\n        /* \"#utility.yul\":1910:1931   */\n      tag_87\n        /* \"#utility.yul\":1925:1930   */\n      dup2\n        /* \"#utility.yul\":1910:1931   */\n      tag_53\n      jump\t// in\n    tag_87:\n        /* \"#utility.yul\":1905:1908   */\n      dup3\n        /* \"#utility.yul\":1898:1932   */\n      mstore\n        /* \"#utility.yul\":1829:1938   */\n      pop\n      pop\n      jump\t// out\n        /* \"#utility.yul\":1944:2154   */\n    tag_17:\n        /* \"#utility.yul\":2031:2035   */\n      0x00\n        /* \"#utility.yul\":2069:2071   */\n      0x20\n        /* \"#utility.yul\":2058:2067   */\n      dup3\n        /* \"#utility.yul\":2054:2072   */\n      add\n        /* \"#utility.yul\":2046:2072   */\n      swap1\n      pop\n        /* \"#utility.yul\":2082:2147   */\n      tag_89\n        /* \"#utility.yul\":2144:2145   */\n      0x00\n        /* \"#utility.yul\":2133:2142   */\n      dup4\n        /* \"#utility.yul\":2129:2146   */\n      add\n        /* \"#utility.yul\":2120:2126   */\n      dup5\n        /* \"#utility.yul\":2082:2147   */\n      tag_54\n      jump\t// in\n    tag_89:\n        /* \"#utility.yul\":1944:2154   */\n      swap3\n      swap2\n      pop\n      pop\n      jump\t// out\n        /* \"#utility.yul\":2160:2278   */\n    tag_55:\n        /* \"#utility.yul\":2247:2271   */\n      tag_91\n        /* \"#utility.yul\":2265:2270   */\n      dup2\n        /* \"#utility.yul\":2247:2271   */\n      tag_50\n      jump\t// in\n    tag_91:\n        /* \"#utility.yul\":2242:2245   */\n      dup3\n        /* \"#utility.yul\":2235:2272   */\n      mstore\n        /* \"#utility.yul\":2160:2278   */\n      pop\n      pop\n      jump\t// out\n        /* \"#utility.yul\":2284:2506   */\n    tag_24:\n        /* \"#utility.yul\":2377:2381   */\n      0x00\n        /* \"#utility.yul\":2415:2417   */\n      0x20\n        /* \"#utility.yul\":2404:2413   */\n      dup3\n        /* \"#utility.yul\":2400:2418   */\n      add\n        /* \"#utility.yul\":2392:2418   */\n      swap1\n      pop\n        /* \"#utility.yul\":2428:2499   */\n      tag_93\n        /* \"#utility.yul\":2496:2497   */\n      0x00\n        /* \"#utility.yul\":2485:2494   */\n      dup4\n        /* \"#utility.yul\":2481:2498   */\n      add\n        /* \"#utility.yul\":2472:2478   */\n      dup5\n        /* \"#utility.yul\":2428:2499   */\n      tag_55\n      jump\t// in\n    tag_93:\n        /* \"#utility.yul\":2284:2506   */\n      swap3\n      swap2\n      pop\n      pop\n      jump\t// out\n        /* \"#utility.yul\":2512:2608   */\n    tag_56:\n        /* \"#utility.yul\":2549:2556   */\n      0x00\n        /* \"#utility.yul\":2578:2602   */\n      tag_95\n        /* \"#utility.yul\":2596:2601   */\n      dup3\n        /* \"#utility.yul\":2578:2602   */\n      tag_46\n      jump\t// in\n    tag_95:\n        /* \"#utility.yul\":2567:2602   */\n      swap1\n      pop\n        /* \"#utility.yul\":2512:2608   */\n      swap2\n      swap1\n      pop\n      jump\t// out\n        /* \"#utility.yul\":2614:2732   */\n    tag_57:\n        /* \"#utility.yul\":2701:2725   */\n      tag_97\n        /* \"#utility.yul\":2719:2724   */\n      dup2\n        /* \"#utility.yul\":2701:2725   */\n      tag_56\n      jump\t// in\n    tag_97:\n        /* \"#utility.yul\":2696:2699   */\n      dup3\n        /* \"#utility.yul\":2689:2726   */\n      mstore\n        /* \"#utility.yul\":2614:2732   */\n      pop\n      pop\n      jump\t// out\n        /* \"#utility.yul\":2738:2960   */\n    tag_29:\n        /* \"#utility.yul\":2831:2835   */\n      0x00\n        /* \"#utility.yul\":2869:2871   */\n      0x20\n        /* \"#utility.yul\":2858:2867   */\n      dup3\n        /* \"#utility.yul\":2854:2872   */\n      add\n        /* \"#utility.yul\":2846:2872   */\n      swap1\n      pop\n        /* \"#utility.yul\":2882:2953   */\n      tag_99\n        /* \"#utility.yul\":2950:2951   */\n      0x00\n        /* \"#utility.yul\":2939:2948   */\n      dup4\n        /* \"#utility.yul\":2935:2952   */\n      add\n        /* \"#utility.yul\":2926:2932   */\n      dup5\n        /* \"#utility.yul\":2882:2953   */\n      tag_57\n      jump\t// in\n    tag_99:\n        /* \"#utility.yul\":2738:2960   */\n      swap3\n      swap2\n      pop\n      pop\n      jump\t// out\n        /* \"#utility.yul\":2966:3135   */\n    tag_58:\n        /* \"#utility.yul\":3050:3061   */\n      0x00\n        /* \"#utility.yul\":3084:3090   */\n      dup3\n        /* \"#utility.yul\":3079:3082   */\n      dup3\n        /* \"#utility.yul\":3072:3091   */\n      mstore\n        /* \"#utility.yul\":3124:3128   */\n      0x20\n        /* \"#utility.yul\":3119:3122   */\n      dup3\n        /* \"#utility.yul\":3115:3129   */\n      add\n        /* \"#utility.yul\":3100:3129   */\n      swap1\n      pop\n        /* \"#utility.yul\":2966:3135   */\n      swap3\n      swap2\n      pop\n      pop\n      jump\t// out\n        /* \"#utility.yul\":3141:3369   */\n    tag_59:\n        /* \"#utility.yul\":3281:3315   */\n      0x5472616e73666572206661696c65642c20796f7520617265206e6f7420746865\n        /* \"#utility.yul\":3277:3278   */\n      0x00\n        /* \"#utility.yul\":3269:3275   */\n      dup3\n        /* \"#utility.yul\":3265:3279   */\n      add\n        /* \"#utility.yul\":3258:3316   */\n      mstore\n        /* \"#utility.yul\":3350:3361   */\n      0x206f776e65722121210000000000000000000000000000000000000000000000\n        /* \"#utility.yul\":3345:3347   */\n      0x20\n        /* \"#utility.yul\":3337:3343   */\n      dup3\n        /* \"#utility.yul\":3333:3348   */\n      add\n        /* \"#utility.yul\":3326:3362   */\n      mstore\n        /* \"#utility.yul\":3141:3369   */\n      pop\n      jump\t// out\n        /* \"#utility.yul\":3375:3741   */\n    tag_60:\n        /* \"#utility.yul\":3517:3520   */\n      0x00\n        /* \"#utility.yul\":3538:3605   */\n      tag_103\n        /* \"#utility.yul\":3602:3604   */\n      0x29\n        /* \"#utility.yul\":3597:3600   */\n      dup4\n        /* \"#utility.yul\":3538:3605   */\n      tag_58\n      jump\t// in\n    tag_103:\n        /* \"#utility.yul\":3531:3605   */\n      swap2\n      pop\n        /* \"#utility.yul\":3614:3707   */\n      tag_104\n        /* \"#utility.yul\":3703:3706   */\n      dup3\n        /* \"#utility.yul\":3614:3707   */\n      tag_59\n      jump\t// in\n    tag_104:\n        /* \"#utility.yul\":3732:3734   */\n      0x40\n        /* \"#utility.yul\":3727:3730   */\n      dup3\n        /* \"#utility.yul\":3723:3735   */\n      add\n        /* \"#utility.yul\":3716:3735   */\n      swap1\n      pop\n        /* \"#utility.yul\":3375:3741   */\n      swap2\n      swap1\n      pop\n      jump\t// out\n        /* \"#utility.yul\":3747:4166   */\n    tag_33:\n        /* \"#utility.yul\":3913:3917   */\n      0x00\n        /* \"#utility.yul\":3951:3953   */\n      0x20\n        /* \"#utility.yul\":3940:3949   */\n      dup3\n        /* \"#utility.yul\":3936:3954   */\n      add\n        /* \"#utility.yul\":3928:3954   */\n      swap1\n      pop\n        /* \"#utility.yul\":4000:4009   */\n      dup2\n        /* \"#utility.yul\":3994:3998   */\n      dup2\n        /* \"#utility.yul\":3990:4010   */\n      sub\n        /* \"#utility.yul\":3986:3987   */\n      0x00\n        /* \"#utility.yul\":3975:3984   */\n      dup4\n        /* \"#utility.yul\":3971:3988   */\n      add\n        /* \"#utility.yul\":3964:4011   */\n      mstore\n        /* \"#utility.yul\":4028:4159   */\n      tag_106\n        /* \"#utility.yul\":4154:4158   */\n      dup2\n        /* \"#utility.yul\":4028:4159   */\n      tag_60\n      jump\t// in\n    tag_106:\n        /* \"#utility.yul\":4020:4159   */\n      swap1\n      pop\n        /* \"#utility.yul\":3747:4166   */\n      swap2\n      swap1\n      pop\n      jump\t// out\n        /* \"#utility.yul\":4172:4352   */\n    tag_61:\n        /* \"#utility.yul\":4220:4297   */\n      0x4e487b7100000000000000000000000000000000000000000000000000000000\n        /* \"#utility.yul\":4217:4218   */\n      0x00\n        /* \"#utility.yul\":4210:4298   */\n      mstore\n        /* \"#utility.yul\":4317:4321   */\n      0x11\n        /* \"#utility.yul\":4314:4315   */\n      0x04\n        /* \"#utility.yul\":4307:4322   */\n      mstore\n        /* \"#utility.yul\":4341:4345   */\n      0x24\n        /* \"#utility.yul\":4338:4339   */\n      0x00\n        /* \"#utility.yul\":4331:4346   */\n      revert\n        /* \"#utility.yul\":4358:4591   */\n    tag_41:\n        /* \"#utility.yul\":4397:4400   */\n      0x00\n        /* \"#utility.yul\":4420:4444   */\n      tag_109\n        /* \"#utility.yul\":4438:4443   */\n      dup3\n        /* \"#utility.yul\":4420:4444   */\n      tag_50\n      jump\t// in\n    tag_109:\n        /* \"#utility.yul\":4411:4444   */\n      swap2\n      pop\n        /* \"#utility.yul\":4466:4532   */\n      0xffffffffffffffffffffffffffffffffffffffffffffffffffffffffffffffff\n        /* \"#utility.yul\":4459:4464   */\n      dup3\n        /* \"#utility.yul\":4456:4533   */\n      sub\n        /* \"#utility.yul\":4453:4556   */\n      tag_110\n      jumpi\n        /* \"#utility.yul\":4536:4554   */\n      tag_111\n      tag_61\n      jump\t// in\n    tag_111:\n        /* \"#utility.yul\":4453:4556   */\n    tag_110:\n        /* \"#utility.yul\":4583:4584   */\n      0x01\n        /* \"#utility.yul\":4576:4581   */\n      dup3\n        /* \"#utility.yul\":4572:4585   */\n      add\n        /* \"#utility.yul\":4565:4585   */\n      swap1\n      pop\n        /* \"#utility.yul\":4358:4591   */\n      swap2\n      swap1\n      pop\n      jump\t// out\n\n    auxdata: 0xa2646970667358221220cf322c2629327f297ed4173820a8cc308e6bb0db7a736fe099fc5fdff948a0f364736f6c63430008160033\n}\n",
				"bytecode": {
					"linkReferences": {},
					"object": "608060405234801561000f575f80fd5b50335f806101000a81548173ffffffffffffffffffffffffffffffffffffffff021916908373ffffffffffffffffffffffffffffffffffffffff1602179055506104bf8061005c5f395ff3fe608060405260043610610042575f3560e01c806305b1137b1461004b5780630e29df221461008757806312065fe0146100915780638da5cb5b146100bb57610049565b3661004957005b005b348015610056575f80fd5b50610071600480360381019061006c91906102a5565b6100e5565b60405161007e91906102fd565b60405180910390f35b61008f6101d8565b005b34801561009c575f80fd5b506100a56101ea565b6040516100b29190610325565b60405180910390f35b3480156100c6575f80fd5b506100cf6101f1565b6040516100dc919061035e565b60405180910390f35b5f3373ffffffffffffffffffffffffffffffffffffffff165f8054906101000a900473ffffffffffffffffffffffffffffffffffffffff1673ffffffffffffffffffffffffffffffffffffffff1614610173576040517f08c379a000000000000000000000000000000000000000000000000000000000815260040161016a906103f7565b60405180910390fd5b61017b6101ea565b82116101ce578273ffffffffffffffffffffffffffffffffffffffff166108fc8390811502906040515f60405180830381858888f193505050501580156101c4573d5f803e3d5ffd5b50600190506101d2565b5f90505b92915050565b5f80806101e490610442565b91505050565b5f47905090565b5f8054906101000a900473ffffffffffffffffffffffffffffffffffffffff1681565b5f80fd5b5f73ffffffffffffffffffffffffffffffffffffffff82169050919050565b5f61024182610218565b9050919050565b61025181610237565b811461025b575f80fd5b50565b5f8135905061026c81610248565b92915050565b5f819050919050565b61028481610272565b811461028e575f80fd5b50565b5f8135905061029f8161027b565b92915050565b5f80604083850312156102bb576102ba610214565b5b5f6102c88582860161025e565b92505060206102d985828601610291565b9150509250929050565b5f8115159050919050565b6102f7816102e3565b82525050565b5f6020820190506103105f8301846102ee565b92915050565b61031f81610272565b82525050565b5f6020820190506103385f830184610316565b92915050565b5f61034882610218565b9050919050565b6103588161033e565b82525050565b5f6020820190506103715f83018461034f565b92915050565b5f82825260208201905092915050565b7f5472616e73666572206661696c65642c20796f7520617265206e6f74207468655f8201527f206f776e65722121210000000000000000000000000000000000000000000000602082015250565b5f6103e1602983610377565b91506103ec82610387565b604082019050919050565b5f6020820190508181035f83015261040e816103d5565b9050919050565b7f4e487b71000000000000000000000000000000000000000000000000000000005f52601160045260245ffd5b5f61044c82610272565b91507fffffffffffffffffffffffffffffffffffffffffffffffffffffffffffffffff820361047e5761047d610415565b5b60018201905091905056fea2646970667358221220cf322c2629327f297ed4173820a8cc308e6bb0db7a736fe099fc5fdff948a0f364736f6c63430008160033",
					"opcodes": "PUSH1 0x80 PUSH1 0x40 MSTORE CALLVALUE DUP1 ISZERO PUSH2 0xF JUMPI PUSH0 DUP1 REVERT JUMPDEST POP CALLER PUSH0 DUP1 PUSH2 0x100 EXP DUP2 SLOAD DUP2 PUSH20 0xFFFFFFFFFFFFFFFFFFFFFFFFFFFFFFFFFFFFFFFF MUL NOT AND SWAP1 DUP4 PUSH20 0xFFFFFFFFFFFFFFFFFFFFFFFFFFFFFFFFFFFFFFFF AND MUL OR SWAP1 SSTORE POP PUSH2 0x4BF DUP1 PUSH2 0x5C PUSH0 CODECOPY PUSH0 RETURN INVALID PUSH1 0x80 PUSH1 0x40 MSTORE PUSH1 0x4 CALLDATASIZE LT PUSH2 0x42 JUMPI PUSH0 CALLDATALOAD PUSH1 0xE0 SHR DUP1 PUSH4 0x5B1137B EQ PUSH2 0x4B JUMPI DUP1 PUSH4 0xE29DF22 EQ PUSH2 0x87 JUMPI DUP1 PUSH4 0x12065FE0 EQ PUSH2 0x91 JUMPI DUP1 PUSH4 0x8DA5CB5B EQ PUSH2 0xBB JUMPI PUSH2 0x49 JUMP JUMPDEST CALLDATASIZE PUSH2 0x49 JUMPI STOP JUMPDEST STOP JUMPDEST CALLVALUE DUP1 ISZERO PUSH2 0x56 JUMPI PUSH0 DUP1 REVERT JUMPDEST POP PUSH2 0x71 PUSH1 0x4 DUP1 CALLDATASIZE SUB DUP2 ADD SWAP1 PUSH2 0x6C SWAP2 SWAP1 PUSH2 0x2A5 JUMP JUMPDEST PUSH2 0xE5 JUMP JUMPDEST PUSH1 0x40 MLOAD PUSH2 0x7E SWAP2 SWAP1 PUSH2 0x2FD JUMP JUMPDEST PUSH1 0x40 MLOAD DUP1 SWAP2 SUB SWAP1 RETURN JUMPDEST PUSH2 0x8F PUSH2 0x1D8 JUMP JUMPDEST STOP JUMPDEST CALLVALUE DUP1 ISZERO PUSH2 0x9C JUMPI PUSH0 DUP1 REVERT JUMPDEST POP PUSH2 0xA5 PUSH2 0x1EA JUMP JUMPDEST PUSH1 0x40 MLOAD PUSH2 0xB2 SWAP2 SWAP1 PUSH2 0x325 JUMP JUMPDEST PUSH1 0x40 MLOAD DUP1 SWAP2 SUB SWAP1 RETURN JUMPDEST CALLVALUE DUP1 ISZERO PUSH2 0xC6 JUMPI PUSH0 DUP1 REVERT JUMPDEST POP PUSH2 0xCF PUSH2 0x1F1 JUMP JUMPDEST PUSH1 0x40 MLOAD PUSH2 0xDC SWAP2 SWAP1 PUSH2 0x35E JUMP JUMPDEST PUSH1 0x40 MLOAD DUP1 SWAP2 SUB SWAP1 RETURN JUMPDEST PUSH0 CALLER PUSH20 0xFFFFFFFFFFFFFFFFFFFFFFFFFFFFFFFFFFFFFFFF AND PUSH0 DUP1 SLOAD SWAP1 PUSH2 0x100 EXP SWAP1 DIV PUSH20 0xFFFFFFFFFFFFFFFFFFFFFFFFFFFFFFFFFFFFFFFF AND PUSH20 0xFFFFFFFFFFFFFFFFFFFFFFFFFFFFFFFFFFFFFFFF AND EQ PUSH2 0x173 JUMPI PUSH1 0x40 MLOAD PUSH32 0x8C379A000000000000000000000000000000000000000000000000000000000 DUP2 MSTORE PUSH1 0x4 ADD PUSH2 0x16A SWAP1 PUSH2 0x3F7 JUMP JUMPDEST PUSH1 0x40 MLOAD DUP1 SWAP2 SUB SWAP1 REVERT JUMPDEST PUSH2 0x17B PUSH2 0x1EA JUMP JUMPDEST DUP3 GT PUSH2 0x1CE JUMPI DUP3 PUSH20 0xFFFFFFFFFFFFFFFFFFFFFFFFFFFFFFFFFFFFFFFF AND PUSH2 0x8FC DUP4 SWAP1 DUP2 ISZERO MUL SWAP1 PUSH1 0x40 MLOAD PUSH0 PUSH1 0x40 MLOAD DUP1 DUP4 SUB DUP2 DUP6 DUP9 DUP9 CALL SWAP4 POP POP POP POP ISZERO DUP1 ISZERO PUSH2 0x1C4 JUMPI RETURNDATASIZE PUSH0 DUP1 RETURNDATACOPY RETURNDATASIZE PUSH0 REVERT JUMPDEST POP PUSH1 0x1 SWAP1 POP PUSH2 0x1D2 JUMP JUMPDEST PUSH0 SWAP1 POP JUMPDEST SWAP3 SWAP2 POP POP JUMP JUMPDEST PUSH0 DUP1 DUP1 PUSH2 0x1E4 SWAP1 PUSH2 0x442 JUMP JUMPDEST SWAP2 POP POP POP JUMP JUMPDEST PUSH0 SELFBALANCE SWAP1 POP SWAP1 JUMP JUMPDEST PUSH0 DUP1 SLOAD SWAP1 PUSH2 0x100 EXP SWAP1 DIV PUSH20 0xFFFFFFFFFFFFFFFFFFFFFFFFFFFFFFFFFFFFFFFF AND DUP2 JUMP JUMPDEST PUSH0 DUP1 REVERT JUMPDEST PUSH0 PUSH20 0xFFFFFFFFFFFFFFFFFFFFFFFFFFFFFFFFFFFFFFFF DUP3 AND SWAP1 POP SWAP2 SWAP1 POP JUMP JUMPDEST PUSH0 PUSH2 0x241 DUP3 PUSH2 0x218 JUMP JUMPDEST SWAP1 POP SWAP2 SWAP1 POP JUMP JUMPDEST PUSH2 0x251 DUP2 PUSH2 0x237 JUMP JUMPDEST DUP2 EQ PUSH2 0x25B JUMPI PUSH0 DUP1 REVERT JUMPDEST POP JUMP JUMPDEST PUSH0 DUP2 CALLDATALOAD SWAP1 POP PUSH2 0x26C DUP2 PUSH2 0x248 JUMP JUMPDEST SWAP3 SWAP2 POP POP JUMP JUMPDEST PUSH0 DUP2 SWAP1 POP SWAP2 SWAP1 POP JUMP JUMPDEST PUSH2 0x284 DUP2 PUSH2 0x272 JUMP JUMPDEST DUP2 EQ PUSH2 0x28E JUMPI PUSH0 DUP1 REVERT JUMPDEST POP JUMP JUMPDEST PUSH0 DUP2 CALLDATALOAD SWAP1 POP PUSH2 0x29F DUP2 PUSH2 0x27B JUMP JUMPDEST SWAP3 SWAP2 POP POP JUMP JUMPDEST PUSH0 DUP1 PUSH1 0x40 DUP4 DUP6 SUB SLT ISZERO PUSH2 0x2BB JUMPI PUSH2 0x2BA PUSH2 0x214 JUMP JUMPDEST JUMPDEST PUSH0 PUSH2 0x2C8 DUP6 DUP3 DUP7 ADD PUSH2 0x25E JUMP JUMPDEST SWAP3 POP POP PUSH1 0x20 PUSH2 0x2D9 DUP6 DUP3 DUP7 ADD PUSH2 0x291 JUMP JUMPDEST SWAP2 POP POP SWAP3 POP SWAP3 SWAP1 POP JUMP JUMPDEST PUSH0 DUP2 ISZERO ISZERO SWAP1 POP SWAP2 SWAP1 POP JUMP JUMPDEST PUSH2 0x2F7 DUP2 PUSH2 0x2E3 JUMP JUMPDEST DUP3 MSTORE POP POP JUMP JUMPDEST PUSH0 PUSH1 0x20 DUP3 ADD SWAP1 POP PUSH2 0x310 PUSH0 DUP4 ADD DUP5 PUSH2 0x2EE JUMP JUMPDEST SWAP3 SWAP2 POP POP JUMP JUMPDEST PUSH2 0x31F DUP2 PUSH2 0x272 JUMP JUMPDEST DUP3 MSTORE POP POP JUMP JUMPDEST PUSH0 PUSH1 0x20 DUP3 ADD SWAP1 POP PUSH2 0x338 PUSH0 DUP4 ADD DUP5 PUSH2 0x316 JUMP JUMPDEST SWAP3 SWAP2 POP POP JUMP JUMPDEST PUSH0 PUSH2 0x348 DUP3 PUSH2 0x218 JUMP JUMPDEST SWAP1 POP SWAP2 SWAP1 POP JUMP JUMPDEST PUSH2 0x358 DUP2 PUSH2 0x33E JUMP JUMPDEST DUP3 MSTORE POP POP JUMP JUMPDEST PUSH0 PUSH1 0x20 DUP3 ADD SWAP1 POP PUSH2 0x371 PUSH0 DUP4 ADD DUP5 PUSH2 0x34F JUMP JUMPDEST SWAP3 SWAP2 POP POP JUMP JUMPDEST PUSH0 DUP3 DUP3 MSTORE PUSH1 0x20 DUP3 ADD SWAP1 POP SWAP3 SWAP2 POP POP JUMP JUMPDEST PUSH32 0x5472616E73666572206661696C65642C20796F7520617265206E6F7420746865 PUSH0 DUP3 ADD MSTORE PUSH32 0x206F776E65722121210000000000000000000000000000000000000000000000 PUSH1 0x20 DUP3 ADD MSTORE POP JUMP JUMPDEST PUSH0 PUSH2 0x3E1 PUSH1 0x29 DUP4 PUSH2 0x377 JUMP JUMPDEST SWAP2 POP PUSH2 0x3EC DUP3 PUSH2 0x387 JUMP JUMPDEST PUSH1 0x40 DUP3 ADD SWAP1 POP SWAP2 SWAP1 POP JUMP JUMPDEST PUSH0 PUSH1 0x20 DUP3 ADD SWAP1 POP DUP2 DUP2 SUB PUSH0 DUP4 ADD MSTORE PUSH2 0x40E DUP2 PUSH2 0x3D5 JUMP JUMPDEST SWAP1 POP SWAP2 SWAP1 POP JUMP JUMPDEST PUSH32 0x4E487B7100000000000000000000000000000000000000000000000000000000 PUSH0 MSTORE PUSH1 0x11 PUSH1 0x4 MSTORE PUSH1 0x24 PUSH0 REVERT JUMPDEST PUSH0 PUSH2 0x44C DUP3 PUSH2 0x272 JUMP JUMPDEST SWAP2 POP PUSH32 0xFFFFFFFFFFFFFFFFFFFFFFFFFFFFFFFFFFFFFFFFFFFFFFFFFFFFFFFFFFFFFFFF DUP3 SUB PUSH2 0x47E JUMPI PUSH2 0x47D PUSH2 0x415 JUMP JUMPDEST JUMPDEST PUSH1 0x1 DUP3 ADD SWAP1 POP SWAP2 SWAP1 POP JUMP INVALID LOG2 PUSH5 0x6970667358 0x22 SLT KECCAK256 0xCF ORIGIN 0x2C 0x26 0x29 ORIGIN PUSH32 0x297ED4173820A8CC308E6BB0DB7A736FE099FC5FDFF948A0F364736F6C634300 ADDMOD AND STOP CALLER "
				},
				"gasEstimates": {
					"creation": {
						"codeDepositCost": "243000",
						"executionCost": "24544",
						"totalCost": "267544"
					},
					"external": {
						"": "150",
						"getBalance()": "356",
						"owner()": "2549",
						"sendEther()": "260",
						"transferEther(address,uint256)": "infinite"
					}
				},
				"methodIdentifiers": {
					"getBalance()": "12065fe0",
					"owner()": "8da5cb5b",
					"sendEther()": "0e29df22",
					"transferEther(address,uint256)": "05b1137b"
				}
			},
			"storageLayout": {
				"storage": [
					{
						"astId": 3,
						"contract": "contract_address_balance.sol:Deposit",
						"label": "owner",
						"offset": 0,
						"slot": "0",
						"type": "t_address"
					}
				],
				"types": {
					"t_address": {
						"encoding": "inplace",
						"label": "address",
						"numberOfBytes": "20"
					}
				}
			},
			"userdoc": {
				"kind": "user",
				"methods": {},
				"version": 1
			}
		}
	}
}