{
	"getters_setters.sol": {
		"Property": {
			"abi": [
				{
					"inputs": [
						{
							"internalType": "int256",
							"name": "_price",
							"type": "int256"
						},
						{
							"internalType": "string",
							"name": "_location",
							"type": "string"
						}
					],
					"stateMutability": "nonpayable",
					"type": "constructor"
				},
				{
					"inputs": [],
					"name": "getPrice",
					"outputs": [
						{
							"internalType": "int256",
							"name": "",
							"type": "int256"
						}
					],
					"stateMutability": "view",
					"type": "function"
				},
				{
					"inputs": [],
					"name": "owner",
					"outputs": [
						{
							"internalType": "address",
							"name": "",
							"type": "address"
						}
					],
					"stateMutability": "view",
					"type": "function"
				},
				{
					"inputs": [],
					"name": "price",
					"outputs": [
						{
							"internalType": "int256",
							"name": "",
							"type": "int256"
						}
					],
					"stateMutability": "view",
					"type": "function"
				},
				{
					"inputs": [
						{
							"internalType": "int256",
							"name": "_price",
							"type": "int256"
						}
					],
					"name": "setPrice",
					"outputs": [],
					"stateMutability": "nonpayable",
					"type": "function"
				}
			],
			"devdoc": {
				"kind": "dev",
				"methods": {},
				"version": 1
			},
			"evm": {
				"assembly": "    /* \"getters_setters.sol\":69:478  contract Property {... */\n  mstore(0x40, 0x80)\n    /* \"getters_setters.sol\":118:144  string location = \"London\" */\n  mload(0x40)\n  dup1\n  0x40\n  add\n  0x40\n  mstore\n  dup1\n  0x06\n  dup2\n  mstore\n  0x20\n  add\n  0x4c6f6e646f6e0000000000000000000000000000000000000000000000000000\n  dup2\n  mstore\n  pop\n  0x01\n  swap1\n  dup1\n  mload\n  swap1\n  0x20\n  add\n  swap1\n  tag_1\n  swap3\n  swap2\n  swap1\n  tag_2\n  jump\t// in\ntag_1:\n  pop\n    /* \"getters_setters.sol\":177:315  constructor(int _price, string memory _location) {... */\n  callvalue\n  dup1\n  iszero\n  tag_3\n  jumpi\n  0x00\n  dup1\n  revert\ntag_3:\n  pop\n  mload(0x40)\n  sub(codesize, bytecodeSize)\n  dup1\n  bytecodeSize\n  dup4\n  codecopy\n  dup2\n  dup2\n  add\n  0x40\n  mstore\n  dup2\n  add\n  swap1\n  tag_4\n  swap2\n  swap1\n  tag_5\n  jump\t// in\ntag_4:\n    /* \"getters_setters.sol\":244:250  _price */\n  dup2\n    /* \"getters_setters.sol\":236:241  price */\n  0x00\n    /* \"getters_setters.sol\":236:250  price = _price */\n  dup2\n  swap1\n  sstore\n  pop\n    /* \"getters_setters.sol\":271:280  _location */\n  dup1\n    /* \"getters_setters.sol\":260:268  location */\n  0x01\n    /* \"getters_setters.sol\":260:280  location = _location */\n  swap1\n  dup1\n  mload\n  swap1\n  0x20\n  add\n  swap1\n  tag_8\n  swap3\n  swap2\n  swap1\n  tag_2\n  jump\t// in\ntag_8:\n  pop\n    /* \"getters_setters.sol\":298:308  msg.sender */\n  caller\n    /* \"getters_setters.sol\":290:295  owner */\n  0x02\n  0x00\n    /* \"getters_setters.sol\":290:308  owner = msg.sender */\n  0x0100\n  exp\n  dup2\n  sload\n  dup2\n  0xffffffffffffffffffffffffffffffffffffffff\n  mul\n  not\n  and\n  swap1\n  dup4\n  0xffffffffffffffffffffffffffffffffffffffff\n  and\n  mul\n  or\n  swap1\n  sstore\n  pop\n    /* \"getters_setters.sol\":177:315  constructor(int _price, string memory _location) {... */\n  pop\n  pop\n    /* \"getters_setters.sol\":69:478  contract Property {... */\n  jump(tag_9)\ntag_2:\n  dup3\n  dup1\n  sload\n  tag_10\n  swap1\n  tag_11\n  jump\t// in\ntag_10:\n  swap1\n  0x00\n  mstore\n  keccak256(0x00, 0x20)\n  swap1\n  0x1f\n  add\n  0x20\n  swap1\n  div\n  dup2\n  add\n  swap3\n  dup3\n  tag_13\n  jumpi\n  0x00\n  dup6\n  sstore\n  jump(tag_12)\ntag_13:\n  dup3\n  0x1f\n  lt\n  tag_14\n  jumpi\n  dup1\n  mload\n  not(0xff)\n  and\n  dup4\n  dup1\n  add\n  or\n  dup6\n  sstore\n  jump(tag_12)\ntag_14:\n  dup3\n  dup1\n  add\n  0x01\n  add\n  dup6\n  sstore\n  dup3\n  iszero\n  tag_12\n  jumpi\n  swap2\n  dup3\n  add\ntag_15:\n  dup3\n  dup2\n  gt\n  iszero\n  tag_16\n  jumpi\n  dup3\n  mload\n  dup3\n  sstore\n  swap2\n  0x20\n  add\n  swap2\n  swap1\n  0x01\n  add\n  swap1\n  jump(tag_15)\ntag_16:\ntag_12:\n  pop\n  swap1\n  pop\n  tag_17\n  swap2\n  swap1\n  tag_18\n  jump\t// in\ntag_17:\n  pop\n  swap1\n  jump\t// out\ntag_18:\ntag_19:\n  dup1\n  dup3\n  gt\n  iszero\n  tag_20\n  jumpi\n  0x00\n  dup2\n  0x00\n  swap1\n  sstore\n  pop\n  0x01\n  add\n  jump(tag_19)\ntag_20:\n  pop\n  swap1\n  jump\t// out\n    /* \"#utility.yul\":7:360   */\ntag_22:\n  0x00\n    /* \"#utility.yul\":121:186   */\n  tag_24\n    /* \"#utility.yul\":136:185   */\n  tag_25\n    /* \"#utility.yul\":178:184   */\n  dup5\n    /* \"#utility.yul\":136:185   */\n  tag_26\n  jump\t// in\ntag_25:\n    /* \"#utility.yul\":121:186   */\n  tag_27\n  jump\t// in\ntag_24:\n    /* \"#utility.yul\":112:186   */\n  swap1\n  pop\n    /* \"#utility.yul\":209:215   */\n  dup3\n    /* \"#utility.yul\":202:207   */\n  dup2\n    /* \"#utility.yul\":195:216   */\n  mstore\n    /* \"#utility.yul\":247:251   */\n  0x20\n    /* \"#utility.yul\":240:245   */\n  dup2\n    /* \"#utility.yul\":236:252   */\n  add\n    /* \"#utility.yul\":285:288   */\n  dup5\n    /* \"#utility.yul\":276:282   */\n  dup5\n    /* \"#utility.yul\":271:274   */\n  dup5\n    /* \"#utility.yul\":267:283   */\n  add\n    /* \"#utility.yul\":264:289   */\n  gt\n    /* \"#utility.yul\":261:263   */\n  iszero\n  tag_28\n  jumpi\n    /* \"#utility.yul\":302:303   */\n  0x00\n    /* \"#utility.yul\":299:300   */\n  dup1\n    /* \"#utility.yul\":292:304   */\n  revert\n    /* \"#utility.yul\":261:263   */\ntag_28:\n    /* \"#utility.yul\":315:354   */\n  tag_29\n    /* \"#utility.yul\":347:353   */\n  dup5\n    /* \"#utility.yul\":342:345   */\n  dup3\n    /* \"#utility.yul\":337:340   */\n  dup6\n    /* \"#utility.yul\":315:354   */\n  tag_30\n  jump\t// in\ntag_29:\n    /* \"#utility.yul\":102:360   */\n  pop\n  swap4\n  swap3\n  pop\n  pop\n  pop\n  jump\t// out\n    /* \"#utility.yul\":366:507   */\ntag_31:\n  0x00\n    /* \"#utility.yul\":453:459   */\n  dup2\n    /* \"#utility.yul\":447:460   */\n  mload\n    /* \"#utility.yul\":438:460   */\n  swap1\n  pop\n    /* \"#utility.yul\":469:501   */\n  tag_33\n    /* \"#utility.yul\":495:500   */\n  dup2\n    /* \"#utility.yul\":469:501   */\n  tag_34\n  jump\t// in\ntag_33:\n    /* \"#utility.yul\":428:507   */\n  swap3\n  swap2\n  pop\n  pop\n  jump\t// out\n    /* \"#utility.yul\":527:815   */\ntag_35:\n  0x00\n    /* \"#utility.yul\":643:646   */\n  dup3\n    /* \"#utility.yul\":636:640   */\n  0x1f\n    /* \"#utility.yul\":628:634   */\n  dup4\n    /* \"#utility.yul\":624:641   */\n  add\n    /* \"#utility.yul\":620:647   */\n  slt\n    /* \"#utility.yul\":610:612   */\n  tag_37\n  jumpi\n    /* \"#utility.yul\":661:662   */\n  0x00\n    /* \"#utility.yul\":658:659   */\n  dup1\n    /* \"#utility.yul\":651:663   */\n  revert\n    /* \"#utility.yul\":610:612   */\ntag_37:\n    /* \"#utility.yul\":694:700   */\n  dup2\n    /* \"#utility.yul\":688:701   */\n  mload\n    /* \"#utility.yul\":719:809   */\n  tag_38\n    /* \"#utility.yul\":805:808   */\n  dup5\n    /* \"#utility.yul\":797:803   */\n  dup3\n    /* \"#utility.yul\":790:794   */\n  0x20\n    /* \"#utility.yul\":782:788   */\n  dup7\n    /* \"#utility.yul\":778:795   */\n  add\n    /* \"#utility.yul\":719:809   */\n  tag_22\n  jump\t// in\ntag_38:\n    /* \"#utility.yul\":710:809   */\n  swap2\n  pop\n    /* \"#utility.yul\":600:815   */\n  pop\n  swap3\n  swap2\n  pop\n  pop\n  jump\t// out\n    /* \"#utility.yul\":821:1365   */\ntag_5:\n  0x00\n  dup1\n    /* \"#utility.yul\":966:968   */\n  0x40\n    /* \"#utility.yul\":954:963   */\n  dup4\n    /* \"#utility.yul\":945:952   */\n  dup6\n    /* \"#utility.yul\":941:964   */\n  sub\n    /* \"#utility.yul\":937:969   */\n  slt\n    /* \"#utility.yul\":934:936   */\n  iszero\n  tag_40\n  jumpi\n    /* \"#utility.yul\":982:983   */\n  0x00\n    /* \"#utility.yul\":979:980   */\n  dup1\n    /* \"#utility.yul\":972:984   */\n  revert\n    /* \"#utility.yul\":934:936   */\ntag_40:\n    /* \"#utility.yul\":1025:1026   */\n  0x00\n    /* \"#utility.yul\":1050:1113   */\n  tag_41\n    /* \"#utility.yul\":1105:1112   */\n  dup6\n    /* \"#utility.yul\":1096:1102   */\n  dup3\n    /* \"#utility.yul\":1085:1094   */\n  dup7\n    /* \"#utility.yul\":1081:1103   */\n  add\n    /* \"#utility.yul\":1050:1113   */\n  tag_31\n  jump\t// in\ntag_41:\n    /* \"#utility.yul\":1040:1113   */\n  swap3\n  pop\n    /* \"#utility.yul\":996:1123   */\n  pop\n    /* \"#utility.yul\":1183:1185   */\n  0x20\n    /* \"#utility.yul\":1172:1181   */\n  dup4\n    /* \"#utility.yul\":1168:1186   */\n  add\n    /* \"#utility.yul\":1162:1187   */\n  mload\n    /* \"#utility.yul\":1214:1232   */\n  0xffffffffffffffff\n    /* \"#utility.yul\":1206:1212   */\n  dup2\n    /* \"#utility.yul\":1203:1233   */\n  gt\n    /* \"#utility.yul\":1200:1202   */\n  iszero\n  tag_42\n  jumpi\n    /* \"#utility.yul\":1246:1247   */\n  0x00\n    /* \"#utility.yul\":1243:1244   */\n  dup1\n    /* \"#utility.yul\":1236:1248   */\n  revert\n    /* \"#utility.yul\":1200:1202   */\ntag_42:\n    /* \"#utility.yul\":1274:1348   */\n  tag_43\n    /* \"#utility.yul\":1340:1347   */\n  dup6\n    /* \"#utility.yul\":1331:1337   */\n  dup3\n    /* \"#utility.yul\":1320:1329   */\n  dup7\n    /* \"#utility.yul\":1316:1338   */\n  add\n    /* \"#utility.yul\":1274:1348   */\n  tag_35\n  jump\t// in\ntag_43:\n    /* \"#utility.yul\":1264:1348   */\n  swap2\n  pop\n    /* \"#utility.yul\":1133:1358   */\n  pop\n    /* \"#utility.yul\":924:1365   */\n  swap3\n  pop\n  swap3\n  swap1\n  pop\n  jump\t// out\n    /* \"#utility.yul\":1371:1654   */\ntag_27:\n  0x00\n    /* \"#utility.yul\":1437:1439   */\n  0x40\n    /* \"#utility.yul\":1431:1440   */\n  mload\n    /* \"#utility.yul\":1421:1440   */\n  swap1\n  pop\n    /* \"#utility.yul\":1479:1483   */\n  dup2\n    /* \"#utility.yul\":1471:1477   */\n  dup2\n    /* \"#utility.yul\":1467:1484   */\n  add\n    /* \"#utility.yul\":1586:1592   */\n  dup2\n    /* \"#utility.yul\":1574:1584   */\n  dup2\n    /* \"#utility.yul\":1571:1593   */\n  lt\n    /* \"#utility.yul\":1550:1568   */\n  0xffffffffffffffff\n    /* \"#utility.yul\":1538:1548   */\n  dup3\n    /* \"#utility.yul\":1535:1569   */\n  gt\n    /* \"#utility.yul\":1532:1594   */\n  or\n    /* \"#utility.yul\":1529:1531   */\n  iszero\n  tag_45\n  jumpi\n    /* \"#utility.yul\":1597:1615   */\n  tag_46\n  tag_47\n  jump\t// in\ntag_46:\n    /* \"#utility.yul\":1529:1531   */\ntag_45:\n    /* \"#utility.yul\":1637:1647   */\n  dup1\n    /* \"#utility.yul\":1633:1635   */\n  0x40\n    /* \"#utility.yul\":1626:1648   */\n  mstore\n    /* \"#utility.yul\":1411:1654   */\n  pop\n  swap2\n  swap1\n  pop\n  jump\t// out\n    /* \"#utility.yul\":1660:1992   */\ntag_26:\n  0x00\n    /* \"#utility.yul\":1812:1830   */\n  0xffffffffffffffff\n    /* \"#utility.yul\":1804:1810   */\n  dup3\n    /* \"#utility.yul\":1801:1831   */\n  gt\n    /* \"#utility.yul\":1798:1800   */\n  iszero\n  tag_49\n  jumpi\n    /* \"#utility.yul\":1834:1852   */\n  tag_50\n  tag_47\n  jump\t// in\ntag_50:\n    /* \"#utility.yul\":1798:1800   */\ntag_49:\n    /* \"#utility.yul\":1919:1923   */\n  0x1f\n    /* \"#utility.yul\":1915:1924   */\n  not\n    /* \"#utility.yul\":1908:1912   */\n  0x1f\n    /* \"#utility.yul\":1900:1906   */\n  dup4\n    /* \"#utility.yul\":1896:1913   */\n  add\n    /* \"#utility.yul\":1892:1925   */\n  and\n    /* \"#utility.yul\":1884:1925   */\n  swap1\n  pop\n    /* \"#utility.yul\":1980:1984   */\n  0x20\n    /* \"#utility.yul\":1974:1978   */\n  dup2\n    /* \"#utility.yul\":1970:1985   */\n  add\n    /* \"#utility.yul\":1962:1985   */\n  swap1\n  pop\n    /* \"#utility.yul\":1727:1992   */\n  swap2\n  swap1\n  pop\n  jump\t// out\n    /* \"#utility.yul\":1998:2074   */\ntag_51:\n  0x00\n    /* \"#utility.yul\":2063:2068   */\n  dup2\n    /* \"#utility.yul\":2052:2068   */\n  swap1\n  pop\n    /* \"#utility.yul\":2042:2074   */\n  swap2\n  swap1\n  pop\n  jump\t// out\n    /* \"#utility.yul\":2080:2387   */\ntag_30:\n    /* \"#utility.yul\":2148:2149   */\n  0x00\n    /* \"#utility.yul\":2158:2271   */\ntag_54:\n    /* \"#utility.yul\":2172:2178   */\n  dup4\n    /* \"#utility.yul\":2169:2170   */\n  dup2\n    /* \"#utility.yul\":2166:2179   */\n  lt\n    /* \"#utility.yul\":2158:2271   */\n  iszero\n  tag_56\n  jumpi\n    /* \"#utility.yul\":2257:2258   */\n  dup1\n    /* \"#utility.yul\":2252:2255   */\n  dup3\n    /* \"#utility.yul\":2248:2259   */\n  add\n    /* \"#utility.yul\":2242:2260   */\n  mload\n    /* \"#utility.yul\":2238:2239   */\n  dup2\n    /* \"#utility.yul\":2233:2236   */\n  dup5\n    /* \"#utility.yul\":2229:2240   */\n  add\n    /* \"#utility.yul\":2222:2261   */\n  mstore\n    /* \"#utility.yul\":2194:2196   */\n  0x20\n    /* \"#utility.yul\":2191:2192   */\n  dup2\n    /* \"#utility.yul\":2187:2197   */\n  add\n    /* \"#utility.yul\":2182:2197   */\n  swap1\n  pop\n    /* \"#utility.yul\":2158:2271   */\n  jump(tag_54)\ntag_56:\n    /* \"#utility.yul\":2289:2295   */\n  dup4\n    /* \"#utility.yul\":2286:2287   */\n  dup2\n    /* \"#utility.yul\":2283:2296   */\n  gt\n    /* \"#utility.yul\":2280:2282   */\n  iszero\n  tag_57\n  jumpi\n    /* \"#utility.yul\":2369:2370   */\n  0x00\n    /* \"#utility.yul\":2360:2366   */\n  dup5\n    /* \"#utility.yul\":2355:2358   */\n  dup5\n    /* \"#utility.yul\":2351:2367   */\n  add\n    /* \"#utility.yul\":2344:2371   */\n  mstore\n    /* \"#utility.yul\":2280:2282   */\ntag_57:\n    /* \"#utility.yul\":2129:2387   */\n  pop\n  pop\n  pop\n  pop\n  jump\t// out\n    /* \"#utility.yul\":2393:2713   */\ntag_11:\n  0x00\n    /* \"#utility.yul\":2474:2475   */\n  0x02\n    /* \"#utility.yul\":2468:2472   */\n  dup3\n    /* \"#utility.yul\":2464:2476   */\n  div\n    /* \"#utility.yul\":2454:2476   */\n  swap1\n  pop\n    /* \"#utility.yul\":2521:2522   */\n  0x01\n    /* \"#utility.yul\":2515:2519   */\n  dup3\n    /* \"#utility.yul\":2511:2523   */\n  and\n    /* \"#utility.yul\":2542:2560   */\n  dup1\n    /* \"#utility.yul\":2532:2534   */\n  tag_59\n  jumpi\n    /* \"#utility.yul\":2598:2602   */\n  0x7f\n    /* \"#utility.yul\":2590:2596   */\n  dup3\n    /* \"#utility.yul\":2586:2603   */\n  and\n    /* \"#utility.yul\":2576:2603   */\n  swap2\n  pop\n    /* \"#utility.yul\":2532:2534   */\ntag_59:\n    /* \"#utility.yul\":2660:2662   */\n  0x20\n    /* \"#utility.yul\":2652:2658   */\n  dup3\n    /* \"#utility.yul\":2649:2663   */\n  lt\n    /* \"#utility.yul\":2629:2647   */\n  dup2\n    /* \"#utility.yul\":2626:2664   */\n  eq\n    /* \"#utility.yul\":2623:2625   */\n  iszero\n  tag_60\n  jumpi\n    /* \"#utility.yul\":2679:2697   */\n  tag_61\n  tag_62\n  jump\t// in\ntag_61:\n    /* \"#utility.yul\":2623:2625   */\ntag_60:\n    /* \"#utility.yul\":2444:2713   */\n  pop\n  swap2\n  swap1\n  pop\n  jump\t// out\n    /* \"#utility.yul\":2719:2899   */\ntag_62:\n    /* \"#utility.yul\":2767:2844   */\n  0x4e487b7100000000000000000000000000000000000000000000000000000000\n    /* \"#utility.yul\":2764:2765   */\n  0x00\n    /* \"#utility.yul\":2757:2845   */\n  mstore\n    /* \"#utility.yul\":2864:2868   */\n  0x22\n    /* \"#utility.yul\":2861:2862   */\n  0x04\n    /* \"#utility.yul\":2854:2869   */\n  mstore\n    /* \"#utility.yul\":2888:2892   */\n  0x24\n    /* \"#utility.yul\":2885:2886   */\n  0x00\n    /* \"#utility.yul\":2878:2893   */\n  revert\n    /* \"#utility.yul\":2905:3085   */\ntag_47:\n    /* \"#utility.yul\":2953:3030   */\n  0x4e487b7100000000000000000000000000000000000000000000000000000000\n    /* \"#utility.yul\":2950:2951   */\n  0x00\n    /* \"#utility.yul\":2943:3031   */\n  mstore\n    /* \"#utility.yul\":3050:3054   */\n  0x41\n    /* \"#utility.yul\":3047:3048   */\n  0x04\n    /* \"#utility.yul\":3040:3055   */\n  mstore\n    /* \"#utility.yul\":3074:3078   */\n  0x24\n    /* \"#utility.yul\":3071:3072   */\n  0x00\n    /* \"#utility.yul\":3064:3079   */\n  revert\n    /* \"#utility.yul\":3091:3211   */\ntag_34:\n    /* \"#utility.yul\":3163:3186   */\n  tag_66\n    /* \"#utility.yul\":3180:3185   */\n  dup2\n    /* \"#utility.yul\":3163:3186   */\n  tag_51\n  jump\t// in\ntag_66:\n    /* \"#utility.yul\":3156:3161   */\n  dup2\n    /* \"#utility.yul\":3153:3187   */\n  eq\n    /* \"#utility.yul\":3143:3145   */\n  tag_67\n  jumpi\n    /* \"#utility.yul\":3201:3202   */\n  0x00\n    /* \"#utility.yul\":3198:3199   */\n  dup1\n    /* \"#utility.yul\":3191:3203   */\n  revert\n    /* \"#utility.yul\":3143:3145   */\ntag_67:\n    /* \"#utility.yul\":3133:3211   */\n  pop\n  jump\t// out\n    /* \"getters_setters.sol\":69:478  contract Property {... */\ntag_9:\n  dataSize(sub_0)\n  dup1\n  dataOffset(sub_0)\n  0x00\n  codecopy\n  0x00\n  return\nstop\n\nsub_0: assembly {\n        /* \"getters_setters.sol\":69:478  contract Property {... */\n      mstore(0x40, 0x80)\n      callvalue\n      dup1\n      iszero\n      tag_1\n      jumpi\n      0x00\n      dup1\n      revert\n    tag_1:\n      pop\n      jumpi(tag_2, lt(calldatasize, 0x04))\n      shr(0xe0, calldataload(0x00))\n      dup1\n      0x8da5cb5b\n      eq\n      tag_3\n      jumpi\n      dup1\n      0x98d5fdca\n      eq\n      tag_4\n      jumpi\n      dup1\n      0xa035b1fe\n      eq\n      tag_5\n      jumpi\n      dup1\n      0xf7a30806\n      eq\n      tag_6\n      jumpi\n    tag_2:\n      0x00\n      dup1\n      revert\n        /* \"getters_setters.sol\":150:170  address public owner */\n    tag_3:\n      tag_7\n      tag_8\n      jump\t// in\n    tag_7:\n      mload(0x40)\n      tag_9\n      swap2\n      swap1\n      tag_10\n      jump\t// in\n    tag_9:\n      mload(0x40)\n      dup1\n      swap2\n      sub\n      swap1\n      return\n        /* \"getters_setters.sol\":398:476  function getPrice() public view returns (int256) {... */\n    tag_4:\n      tag_11\n      tag_12\n      jump\t// in\n    tag_11:\n      mload(0x40)\n      tag_13\n      swap2\n      swap1\n      tag_14\n      jump\t// in\n    tag_13:\n      mload(0x40)\n      dup1\n      swap2\n      sub\n      swap1\n      return\n        /* \"getters_setters.sol\":93:112  int256 public price */\n    tag_5:\n      tag_15\n      tag_16\n      jump\t// in\n    tag_15:\n      mload(0x40)\n      tag_17\n      swap2\n      swap1\n      tag_14\n      jump\t// in\n    tag_17:\n      mload(0x40)\n      dup1\n      swap2\n      sub\n      swap1\n      return\n        /* \"getters_setters.sol\":321:392  function setPrice(int256 _price) public {... */\n    tag_6:\n      tag_18\n      0x04\n      dup1\n      calldatasize\n      sub\n      dup2\n      add\n      swap1\n      tag_19\n      swap2\n      swap1\n      tag_20\n      jump\t// in\n    tag_19:\n      tag_21\n      jump\t// in\n    tag_18:\n      stop\n        /* \"getters_setters.sol\":150:170  address public owner */\n    tag_8:\n      0x02\n      0x00\n      swap1\n      sload\n      swap1\n      0x0100\n      exp\n      swap1\n      div\n      0xffffffffffffffffffffffffffffffffffffffff\n      and\n      dup2\n      jump\t// out\n        /* \"getters_setters.sol\":398:476  function getPrice() public view returns (int256) {... */\n    tag_12:\n        /* \"getters_setters.sol\":439:445  int256 */\n      0x00\n        /* \"getters_setters.sol\":464:469  price */\n      dup1\n      sload\n        /* \"getters_setters.sol\":457:469  return price */\n      swap1\n      pop\n        /* \"getters_setters.sol\":398:476  function getPrice() public view returns (int256) {... */\n      swap1\n      jump\t// out\n        /* \"getters_setters.sol\":93:112  int256 public price */\n    tag_16:\n      sload(0x00)\n      dup2\n      jump\t// out\n        /* \"getters_setters.sol\":321:392  function setPrice(int256 _price) public {... */\n    tag_21:\n        /* \"getters_setters.sol\":379:385  _price */\n      dup1\n        /* \"getters_setters.sol\":371:376  price */\n      0x00\n        /* \"getters_setters.sol\":371:385  price = _price */\n      dup2\n      swap1\n      sstore\n      pop\n        /* \"getters_setters.sol\":321:392  function setPrice(int256 _price) public {... */\n      pop\n      jump\t// out\n        /* \"#utility.yul\":7:144   */\n    tag_25:\n      0x00\n        /* \"#utility.yul\":90:96   */\n      dup2\n        /* \"#utility.yul\":77:97   */\n      calldataload\n        /* \"#utility.yul\":68:97   */\n      swap1\n      pop\n        /* \"#utility.yul\":106:138   */\n      tag_27\n        /* \"#utility.yul\":132:137   */\n      dup2\n        /* \"#utility.yul\":106:138   */\n      tag_28\n      jump\t// in\n    tag_27:\n        /* \"#utility.yul\":58:144   */\n      swap3\n      swap2\n      pop\n      pop\n      jump\t// out\n        /* \"#utility.yul\":150:410   */\n    tag_20:\n      0x00\n        /* \"#utility.yul\":257:259   */\n      0x20\n        /* \"#utility.yul\":245:254   */\n      dup3\n        /* \"#utility.yul\":236:243   */\n      dup5\n        /* \"#utility.yul\":232:255   */\n      sub\n        /* \"#utility.yul\":228:260   */\n      slt\n        /* \"#utility.yul\":225:227   */\n      iszero\n      tag_30\n      jumpi\n        /* \"#utility.yul\":273:274   */\n      0x00\n        /* \"#utility.yul\":270:271   */\n      dup1\n        /* \"#utility.yul\":263:275   */\n      revert\n        /* \"#utility.yul\":225:227   */\n    tag_30:\n        /* \"#utility.yul\":316:317   */\n      0x00\n        /* \"#utility.yul\":341:393   */\n      tag_31\n        /* \"#utility.yul\":385:392   */\n      dup5\n        /* \"#utility.yul\":376:382   */\n      dup3\n        /* \"#utility.yul\":365:374   */\n      dup6\n        /* \"#utility.yul\":361:383   */\n      add\n        /* \"#utility.yul\":341:393   */\n      tag_25\n      jump\t// in\n    tag_31:\n        /* \"#utility.yul\":331:393   */\n      swap2\n      pop\n        /* \"#utility.yul\":287:403   */\n      pop\n        /* \"#utility.yul\":215:410   */\n      swap3\n      swap2\n      pop\n      pop\n      jump\t// out\n        /* \"#utility.yul\":416:534   */\n    tag_32:\n        /* \"#utility.yul\":503:527   */\n      tag_34\n        /* \"#utility.yul\":521:526   */\n      dup2\n        /* \"#utility.yul\":503:527   */\n      tag_35\n      jump\t// in\n    tag_34:\n        /* \"#utility.yul\":498:501   */\n      dup3\n        /* \"#utility.yul\":491:528   */\n      mstore\n        /* \"#utility.yul\":481:534   */\n      pop\n      pop\n      jump\t// out\n        /* \"#utility.yul\":540:655   */\n    tag_36:\n        /* \"#utility.yul\":625:648   */\n      tag_38\n        /* \"#utility.yul\":642:647   */\n      dup2\n        /* \"#utility.yul\":625:648   */\n      tag_39\n      jump\t// in\n    tag_38:\n        /* \"#utility.yul\":620:623   */\n      dup3\n        /* \"#utility.yul\":613:649   */\n      mstore\n        /* \"#utility.yul\":603:655   */\n      pop\n      pop\n      jump\t// out\n        /* \"#utility.yul\":661:883   */\n    tag_10:\n      0x00\n        /* \"#utility.yul\":792:794   */\n      0x20\n        /* \"#utility.yul\":781:790   */\n      dup3\n        /* \"#utility.yul\":777:795   */\n      add\n        /* \"#utility.yul\":769:795   */\n      swap1\n      pop\n        /* \"#utility.yul\":805:876   */\n      tag_41\n        /* \"#utility.yul\":873:874   */\n      0x00\n        /* \"#utility.yul\":862:871   */\n      dup4\n        /* \"#utility.yul\":858:875   */\n      add\n        /* \"#utility.yul\":849:855   */\n      dup5\n        /* \"#utility.yul\":805:876   */\n      tag_32\n      jump\t// in\n    tag_41:\n        /* \"#utility.yul\":759:883   */\n      swap3\n      swap2\n      pop\n      pop\n      jump\t// out\n        /* \"#utility.yul\":889:1107   */\n    tag_14:\n      0x00\n        /* \"#utility.yul\":1018:1020   */\n      0x20\n        /* \"#utility.yul\":1007:1016   */\n      dup3\n        /* \"#utility.yul\":1003:1021   */\n      add\n        /* \"#utility.yul\":995:1021   */\n      swap1\n      pop\n        /* \"#utility.yul\":1031:1100   */\n      tag_43\n        /* \"#utility.yul\":1097:1098   */\n      0x00\n        /* \"#utility.yul\":1086:1095   */\n      dup4\n        /* \"#utility.yul\":1082:1099   */\n      add\n        /* \"#utility.yul\":1073:1079   */\n      dup5\n        /* \"#utility.yul\":1031:1100   */\n      tag_36\n      jump\t// in\n    tag_43:\n        /* \"#utility.yul\":985:1107   */\n      swap3\n      swap2\n      pop\n      pop\n      jump\t// out\n        /* \"#utility.yul\":1113:1209   */\n    tag_35:\n      0x00\n        /* \"#utility.yul\":1179:1203   */\n      tag_45\n        /* \"#utility.yul\":1197:1202   */\n      dup3\n        /* \"#utility.yul\":1179:1203   */\n      tag_46\n      jump\t// in\n    tag_45:\n        /* \"#utility.yul\":1168:1203   */\n      swap1\n      pop\n        /* \"#utility.yul\":1158:1209   */\n      swap2\n      swap1\n      pop\n      jump\t// out\n        /* \"#utility.yul\":1215:1291   */\n    tag_39:\n      0x00\n        /* \"#utility.yul\":1280:1285   */\n      dup2\n        /* \"#utility.yul\":1269:1285   */\n      swap1\n      pop\n        /* \"#utility.yul\":1259:1291   */\n      swap2\n      swap1\n      pop\n      jump\t// out\n        /* \"#utility.yul\":1297:1423   */\n    tag_46:\n      0x00\n        /* \"#utility.yul\":1374:1416   */\n      0xffffffffffffffffffffffffffffffffffffffff\n        /* \"#utility.yul\":1367:1372   */\n      dup3\n        /* \"#utility.yul\":1363:1417   */\n      and\n        /* \"#utility.yul\":1352:1417   */\n      swap1\n      pop\n        /* \"#utility.yul\":1342:1423   */\n      swap2\n      swap1\n      pop\n      jump\t// out\n        /* \"#utility.yul\":1429:1549   */\n    tag_28:\n        /* \"#utility.yul\":1501:1524   */\n      tag_50\n        /* \"#utility.yul\":1518:1523   */\n      dup2\n        /* \"#utility.yul\":1501:1524   */\n      tag_39\n      jump\t// in\n    tag_50:\n        /* \"#utility.yul\":1494:1499   */\n      dup2\n        /* \"#utility.yul\":1491:1525   */\n      eq\n        /* \"#utility.yul\":1481:1483   */\n      tag_51\n      jumpi\n        /* \"#utility.yul\":1539:1540   */\n      0x00\n        /* \"#utility.yul\":1536:1537   */\n      dup1\n        /* \"#utility.yul\":1529:1541   */\n      revert\n        /* \"#utility.yul\":1481:1483   */\n    tag_51:\n        /* \"#utility.yul\":1471:1549   */\n      pop\n      jump\t// out\n\n    auxdata: 0xa26469706673582212202179ed3d0688c8a6b9ff9462580f7f203ce0cd2d972234356fe8a876ae973c2864736f6c63430008000033\n}\n",
				"bytecode": {
					"linkReferences": {},
					"object": "60806040526040518060400160405280600681526020017f4c6f6e646f6e00000000000000000000000000000000000000000000000000008152506001908051906020019061004f9291906100e4565b5034801561005c57600080fd5b506040516105cd3803806105cd833981810160405281019061007e9190610204565b81600081905550806001908051906020019061009b9291906100e4565b5033600260006101000a81548173ffffffffffffffffffffffffffffffffffffffff021916908373ffffffffffffffffffffffffffffffffffffffff160217905550505061039d565b8280546100f0906102f6565b90600052602060002090601f0160209004810192826101125760008555610159565b82601f1061012b57805160ff1916838001178555610159565b82800160010185558215610159579182015b8281111561015857825182559160200191906001019061013d565b5b509050610166919061016a565b5090565b5b8082111561018357600081600090555060010161016b565b5090565b600061019a61019584610289565b610258565b9050828152602081018484840111156101b257600080fd5b6101bd8482856102c3565b509392505050565b6000815190506101d481610386565b92915050565b600082601f8301126101eb57600080fd5b81516101fb848260208601610187565b91505092915050565b6000806040838503121561021757600080fd5b6000610225858286016101c5565b925050602083015167ffffffffffffffff81111561024257600080fd5b61024e858286016101da565b9150509250929050565b6000604051905081810181811067ffffffffffffffff8211171561027f5761027e610357565b5b8060405250919050565b600067ffffffffffffffff8211156102a4576102a3610357565b5b601f19601f8301169050602081019050919050565b6000819050919050565b60005b838110156102e15780820151818401526020810190506102c6565b838111156102f0576000848401525b50505050565b6000600282049050600182168061030e57607f821691505b6020821081141561032257610321610328565b5b50919050565b7f4e487b7100000000000000000000000000000000000000000000000000000000600052602260045260246000fd5b7f4e487b7100000000000000000000000000000000000000000000000000000000600052604160045260246000fd5b61038f816102b9565b811461039a57600080fd5b50565b610221806103ac6000396000f3fe608060405234801561001057600080fd5b506004361061004c5760003560e01c80638da5cb5b1461005157806398d5fdca1461006f578063a035b1fe1461008d578063f7a30806146100ab575b600080fd5b6100596100c7565b6040516100669190610162565b60405180910390f35b6100776100ed565b604051610084919061017d565b60405180910390f35b6100956100f6565b6040516100a2919061017d565b60405180910390f35b6100c560048036038101906100c0919061011b565b6100fc565b005b600260009054906101000a900473ffffffffffffffffffffffffffffffffffffffff1681565b60008054905090565b60005481565b8060008190555050565b600081359050610115816101d4565b92915050565b60006020828403121561012d57600080fd5b600061013b84828501610106565b91505092915050565b61014d81610198565b82525050565b61015c816101aa565b82525050565b60006020820190506101776000830184610144565b92915050565b60006020820190506101926000830184610153565b92915050565b60006101a3826101b4565b9050919050565b6000819050919050565b600073ffffffffffffffffffffffffffffffffffffffff82169050919050565b6101dd816101aa565b81146101e857600080fd5b5056fea26469706673582212202179ed3d0688c8a6b9ff9462580f7f203ce0cd2d972234356fe8a876ae973c2864736f6c63430008000033",
					"opcodes": "PUSH1 0x80 PUSH1 0x40 MSTORE PUSH1 0x40 MLOAD DUP1 PUSH1 0x40 ADD PUSH1 0x40 MSTORE DUP1 PUSH1 0x6 DUP2 MSTORE PUSH1 0x20 ADD PUSH32 0x4C6F6E646F6E0000000000000000000000000000000000000000000000000000 DUP2 MSTORE POP PUSH1 0x1 SWAP1 DUP1 MLOAD SWAP1 PUSH1 0x20 ADD SWAP1 PUSH2 0x4F SWAP3 SWAP2 SWAP1 PUSH2 0xE4 JUMP JUMPDEST POP CALLVALUE DUP1 ISZERO PUSH2 0x5C JUMPI PUSH1 0x0 DUP1 REVERT JUMPDEST POP PUSH1 0x40 MLOAD PUSH2 0x5CD CODESIZE SUB DUP1 PUSH2 0x5CD DUP4 CODECOPY DUP2 DUP2 ADD PUSH1 0x40 MSTORE DUP2 ADD SWAP1 PUSH2 0x7E SWAP2 SWAP1 PUSH2 0x204 JUMP JUMPDEST DUP2 PUSH1 0x0 DUP2 SWAP1 SSTORE POP DUP1 PUSH1 0x1 SWAP1 DUP1 MLOAD SWAP1 PUSH1 0x20 ADD SWAP1 PUSH2 0x9B SWAP3 SWAP2 SWAP1 PUSH2 0xE4 JUMP JUMPDEST POP CALLER PUSH1 0x2 PUSH1 0x0 PUSH2 0x100 EXP DUP2 SLOAD DUP2 PUSH20 0xFFFFFFFFFFFFFFFFFFFFFFFFFFFFFFFFFFFFFFFF MUL NOT AND SWAP1 DUP4 PUSH20 0xFFFFFFFFFFFFFFFFFFFFFFFFFFFFFFFFFFFFFFFF AND MUL OR SWAP1 SSTORE POP POP POP PUSH2 0x39D JUMP JUMPDEST DUP3 DUP1 SLOAD PUSH2 0xF0 SWAP1 PUSH2 0x2F6 JUMP JUMPDEST SWAP1 PUSH1 0x0 MSTORE PUSH1 0x20 PUSH1 0x0 KECCAK256 SWAP1 PUSH1 0x1F ADD PUSH1 0x20 SWAP1 DIV DUP2 ADD SWAP3 DUP3 PUSH2 0x112 JUMPI PUSH1 0x0 DUP6 SSTORE PUSH2 0x159 JUMP JUMPDEST DUP3 PUSH1 0x1F LT PUSH2 0x12B JUMPI DUP1 MLOAD PUSH1 0xFF NOT AND DUP4 DUP1 ADD OR DUP6 SSTORE PUSH2 0x159 JUMP JUMPDEST DUP3 DUP1 ADD PUSH1 0x1 ADD DUP6 SSTORE DUP3 ISZERO PUSH2 0x159 JUMPI SWAP2 DUP3 ADD JUMPDEST DUP3 DUP2 GT ISZERO PUSH2 0x158 JUMPI DUP3 MLOAD DUP3 SSTORE SWAP2 PUSH1 0x20 ADD SWAP2 SWAP1 PUSH1 0x1 ADD SWAP1 PUSH2 0x13D JUMP JUMPDEST JUMPDEST POP SWAP1 POP PUSH2 0x166 SWAP2 SWAP1 PUSH2 0x16A JUMP JUMPDEST POP SWAP1 JUMP JUMPDEST JUMPDEST DUP1 DUP3 GT ISZERO PUSH2 0x183 JUMPI PUSH1 0x0 DUP2 PUSH1 0x0 SWAP1 SSTORE POP PUSH1 0x1 ADD PUSH2 0x16B JUMP JUMPDEST POP SWAP1 JUMP JUMPDEST PUSH1 0x0 PUSH2 0x19A PUSH2 0x195 DUP5 PUSH2 0x289 JUMP JUMPDEST PUSH2 0x258 JUMP JUMPDEST SWAP1 POP DUP3 DUP2 MSTORE PUSH1 0x20 DUP2 ADD DUP5 DUP5 DUP5 ADD GT ISZERO PUSH2 0x1B2 JUMPI PUSH1 0x0 DUP1 REVERT JUMPDEST PUSH2 0x1BD DUP5 DUP3 DUP6 PUSH2 0x2C3 JUMP JUMPDEST POP SWAP4 SWAP3 POP POP POP JUMP JUMPDEST PUSH1 0x0 DUP2 MLOAD SWAP1 POP PUSH2 0x1D4 DUP2 PUSH2 0x386 JUMP JUMPDEST SWAP3 SWAP2 POP POP JUMP JUMPDEST PUSH1 0x0 DUP3 PUSH1 0x1F DUP4 ADD SLT PUSH2 0x1EB JUMPI PUSH1 0x0 DUP1 REVERT JUMPDEST DUP2 MLOAD PUSH2 0x1FB DUP5 DUP3 PUSH1 0x20 DUP7 ADD PUSH2 0x187 JUMP JUMPDEST SWAP2 POP POP SWAP3 SWAP2 POP POP JUMP JUMPDEST PUSH1 0x0 DUP1 PUSH1 0x40 DUP4 DUP6 SUB SLT ISZERO PUSH2 0x217 JUMPI PUSH1 0x0 DUP1 REVERT JUMPDEST PUSH1 0x0 PUSH2 0x225 DUP6 DUP3 DUP7 ADD PUSH2 0x1C5 JUMP JUMPDEST SWAP3 POP POP PUSH1 0x20 DUP4 ADD MLOAD PUSH8 0xFFFFFFFFFFFFFFFF DUP2 GT ISZERO PUSH2 0x242 JUMPI PUSH1 0x0 DUP1 REVERT JUMPDEST PUSH2 0x24E DUP6 DUP3 DUP7 ADD PUSH2 0x1DA JUMP JUMPDEST SWAP2 POP POP SWAP3 POP SWAP3 SWAP1 POP JUMP JUMPDEST PUSH1 0x0 PUSH1 0x40 MLOAD SWAP1 POP DUP2 DUP2 ADD DUP2 DUP2 LT PUSH8 0xFFFFFFFFFFFFFFFF DUP3 GT OR ISZERO PUSH2 0x27F JUMPI PUSH2 0x27E PUSH2 0x357 JUMP JUMPDEST JUMPDEST DUP1 PUSH1 0x40 MSTORE POP SWAP2 SWAP1 POP JUMP JUMPDEST PUSH1 0x0 PUSH8 0xFFFFFFFFFFFFFFFF DUP3 GT ISZERO PUSH2 0x2A4 JUMPI PUSH2 0x2A3 PUSH2 0x357 JUMP JUMPDEST JUMPDEST PUSH1 0x1F NOT PUSH1 0x1F DUP4 ADD AND SWAP1 POP PUSH1 0x20 DUP2 ADD SWAP1 POP SWAP2 SWAP1 POP JUMP JUMPDEST PUSH1 0x0 DUP2 SWAP1 POP SWAP2 SWAP1 POP JUMP JUMPDEST PUSH1 0x0 JUMPDEST DUP4 DUP2 LT ISZERO PUSH2 0x2E1 JUMPI DUP1 DUP3 ADD MLOAD DUP2 DUP5 ADD MSTORE PUSH1 0x20 DUP2 ADD SWAP1 POP PUSH2 0x2C6 JUMP JUMPDEST DUP4 DUP2 GT ISZERO PUSH2 0x2F0 JUMPI PUSH1 0x0 DUP5 DUP5 ADD MSTORE JUMPDEST POP POP POP POP JUMP JUMPDEST PUSH1 0x0 PUSH1 0x2 DUP3 DIV SWAP1 POP PUSH1 0x1 DUP3 AND DUP1 PUSH2 0x30E JUMPI PUSH1 0x7F DUP3 AND SWAP2 POP JUMPDEST PUSH1 0x20 DUP3 LT DUP2 EQ ISZERO PUSH2 0x322 JUMPI PUSH2 0x321 PUSH2 0x328 JUMP JUMPDEST JUMPDEST POP SWAP2 SWAP1 POP JUMP JUMPDEST PUSH32 0x4E487B7100000000000000000000000000000000000000000000000000000000 PUSH1 0x0 MSTORE PUSH1 0x22 PUSH1 0x4 MSTORE PUSH1 0x24 PUSH1 0x0 REVERT JUMPDEST PUSH32 0x4E487B7100000000000000000000000000000000000000000000000000000000 PUSH1 0x0 MSTORE PUSH1 0x41 PUSH1 0x4 MSTORE PUSH1 0x24 PUSH1 0x0 REVERT JUMPDEST PUSH2 0x38F DUP2 PUSH2 0x2B9 JUMP JUMPDEST DUP2 EQ PUSH2 0x39A JUMPI PUSH1 0x0 DUP1 REVERT JUMPDEST POP JUMP JUMPDEST PUSH2 0x221 DUP1 PUSH2 0x3AC PUSH1 0x0 CODECOPY PUSH1 0x0 RETURN INVALID PUSH1 0x80 PUSH1 0x40 MSTORE CALLVALUE DUP1 ISZERO PUSH2 0x10 JUMPI PUSH1 0x0 DUP1 REVERT JUMPDEST POP PUSH1 0x4 CALLDATASIZE LT PUSH2 0x4C JUMPI PUSH1 0x0 CALLDATALOAD PUSH1 0xE0 SHR DUP1 PUSH4 0x8DA5CB5B EQ PUSH2 0x51 JUMPI DUP1 PUSH4 0x98D5FDCA EQ PUSH2 0x6F JUMPI DUP1 PUSH4 0xA035B1FE EQ PUSH2 0x8D JUMPI DUP1 PUSH4 0xF7A30806 EQ PUSH2 0xAB JUMPI JUMPDEST PUSH1 0x0 DUP1 REVERT JUMPDEST PUSH2 0x59 PUSH2 0xC7 JUMP JUMPDEST PUSH1 0x40 MLOAD PUSH2 0x66 SWAP2 SWAP1 PUSH2 0x162 JUMP JUMPDEST PUSH1 0x40 MLOAD DUP1 SWAP2 SUB SWAP1 RETURN JUMPDEST PUSH2 0x77 PUSH2 0xED JUMP JUMPDEST PUSH1 0x40 MLOAD PUSH2 0x84 SWAP2 SWAP1 PUSH2 0x17D JUMP JUMPDEST PUSH1 0x40 MLOAD DUP1 SWAP2 SUB SWAP1 RETURN JUMPDEST PUSH2 0x95 PUSH2 0xF6 JUMP JUMPDEST PUSH1 0x40 MLOAD PUSH2 0xA2 SWAP2 SWAP1 PUSH2 0x17D JUMP JUMPDEST PUSH1 0x40 MLOAD DUP1 SWAP2 SUB SWAP1 RETURN JUMPDEST PUSH2 0xC5 PUSH1 0x4 DUP1 CALLDATASIZE SUB DUP2 ADD SWAP1 PUSH2 0xC0 SWAP2 SWAP1 PUSH2 0x11B JUMP JUMPDEST PUSH2 0xFC JUMP JUMPDEST STOP JUMPDEST PUSH1 0x2 PUSH1 0x0 SWAP1 SLOAD SWAP1 PUSH2 0x100 EXP SWAP1 DIV PUSH20 0xFFFFFFFFFFFFFFFFFFFFFFFFFFFFFFFFFFFFFFFF AND DUP2 JUMP JUMPDEST PUSH1 0x0 DUP1 SLOAD SWAP1 POP SWAP1 JUMP JUMPDEST PUSH1 0x0 SLOAD DUP2 JUMP JUMPDEST DUP1 PUSH1 0x0 DUP2 SWAP1 SSTORE POP POP JUMP JUMPDEST PUSH1 0x0 DUP2 CALLDATALOAD SWAP1 POP PUSH2 0x115 DUP2 PUSH2 0x1D4 JUMP JUMPDEST SWAP3 SWAP2 POP POP JUMP JUMPDEST PUSH1 0x0 PUSH1 0x20 DUP3 DUP5 SUB SLT ISZERO PUSH2 0x12D JUMPI PUSH1 0x0 DUP1 REVERT JUMPDEST PUSH1 0x0 PUSH2 0x13B DUP5 DUP3 DUP6 ADD PUSH2 0x106 JUMP JUMPDEST SWAP2 POP POP SWAP3 SWAP2 POP POP JUMP JUMPDEST PUSH2 0x14D DUP2 PUSH2 0x198 JUMP JUMPDEST DUP3 MSTORE POP POP JUMP JUMPDEST PUSH2 0x15C DUP2 PUSH2 0x1AA JUMP JUMPDEST DUP3 MSTORE POP POP JUMP JUMPDEST PUSH1 0x0 PUSH1 0x20 DUP3 ADD SWAP1 POP PUSH2 0x177 PUSH1 0x0 DUP4 ADD DUP5 PUSH2 0x144 JUMP JUMPDEST SWAP3 SWAP2 POP POP JUMP JUMPDEST PUSH1 0x0 PUSH1 0x20 DUP3 ADD SWAP1 POP PUSH2 0x192 PUSH1 0x0 DUP4 ADD DUP5 PUSH2 0x153 JUMP JUMPDEST SWAP3 SWAP2 POP POP JUMP JUMPDEST PUSH1 0x0 PUSH2 0x1A3 DUP3 PUSH2 0x1B4 JUMP JUMPDEST SWAP1 POP SWAP2 SWAP1 POP JUMP JUMPDEST PUSH1 0x0 DUP2 SWAP1 POP SWAP2 SWAP1 POP JUMP JUMPDEST PUSH1 0x0 PUSH20 0xFFFFFFFFFFFFFFFFFFFFFFFFFFFFFFFFFFFFFFFF DUP3 AND SWAP1 POP SWAP2 SWAP1 POP JUMP JUMPDEST PUSH2 0x1DD DUP2 PUSH2 0x1AA JUMP JUMPDEST DUP2 EQ PUSH2 0x1E8 JUMPI PUSH1 0x0 DUP1 REVERT JUMPDEST POP JUMP INVALID LOG2 PUSH5 0x6970667358 0x22 SLT KECCAK256 0x21 PUSH26 0xED3D0688C8A6B9FF9462580F7F203CE0CD2D972234356FE8A876 0xAE SWAP8 EXTCODECOPY 0x28 PUSH5 0x736F6C6343 STOP ADDMOD STOP STOP CALLER "
				},
				"gasEstimates": {
					"creation": {
						"codeDepositCost": "109000",
						"executionCost": "infinite",
						"totalCost": "infinite"
					},
					"external": {
						"getPrice()": "1137",
						"owner()": "1192",
						"price()": "1151",
						"setPrice(int256)": "20464"
					}
				},
				"methodIdentifiers": {
					"getPrice()": "98d5fdca",
					"owner()": "8da5cb5b",
					"price()": "a035b1fe",
					"setPrice(int256)": "f7a30806"
				}
			},
			"storageLayout": {
				"storage": [
					{
						"astId": 3,
						"contract": "getters_setters.sol:Property",
						"label": "price",
						"offset": 0,
						"slot": "0",
						"type": "t_int256"
					},
					{
						"astId": 6,
						"contract": "getters_setters.sol:Property",
						"label": "location",
						"offset": 0,
						"slot": "1",
						"type": "t_string_storage"
					},
					{
						"astId": 8,
						"contract": "getters_setters.sol:Property",
						"label": "owner",
						"offset": 0,
						"slot": "2",
						"type": "t_address"
					}
				],
				"types": {
					"t_address": {
						"encoding": "inplace",
						"label": "address",
						"numberOfBytes": "20"
					},
					"t_int256": {
						"encoding": "inplace",
						"label": "int256",
						"numberOfBytes": "32"
					},
					"t_string_storage": {
						"encoding": "bytes",
						"label": "string",
						"numberOfBytes": "32"
					}
				}
			},
			"userdoc": {
				"kind": "user",
				"methods": {},
				"version": 1
			}
		}
	}
}