{
	"struct.sol": {
		"Academy": {
			"abi": [
				{
					"inputs": [
						{
							"internalType": "uint256",
							"name": "_age",
							"type": "uint256"
						},
						{
							"internalType": "string",
							"name": "_name",
							"type": "string"
						}
					],
					"stateMutability": "nonpayable",
					"type": "constructor"
				},
				{
					"inputs": [],
					"name": "academyInstructor",
					"outputs": [
						{
							"internalType": "uint256",
							"name": "age",
							"type": "uint256"
						},
						{
							"internalType": "string",
							"name": "name",
							"type": "string"
						},
						{
							"internalType": "address",
							"name": "addr",
							"type": "address"
						}
					],
					"stateMutability": "view",
					"type": "function"
				},
				{
					"inputs": [],
					"name": "academyState",
					"outputs": [
						{
							"internalType": "enum Academy.State",
							"name": "",
							"type": "uint8"
						}
					],
					"stateMutability": "view",
					"type": "function"
				},
				{
					"inputs": [
						{
							"internalType": "uint256",
							"name": "_age",
							"type": "uint256"
						},
						{
							"internalType": "string",
							"name": "_name",
							"type": "string"
						},
						{
							"internalType": "address",
							"name": "_addr",
							"type": "address"
						}
					],
					"name": "changeInstructor",
					"outputs": [],
					"stateMutability": "nonpayable",
					"type": "function"
				}
			],
			"devdoc": {
				"kind": "dev",
				"methods": {},
				"version": 1
			},
			"evm": {
				"assembly": "    /* \"struct.sol\":144:884  contract Academy {... */\n  mstore(0x40, 0x80)\n    /* \"struct.sol\":306:316  State.Open */\n  0x00\n    /* \"struct.sol\":278:316  State public academyState = State.Open */\n  0x03\n  exp(0x0100, 0x00)\n  dup2\n  sload\n  dup2\n  0xff\n  mul\n  not\n  and\n  swap1\n  dup4\n  0x02\n  dup2\n  gt\n  iszero\n  tag_1\n  jumpi\n  tag_2\n  tag_3\n  jump\t// in\ntag_2:\ntag_1:\n  mul\n  or\n  swap1\n  sstore\n  pop\n    /* \"struct.sol\":323:500  constructor(uint256 _age, string memory _name) {... */\n  callvalue\n  dup1\n  iszero\n  tag_4\n  jumpi\n  0x00\n  dup1\n  revert\ntag_4:\n  pop\n  mload(0x40)\n  sub(codesize, bytecodeSize)\n  dup1\n  bytecodeSize\n  dup4\n  codecopy\n  dup2\n  dup2\n  add\n  0x40\n  mstore\n  dup2\n  add\n  swap1\n  tag_5\n  swap2\n  swap1\n  tag_6\n  jump\t// in\ntag_5:\n    /* \"struct.sol\":404:408  _age */\n  dup2\n    /* \"struct.sol\":380:397  academyInstructor */\n  0x00\n    /* \"struct.sol\":380:401  academyInstructor.age */\n  dup1\n  add\n    /* \"struct.sol\":380:408  academyInstructor.age = _age */\n  dup2\n  swap1\n  sstore\n  pop\n    /* \"struct.sol\":443:448  _name */\n  dup1\n    /* \"struct.sol\":418:435  academyInstructor */\n  0x00\n    /* \"struct.sol\":418:440  academyInstructor.name */\n  0x01\n  add\n    /* \"struct.sol\":418:448  academyInstructor.name = _name */\n  swap1\n  dup2\n  tag_9\n  swap2\n  swap1\n  tag_10\n  jump\t// in\ntag_9:\n  pop\n    /* \"struct.sol\":483:493  msg.sender */\n  caller\n    /* \"struct.sol\":458:475  academyInstructor */\n  0x00\n    /* \"struct.sol\":458:480  academyInstructor.addr */\n  0x02\n  add\n  0x00\n    /* \"struct.sol\":458:493  academyInstructor.addr = msg.sender */\n  0x0100\n  exp\n  dup2\n  sload\n  dup2\n  0xffffffffffffffffffffffffffffffffffffffff\n  mul\n  not\n  and\n  swap1\n  dup4\n  0xffffffffffffffffffffffffffffffffffffffff\n  and\n  mul\n  or\n  swap1\n  sstore\n  pop\n    /* \"struct.sol\":323:500  constructor(uint256 _age, string memory _name) {... */\n  pop\n  pop\n    /* \"struct.sol\":144:884  contract Academy {... */\n  jump(tag_11)\n    /* \"#utility.yul\":7:187   */\ntag_3:\n    /* \"#utility.yul\":55:132   */\n  0x4e487b7100000000000000000000000000000000000000000000000000000000\n    /* \"#utility.yul\":52:53   */\n  0x00\n    /* \"#utility.yul\":45:133   */\n  mstore\n    /* \"#utility.yul\":152:156   */\n  0x21\n    /* \"#utility.yul\":149:150   */\n  0x04\n    /* \"#utility.yul\":142:157   */\n  mstore\n    /* \"#utility.yul\":176:180   */\n  0x24\n    /* \"#utility.yul\":173:174   */\n  0x00\n    /* \"#utility.yul\":166:181   */\n  revert\n    /* \"#utility.yul\":193:268   */\ntag_12:\n    /* \"#utility.yul\":226:232   */\n  0x00\n    /* \"#utility.yul\":259:261   */\n  0x40\n    /* \"#utility.yul\":253:262   */\n  mload\n    /* \"#utility.yul\":243:262   */\n  swap1\n  pop\n    /* \"#utility.yul\":193:268   */\n  swap1\n  jump\t// out\n    /* \"#utility.yul\":274:391   */\ntag_13:\n    /* \"#utility.yul\":383:384   */\n  0x00\n    /* \"#utility.yul\":380:381   */\n  dup1\n    /* \"#utility.yul\":373:385   */\n  revert\n    /* \"#utility.yul\":397:514   */\ntag_14:\n    /* \"#utility.yul\":506:507   */\n  0x00\n    /* \"#utility.yul\":503:504   */\n  dup1\n    /* \"#utility.yul\":496:508   */\n  revert\n    /* \"#utility.yul\":520:597   */\ntag_15:\n    /* \"#utility.yul\":557:564   */\n  0x00\n    /* \"#utility.yul\":586:591   */\n  dup2\n    /* \"#utility.yul\":575:591   */\n  swap1\n  pop\n    /* \"#utility.yul\":520:597   */\n  swap2\n  swap1\n  pop\n  jump\t// out\n    /* \"#utility.yul\":603:725   */\ntag_16:\n    /* \"#utility.yul\":676:700   */\n  tag_53\n    /* \"#utility.yul\":694:699   */\n  dup2\n    /* \"#utility.yul\":676:700   */\n  tag_15\n  jump\t// in\ntag_53:\n    /* \"#utility.yul\":669:674   */\n  dup2\n    /* \"#utility.yul\":666:701   */\n  eq\n    /* \"#utility.yul\":656:719   */\n  tag_54\n  jumpi\n    /* \"#utility.yul\":715:716   */\n  0x00\n    /* \"#utility.yul\":712:713   */\n  dup1\n    /* \"#utility.yul\":705:717   */\n  revert\n    /* \"#utility.yul\":656:719   */\ntag_54:\n    /* \"#utility.yul\":603:725   */\n  pop\n  jump\t// out\n    /* \"#utility.yul\":731:874   */\ntag_17:\n    /* \"#utility.yul\":788:793   */\n  0x00\n    /* \"#utility.yul\":819:825   */\n  dup2\n    /* \"#utility.yul\":813:826   */\n  mload\n    /* \"#utility.yul\":804:826   */\n  swap1\n  pop\n    /* \"#utility.yul\":835:868   */\n  tag_56\n    /* \"#utility.yul\":862:867   */\n  dup2\n    /* \"#utility.yul\":835:868   */\n  tag_16\n  jump\t// in\ntag_56:\n    /* \"#utility.yul\":731:874   */\n  swap3\n  swap2\n  pop\n  pop\n  jump\t// out\n    /* \"#utility.yul\":880:997   */\ntag_18:\n    /* \"#utility.yul\":989:990   */\n  0x00\n    /* \"#utility.yul\":986:987   */\n  dup1\n    /* \"#utility.yul\":979:991   */\n  revert\n    /* \"#utility.yul\":1003:1120   */\ntag_19:\n    /* \"#utility.yul\":1112:1113   */\n  0x00\n    /* \"#utility.yul\":1109:1110   */\n  dup1\n    /* \"#utility.yul\":1102:1114   */\n  revert\n    /* \"#utility.yul\":1126:1228   */\ntag_20:\n    /* \"#utility.yul\":1167:1173   */\n  0x00\n    /* \"#utility.yul\":1218:1220   */\n  0x1f\n    /* \"#utility.yul\":1214:1221   */\n  not\n    /* \"#utility.yul\":1209:1211   */\n  0x1f\n    /* \"#utility.yul\":1202:1207   */\n  dup4\n    /* \"#utility.yul\":1198:1212   */\n  add\n    /* \"#utility.yul\":1194:1222   */\n  and\n    /* \"#utility.yul\":1184:1222   */\n  swap1\n  pop\n    /* \"#utility.yul\":1126:1228   */\n  swap2\n  swap1\n  pop\n  jump\t// out\n    /* \"#utility.yul\":1234:1414   */\ntag_21:\n    /* \"#utility.yul\":1282:1359   */\n  0x4e487b7100000000000000000000000000000000000000000000000000000000\n    /* \"#utility.yul\":1279:1280   */\n  0x00\n    /* \"#utility.yul\":1272:1360   */\n  mstore\n    /* \"#utility.yul\":1379:1383   */\n  0x41\n    /* \"#utility.yul\":1376:1377   */\n  0x04\n    /* \"#utility.yul\":1369:1384   */\n  mstore\n    /* \"#utility.yul\":1403:1407   */\n  0x24\n    /* \"#utility.yul\":1400:1401   */\n  0x00\n    /* \"#utility.yul\":1393:1408   */\n  revert\n    /* \"#utility.yul\":1420:1701   */\ntag_22:\n    /* \"#utility.yul\":1503:1530   */\n  tag_62\n    /* \"#utility.yul\":1525:1529   */\n  dup3\n    /* \"#utility.yul\":1503:1530   */\n  tag_20\n  jump\t// in\ntag_62:\n    /* \"#utility.yul\":1495:1501   */\n  dup2\n    /* \"#utility.yul\":1491:1531   */\n  add\n    /* \"#utility.yul\":1633:1639   */\n  dup2\n    /* \"#utility.yul\":1621:1631   */\n  dup2\n    /* \"#utility.yul\":1618:1640   */\n  lt\n    /* \"#utility.yul\":1597:1615   */\n  0xffffffffffffffff\n    /* \"#utility.yul\":1585:1595   */\n  dup3\n    /* \"#utility.yul\":1582:1616   */\n  gt\n    /* \"#utility.yul\":1579:1641   */\n  or\n    /* \"#utility.yul\":1576:1664   */\n  iszero\n  tag_63\n  jumpi\n    /* \"#utility.yul\":1644:1662   */\n  tag_64\n  tag_21\n  jump\t// in\ntag_64:\n    /* \"#utility.yul\":1576:1664   */\ntag_63:\n    /* \"#utility.yul\":1684:1694   */\n  dup1\n    /* \"#utility.yul\":1680:1682   */\n  0x40\n    /* \"#utility.yul\":1673:1695   */\n  mstore\n    /* \"#utility.yul\":1463:1701   */\n  pop\n    /* \"#utility.yul\":1420:1701   */\n  pop\n  pop\n  jump\t// out\n    /* \"#utility.yul\":1707:1836   */\ntag_23:\n    /* \"#utility.yul\":1741:1747   */\n  0x00\n    /* \"#utility.yul\":1768:1788   */\n  tag_66\n  tag_12\n  jump\t// in\ntag_66:\n    /* \"#utility.yul\":1758:1788   */\n  swap1\n  pop\n    /* \"#utility.yul\":1797:1830   */\n  tag_67\n    /* \"#utility.yul\":1825:1829   */\n  dup3\n    /* \"#utility.yul\":1817:1823   */\n  dup3\n    /* \"#utility.yul\":1797:1830   */\n  tag_22\n  jump\t// in\ntag_67:\n    /* \"#utility.yul\":1707:1836   */\n  swap2\n  swap1\n  pop\n  jump\t// out\n    /* \"#utility.yul\":1842:2150   */\ntag_24:\n    /* \"#utility.yul\":1904:1908   */\n  0x00\n    /* \"#utility.yul\":1994:2012   */\n  0xffffffffffffffff\n    /* \"#utility.yul\":1986:1992   */\n  dup3\n    /* \"#utility.yul\":1983:2013   */\n  gt\n    /* \"#utility.yul\":1980:2036   */\n  iszero\n  tag_69\n  jumpi\n    /* \"#utility.yul\":2016:2034   */\n  tag_70\n  tag_21\n  jump\t// in\ntag_70:\n    /* \"#utility.yul\":1980:2036   */\ntag_69:\n    /* \"#utility.yul\":2054:2083   */\n  tag_71\n    /* \"#utility.yul\":2076:2082   */\n  dup3\n    /* \"#utility.yul\":2054:2083   */\n  tag_20\n  jump\t// in\ntag_71:\n    /* \"#utility.yul\":2046:2083   */\n  swap1\n  pop\n    /* \"#utility.yul\":2138:2142   */\n  0x20\n    /* \"#utility.yul\":2132:2136   */\n  dup2\n    /* \"#utility.yul\":2128:2143   */\n  add\n    /* \"#utility.yul\":2120:2143   */\n  swap1\n  pop\n    /* \"#utility.yul\":1842:2150   */\n  swap2\n  swap1\n  pop\n  jump\t// out\n    /* \"#utility.yul\":2156:2402   */\ntag_25:\n    /* \"#utility.yul\":2237:2238   */\n  0x00\n    /* \"#utility.yul\":2247:2360   */\ntag_73:\n    /* \"#utility.yul\":2261:2267   */\n  dup4\n    /* \"#utility.yul\":2258:2259   */\n  dup2\n    /* \"#utility.yul\":2255:2268   */\n  lt\n    /* \"#utility.yul\":2247:2360   */\n  iszero\n  tag_75\n  jumpi\n    /* \"#utility.yul\":2346:2347   */\n  dup1\n    /* \"#utility.yul\":2341:2344   */\n  dup3\n    /* \"#utility.yul\":2337:2348   */\n  add\n    /* \"#utility.yul\":2331:2349   */\n  mload\n    /* \"#utility.yul\":2327:2328   */\n  dup2\n    /* \"#utility.yul\":2322:2325   */\n  dup5\n    /* \"#utility.yul\":2318:2329   */\n  add\n    /* \"#utility.yul\":2311:2350   */\n  mstore\n    /* \"#utility.yul\":2283:2285   */\n  0x20\n    /* \"#utility.yul\":2280:2281   */\n  dup2\n    /* \"#utility.yul\":2276:2286   */\n  add\n    /* \"#utility.yul\":2271:2286   */\n  swap1\n  pop\n    /* \"#utility.yul\":2247:2360   */\n  jump(tag_73)\ntag_75:\n    /* \"#utility.yul\":2394:2395   */\n  0x00\n    /* \"#utility.yul\":2385:2391   */\n  dup5\n    /* \"#utility.yul\":2380:2383   */\n  dup5\n    /* \"#utility.yul\":2376:2392   */\n  add\n    /* \"#utility.yul\":2369:2396   */\n  mstore\n    /* \"#utility.yul\":2218:2402   */\n  pop\n    /* \"#utility.yul\":2156:2402   */\n  pop\n  pop\n  pop\n  jump\t// out\n    /* \"#utility.yul\":2408:2842   */\ntag_26:\n    /* \"#utility.yul\":2497:2502   */\n  0x00\n    /* \"#utility.yul\":2522:2588   */\n  tag_77\n    /* \"#utility.yul\":2538:2587   */\n  tag_78\n    /* \"#utility.yul\":2580:2586   */\n  dup5\n    /* \"#utility.yul\":2538:2587   */\n  tag_24\n  jump\t// in\ntag_78:\n    /* \"#utility.yul\":2522:2588   */\n  tag_23\n  jump\t// in\ntag_77:\n    /* \"#utility.yul\":2513:2588   */\n  swap1\n  pop\n    /* \"#utility.yul\":2611:2617   */\n  dup3\n    /* \"#utility.yul\":2604:2609   */\n  dup2\n    /* \"#utility.yul\":2597:2618   */\n  mstore\n    /* \"#utility.yul\":2649:2653   */\n  0x20\n    /* \"#utility.yul\":2642:2647   */\n  dup2\n    /* \"#utility.yul\":2638:2654   */\n  add\n    /* \"#utility.yul\":2687:2690   */\n  dup5\n    /* \"#utility.yul\":2678:2684   */\n  dup5\n    /* \"#utility.yul\":2673:2676   */\n  dup5\n    /* \"#utility.yul\":2669:2685   */\n  add\n    /* \"#utility.yul\":2666:2691   */\n  gt\n    /* \"#utility.yul\":2663:2775   */\n  iszero\n  tag_79\n  jumpi\n    /* \"#utility.yul\":2694:2773   */\n  tag_80\n  tag_19\n  jump\t// in\ntag_80:\n    /* \"#utility.yul\":2663:2775   */\ntag_79:\n    /* \"#utility.yul\":2784:2836   */\n  tag_81\n    /* \"#utility.yul\":2829:2835   */\n  dup5\n    /* \"#utility.yul\":2824:2827   */\n  dup3\n    /* \"#utility.yul\":2819:2822   */\n  dup6\n    /* \"#utility.yul\":2784:2836   */\n  tag_25\n  jump\t// in\ntag_81:\n    /* \"#utility.yul\":2503:2842   */\n  pop\n    /* \"#utility.yul\":2408:2842   */\n  swap4\n  swap3\n  pop\n  pop\n  pop\n  jump\t// out\n    /* \"#utility.yul\":2862:3217   */\ntag_27:\n    /* \"#utility.yul\":2929:2934   */\n  0x00\n    /* \"#utility.yul\":2978:2981   */\n  dup3\n    /* \"#utility.yul\":2971:2975   */\n  0x1f\n    /* \"#utility.yul\":2963:2969   */\n  dup4\n    /* \"#utility.yul\":2959:2976   */\n  add\n    /* \"#utility.yul\":2955:2982   */\n  slt\n    /* \"#utility.yul\":2945:3067   */\n  tag_83\n  jumpi\n    /* \"#utility.yul\":2986:3065   */\n  tag_84\n  tag_18\n  jump\t// in\ntag_84:\n    /* \"#utility.yul\":2945:3067   */\ntag_83:\n    /* \"#utility.yul\":3096:3102   */\n  dup2\n    /* \"#utility.yul\":3090:3103   */\n  mload\n    /* \"#utility.yul\":3121:3211   */\n  tag_85\n    /* \"#utility.yul\":3207:3210   */\n  dup5\n    /* \"#utility.yul\":3199:3205   */\n  dup3\n    /* \"#utility.yul\":3192:3196   */\n  0x20\n    /* \"#utility.yul\":3184:3190   */\n  dup7\n    /* \"#utility.yul\":3180:3197   */\n  add\n    /* \"#utility.yul\":3121:3211   */\n  tag_26\n  jump\t// in\ntag_85:\n    /* \"#utility.yul\":3112:3211   */\n  swap2\n  pop\n    /* \"#utility.yul\":2935:3217   */\n  pop\n    /* \"#utility.yul\":2862:3217   */\n  swap3\n  swap2\n  pop\n  pop\n  jump\t// out\n    /* \"#utility.yul\":3223:3903   */\ntag_6:\n    /* \"#utility.yul\":3312:3318   */\n  0x00\n    /* \"#utility.yul\":3320:3326   */\n  dup1\n    /* \"#utility.yul\":3369:3371   */\n  0x40\n    /* \"#utility.yul\":3357:3366   */\n  dup4\n    /* \"#utility.yul\":3348:3355   */\n  dup6\n    /* \"#utility.yul\":3344:3367   */\n  sub\n    /* \"#utility.yul\":3340:3372   */\n  slt\n    /* \"#utility.yul\":3337:3456   */\n  iszero\n  tag_87\n  jumpi\n    /* \"#utility.yul\":3375:3454   */\n  tag_88\n  tag_13\n  jump\t// in\ntag_88:\n    /* \"#utility.yul\":3337:3456   */\ntag_87:\n    /* \"#utility.yul\":3495:3496   */\n  0x00\n    /* \"#utility.yul\":3520:3584   */\n  tag_89\n    /* \"#utility.yul\":3576:3583   */\n  dup6\n    /* \"#utility.yul\":3567:3573   */\n  dup3\n    /* \"#utility.yul\":3556:3565   */\n  dup7\n    /* \"#utility.yul\":3552:3574   */\n  add\n    /* \"#utility.yul\":3520:3584   */\n  tag_17\n  jump\t// in\ntag_89:\n    /* \"#utility.yul\":3510:3584   */\n  swap3\n  pop\n    /* \"#utility.yul\":3466:3594   */\n  pop\n    /* \"#utility.yul\":3654:3656   */\n  0x20\n    /* \"#utility.yul\":3643:3652   */\n  dup4\n    /* \"#utility.yul\":3639:3657   */\n  add\n    /* \"#utility.yul\":3633:3658   */\n  mload\n    /* \"#utility.yul\":3685:3703   */\n  0xffffffffffffffff\n    /* \"#utility.yul\":3677:3683   */\n  dup2\n    /* \"#utility.yul\":3674:3704   */\n  gt\n    /* \"#utility.yul\":3671:3788   */\n  iszero\n  tag_90\n  jumpi\n    /* \"#utility.yul\":3707:3786   */\n  tag_91\n  tag_14\n  jump\t// in\ntag_91:\n    /* \"#utility.yul\":3671:3788   */\ntag_90:\n    /* \"#utility.yul\":3812:3886   */\n  tag_92\n    /* \"#utility.yul\":3878:3885   */\n  dup6\n    /* \"#utility.yul\":3869:3875   */\n  dup3\n    /* \"#utility.yul\":3858:3867   */\n  dup7\n    /* \"#utility.yul\":3854:3876   */\n  add\n    /* \"#utility.yul\":3812:3886   */\n  tag_27\n  jump\t// in\ntag_92:\n    /* \"#utility.yul\":3802:3886   */\n  swap2\n  pop\n    /* \"#utility.yul\":3604:3896   */\n  pop\n    /* \"#utility.yul\":3223:3903   */\n  swap3\n  pop\n  swap3\n  swap1\n  pop\n  jump\t// out\n    /* \"#utility.yul\":3909:4008   */\ntag_28:\n    /* \"#utility.yul\":3961:3967   */\n  0x00\n    /* \"#utility.yul\":3995:4000   */\n  dup2\n    /* \"#utility.yul\":3989:4001   */\n  mload\n    /* \"#utility.yul\":3979:4001   */\n  swap1\n  pop\n    /* \"#utility.yul\":3909:4008   */\n  swap2\n  swap1\n  pop\n  jump\t// out\n    /* \"#utility.yul\":4014:4194   */\ntag_29:\n    /* \"#utility.yul\":4062:4139   */\n  0x4e487b7100000000000000000000000000000000000000000000000000000000\n    /* \"#utility.yul\":4059:4060   */\n  0x00\n    /* \"#utility.yul\":4052:4140   */\n  mstore\n    /* \"#utility.yul\":4159:4163   */\n  0x22\n    /* \"#utility.yul\":4156:4157   */\n  0x04\n    /* \"#utility.yul\":4149:4164   */\n  mstore\n    /* \"#utility.yul\":4183:4187   */\n  0x24\n    /* \"#utility.yul\":4180:4181   */\n  0x00\n    /* \"#utility.yul\":4173:4188   */\n  revert\n    /* \"#utility.yul\":4200:4520   */\ntag_30:\n    /* \"#utility.yul\":4244:4250   */\n  0x00\n    /* \"#utility.yul\":4281:4282   */\n  0x02\n    /* \"#utility.yul\":4275:4279   */\n  dup3\n    /* \"#utility.yul\":4271:4283   */\n  div\n    /* \"#utility.yul\":4261:4283   */\n  swap1\n  pop\n    /* \"#utility.yul\":4328:4329   */\n  0x01\n    /* \"#utility.yul\":4322:4326   */\n  dup3\n    /* \"#utility.yul\":4318:4330   */\n  and\n    /* \"#utility.yul\":4349:4367   */\n  dup1\n    /* \"#utility.yul\":4339:4420   */\n  tag_96\n  jumpi\n    /* \"#utility.yul\":4405:4409   */\n  0x7f\n    /* \"#utility.yul\":4397:4403   */\n  dup3\n    /* \"#utility.yul\":4393:4410   */\n  and\n    /* \"#utility.yul\":4383:4410   */\n  swap2\n  pop\n    /* \"#utility.yul\":4339:4420   */\ntag_96:\n    /* \"#utility.yul\":4467:4469   */\n  0x20\n    /* \"#utility.yul\":4459:4465   */\n  dup3\n    /* \"#utility.yul\":4456:4470   */\n  lt\n    /* \"#utility.yul\":4436:4454   */\n  dup2\n    /* \"#utility.yul\":4433:4471   */\n  sub\n    /* \"#utility.yul\":4430:4514   */\n  tag_97\n  jumpi\n    /* \"#utility.yul\":4486:4504   */\n  tag_98\n  tag_29\n  jump\t// in\ntag_98:\n    /* \"#utility.yul\":4430:4514   */\ntag_97:\n    /* \"#utility.yul\":4251:4520   */\n  pop\n    /* \"#utility.yul\":4200:4520   */\n  swap2\n  swap1\n  pop\n  jump\t// out\n    /* \"#utility.yul\":4526:4667   */\ntag_31:\n    /* \"#utility.yul\":4575:4579   */\n  0x00\n    /* \"#utility.yul\":4598:4601   */\n  dup2\n    /* \"#utility.yul\":4590:4601   */\n  swap1\n  pop\n    /* \"#utility.yul\":4621:4624   */\n  dup2\n    /* \"#utility.yul\":4618:4619   */\n  0x00\n    /* \"#utility.yul\":4611:4625   */\n  mstore\n    /* \"#utility.yul\":4655:4659   */\n  0x20\n    /* \"#utility.yul\":4652:4653   */\n  0x00\n    /* \"#utility.yul\":4642:4660   */\n  keccak256\n    /* \"#utility.yul\":4634:4660   */\n  swap1\n  pop\n    /* \"#utility.yul\":4526:4667   */\n  swap2\n  swap1\n  pop\n  jump\t// out\n    /* \"#utility.yul\":4673:4766   */\ntag_32:\n    /* \"#utility.yul\":4710:4716   */\n  0x00\n    /* \"#utility.yul\":4757:4759   */\n  0x20\n    /* \"#utility.yul\":4752:4754   */\n  0x1f\n    /* \"#utility.yul\":4745:4750   */\n  dup4\n    /* \"#utility.yul\":4741:4755   */\n  add\n    /* \"#utility.yul\":4737:4760   */\n  div\n    /* \"#utility.yul\":4727:4760   */\n  swap1\n  pop\n    /* \"#utility.yul\":4673:4766   */\n  swap2\n  swap1\n  pop\n  jump\t// out\n    /* \"#utility.yul\":4772:4879   */\ntag_33:\n    /* \"#utility.yul\":4816:4824   */\n  0x00\n    /* \"#utility.yul\":4866:4871   */\n  dup3\n    /* \"#utility.yul\":4860:4864   */\n  dup3\n    /* \"#utility.yul\":4856:4872   */\n  shl\n    /* \"#utility.yul\":4835:4872   */\n  swap1\n  pop\n    /* \"#utility.yul\":4772:4879   */\n  swap3\n  swap2\n  pop\n  pop\n  jump\t// out\n    /* \"#utility.yul\":4885:5278   */\ntag_34:\n    /* \"#utility.yul\":4954:4960   */\n  0x00\n    /* \"#utility.yul\":5004:5005   */\n  0x08\n    /* \"#utility.yul\":4992:5002   */\n  dup4\n    /* \"#utility.yul\":4988:5006   */\n  mul\n    /* \"#utility.yul\":5027:5124   */\n  tag_103\n    /* \"#utility.yul\":5057:5123   */\n  0xffffffffffffffffffffffffffffffffffffffffffffffffffffffffffffffff\n    /* \"#utility.yul\":5046:5055   */\n  dup3\n    /* \"#utility.yul\":5027:5124   */\n  tag_33\n  jump\t// in\ntag_103:\n    /* \"#utility.yul\":5145:5184   */\n  tag_104\n    /* \"#utility.yul\":5175:5183   */\n  dup7\n    /* \"#utility.yul\":5164:5173   */\n  dup4\n    /* \"#utility.yul\":5145:5184   */\n  tag_33\n  jump\t// in\ntag_104:\n    /* \"#utility.yul\":5133:5184   */\n  swap6\n  pop\n    /* \"#utility.yul\":5217:5221   */\n  dup1\n    /* \"#utility.yul\":5213:5222   */\n  not\n    /* \"#utility.yul\":5206:5211   */\n  dup5\n    /* \"#utility.yul\":5202:5223   */\n  and\n    /* \"#utility.yul\":5193:5223   */\n  swap4\n  pop\n    /* \"#utility.yul\":5266:5270   */\n  dup1\n    /* \"#utility.yul\":5256:5264   */\n  dup7\n    /* \"#utility.yul\":5252:5271   */\n  and\n    /* \"#utility.yul\":5245:5250   */\n  dup5\n    /* \"#utility.yul\":5242:5272   */\n  or\n    /* \"#utility.yul\":5232:5272   */\n  swap3\n  pop\n    /* \"#utility.yul\":4961:5278   */\n  pop\n  pop\n    /* \"#utility.yul\":4885:5278   */\n  swap4\n  swap3\n  pop\n  pop\n  pop\n  jump\t// out\n    /* \"#utility.yul\":5284:5344   */\ntag_35:\n    /* \"#utility.yul\":5312:5315   */\n  0x00\n    /* \"#utility.yul\":5333:5338   */\n  dup2\n    /* \"#utility.yul\":5326:5338   */\n  swap1\n  pop\n    /* \"#utility.yul\":5284:5344   */\n  swap2\n  swap1\n  pop\n  jump\t// out\n    /* \"#utility.yul\":5350:5492   */\ntag_36:\n    /* \"#utility.yul\":5400:5409   */\n  0x00\n    /* \"#utility.yul\":5433:5486   */\n  tag_107\n    /* \"#utility.yul\":5451:5485   */\n  tag_108\n    /* \"#utility.yul\":5460:5484   */\n  tag_109\n    /* \"#utility.yul\":5478:5483   */\n  dup5\n    /* \"#utility.yul\":5460:5484   */\n  tag_15\n  jump\t// in\ntag_109:\n    /* \"#utility.yul\":5451:5485   */\n  tag_35\n  jump\t// in\ntag_108:\n    /* \"#utility.yul\":5433:5486   */\n  tag_15\n  jump\t// in\ntag_107:\n    /* \"#utility.yul\":5420:5486   */\n  swap1\n  pop\n    /* \"#utility.yul\":5350:5492   */\n  swap2\n  swap1\n  pop\n  jump\t// out\n    /* \"#utility.yul\":5498:5573   */\ntag_37:\n    /* \"#utility.yul\":5541:5544   */\n  0x00\n    /* \"#utility.yul\":5562:5567   */\n  dup2\n    /* \"#utility.yul\":5555:5567   */\n  swap1\n  pop\n    /* \"#utility.yul\":5498:5573   */\n  swap2\n  swap1\n  pop\n  jump\t// out\n    /* \"#utility.yul\":5579:5848   */\ntag_38:\n    /* \"#utility.yul\":5689:5728   */\n  tag_112\n    /* \"#utility.yul\":5720:5727   */\n  dup4\n    /* \"#utility.yul\":5689:5728   */\n  tag_36\n  jump\t// in\ntag_112:\n    /* \"#utility.yul\":5750:5841   */\n  tag_113\n    /* \"#utility.yul\":5799:5840   */\n  tag_114\n    /* \"#utility.yul\":5823:5839   */\n  dup3\n    /* \"#utility.yul\":5799:5840   */\n  tag_37\n  jump\t// in\ntag_114:\n    /* \"#utility.yul\":5791:5797   */\n  dup5\n    /* \"#utility.yul\":5784:5788   */\n  dup5\n    /* \"#utility.yul\":5778:5789   */\n  sload\n    /* \"#utility.yul\":5750:5841   */\n  tag_34\n  jump\t// in\ntag_113:\n    /* \"#utility.yul\":5744:5748   */\n  dup3\n    /* \"#utility.yul\":5737:5842   */\n  sstore\n    /* \"#utility.yul\":5655:5848   */\n  pop\n    /* \"#utility.yul\":5579:5848   */\n  pop\n  pop\n  pop\n  jump\t// out\n    /* \"#utility.yul\":5854:5927   */\ntag_39:\n    /* \"#utility.yul\":5899:5902   */\n  0x00\n    /* \"#utility.yul\":5854:5927   */\n  swap1\n  jump\t// out\n    /* \"#utility.yul\":5933:6122   */\ntag_40:\n    /* \"#utility.yul\":6010:6042   */\n  tag_117\n  tag_39\n  jump\t// in\ntag_117:\n    /* \"#utility.yul\":6051:6116   */\n  tag_118\n    /* \"#utility.yul\":6109:6115   */\n  dup2\n    /* \"#utility.yul\":6101:6107   */\n  dup5\n    /* \"#utility.yul\":6095:6099   */\n  dup5\n    /* \"#utility.yul\":6051:6116   */\n  tag_38\n  jump\t// in\ntag_118:\n    /* \"#utility.yul\":5986:6122   */\n  pop\n    /* \"#utility.yul\":5933:6122   */\n  pop\n  pop\n  jump\t// out\n    /* \"#utility.yul\":6128:6314   */\ntag_41:\n    /* \"#utility.yul\":6188:6308   */\ntag_120:\n    /* \"#utility.yul\":6205:6208   */\n  dup2\n    /* \"#utility.yul\":6198:6203   */\n  dup2\n    /* \"#utility.yul\":6195:6209   */\n  lt\n    /* \"#utility.yul\":6188:6308   */\n  iszero\n  tag_122\n  jumpi\n    /* \"#utility.yul\":6259:6298   */\n  tag_123\n    /* \"#utility.yul\":6296:6297   */\n  0x00\n    /* \"#utility.yul\":6289:6294   */\n  dup3\n    /* \"#utility.yul\":6259:6298   */\n  tag_40\n  jump\t// in\ntag_123:\n    /* \"#utility.yul\":6232:6233   */\n  0x01\n    /* \"#utility.yul\":6225:6230   */\n  dup2\n    /* \"#utility.yul\":6221:6234   */\n  add\n    /* \"#utility.yul\":6212:6234   */\n  swap1\n  pop\n    /* \"#utility.yul\":6188:6308   */\n  jump(tag_120)\ntag_122:\n    /* \"#utility.yul\":6128:6314   */\n  pop\n  pop\n  jump\t// out\n    /* \"#utility.yul\":6320:6863   */\ntag_42:\n    /* \"#utility.yul\":6421:6423   */\n  0x1f\n    /* \"#utility.yul\":6416:6419   */\n  dup3\n    /* \"#utility.yul\":6413:6424   */\n  gt\n    /* \"#utility.yul\":6410:6856   */\n  iszero\n  tag_125\n  jumpi\n    /* \"#utility.yul\":6455:6493   */\n  tag_126\n    /* \"#utility.yul\":6487:6492   */\n  dup2\n    /* \"#utility.yul\":6455:6493   */\n  tag_31\n  jump\t// in\ntag_126:\n    /* \"#utility.yul\":6539:6568   */\n  tag_127\n    /* \"#utility.yul\":6557:6567   */\n  dup5\n    /* \"#utility.yul\":6539:6568   */\n  tag_32\n  jump\t// in\ntag_127:\n    /* \"#utility.yul\":6529:6537   */\n  dup2\n    /* \"#utility.yul\":6525:6569   */\n  add\n    /* \"#utility.yul\":6722:6724   */\n  0x20\n    /* \"#utility.yul\":6710:6720   */\n  dup6\n    /* \"#utility.yul\":6707:6725   */\n  lt\n    /* \"#utility.yul\":6704:6753   */\n  iszero\n  tag_128\n  jumpi\n    /* \"#utility.yul\":6743:6751   */\n  dup2\n    /* \"#utility.yul\":6728:6751   */\n  swap1\n  pop\n    /* \"#utility.yul\":6704:6753   */\ntag_128:\n    /* \"#utility.yul\":6766:6846   */\n  tag_129\n    /* \"#utility.yul\":6822:6844   */\n  tag_130\n    /* \"#utility.yul\":6840:6843   */\n  dup6\n    /* \"#utility.yul\":6822:6844   */\n  tag_32\n  jump\t// in\ntag_130:\n    /* \"#utility.yul\":6812:6820   */\n  dup4\n    /* \"#utility.yul\":6808:6845   */\n  add\n    /* \"#utility.yul\":6795:6806   */\n  dup3\n    /* \"#utility.yul\":6766:6846   */\n  tag_41\n  jump\t// in\ntag_129:\n    /* \"#utility.yul\":6425:6856   */\n  pop\n  pop\n    /* \"#utility.yul\":6410:6856   */\ntag_125:\n    /* \"#utility.yul\":6320:6863   */\n  pop\n  pop\n  pop\n  jump\t// out\n    /* \"#utility.yul\":6869:6986   */\ntag_43:\n    /* \"#utility.yul\":6923:6931   */\n  0x00\n    /* \"#utility.yul\":6973:6978   */\n  dup3\n    /* \"#utility.yul\":6967:6971   */\n  dup3\n    /* \"#utility.yul\":6963:6979   */\n  shr\n    /* \"#utility.yul\":6942:6979   */\n  swap1\n  pop\n    /* \"#utility.yul\":6869:6986   */\n  swap3\n  swap2\n  pop\n  pop\n  jump\t// out\n    /* \"#utility.yul\":6992:7161   */\ntag_44:\n    /* \"#utility.yul\":7036:7042   */\n  0x00\n    /* \"#utility.yul\":7069:7120   */\n  tag_133\n    /* \"#utility.yul\":7117:7118   */\n  0x00\n    /* \"#utility.yul\":7113:7119   */\n  not\n    /* \"#utility.yul\":7105:7110   */\n  dup5\n    /* \"#utility.yul\":7102:7103   */\n  0x08\n    /* \"#utility.yul\":7098:7111   */\n  mul\n    /* \"#utility.yul\":7069:7120   */\n  tag_43\n  jump\t// in\ntag_133:\n    /* \"#utility.yul\":7065:7121   */\n  not\n    /* \"#utility.yul\":7150:7154   */\n  dup1\n    /* \"#utility.yul\":7144:7148   */\n  dup4\n    /* \"#utility.yul\":7140:7155   */\n  and\n    /* \"#utility.yul\":7130:7155   */\n  swap2\n  pop\n    /* \"#utility.yul\":7043:7161   */\n  pop\n    /* \"#utility.yul\":6992:7161   */\n  swap3\n  swap2\n  pop\n  pop\n  jump\t// out\n    /* \"#utility.yul\":7166:7461   */\ntag_45:\n    /* \"#utility.yul\":7242:7246   */\n  0x00\n    /* \"#utility.yul\":7388:7417   */\n  tag_135\n    /* \"#utility.yul\":7413:7416   */\n  dup4\n    /* \"#utility.yul\":7407:7411   */\n  dup4\n    /* \"#utility.yul\":7388:7417   */\n  tag_44\n  jump\t// in\ntag_135:\n    /* \"#utility.yul\":7380:7417   */\n  swap2\n  pop\n    /* \"#utility.yul\":7450:7453   */\n  dup3\n    /* \"#utility.yul\":7447:7448   */\n  0x02\n    /* \"#utility.yul\":7443:7454   */\n  mul\n    /* \"#utility.yul\":7437:7441   */\n  dup3\n    /* \"#utility.yul\":7434:7455   */\n  or\n    /* \"#utility.yul\":7426:7455   */\n  swap1\n  pop\n    /* \"#utility.yul\":7166:7461   */\n  swap3\n  swap2\n  pop\n  pop\n  jump\t// out\n    /* \"#utility.yul\":7466:8861   */\ntag_10:\n    /* \"#utility.yul\":7583:7620   */\n  tag_137\n    /* \"#utility.yul\":7616:7619   */\n  dup3\n    /* \"#utility.yul\":7583:7620   */\n  tag_28\n  jump\t// in\ntag_137:\n    /* \"#utility.yul\":7685:7703   */\n  0xffffffffffffffff\n    /* \"#utility.yul\":7677:7683   */\n  dup2\n    /* \"#utility.yul\":7674:7704   */\n  gt\n    /* \"#utility.yul\":7671:7727   */\n  iszero\n  tag_138\n  jumpi\n    /* \"#utility.yul\":7707:7725   */\n  tag_139\n  tag_21\n  jump\t// in\ntag_139:\n    /* \"#utility.yul\":7671:7727   */\ntag_138:\n    /* \"#utility.yul\":7751:7789   */\n  tag_140\n    /* \"#utility.yul\":7783:7787   */\n  dup3\n    /* \"#utility.yul\":7777:7788   */\n  sload\n    /* \"#utility.yul\":7751:7789   */\n  tag_30\n  jump\t// in\ntag_140:\n    /* \"#utility.yul\":7836:7903   */\n  tag_141\n    /* \"#utility.yul\":7896:7902   */\n  dup3\n    /* \"#utility.yul\":7888:7894   */\n  dup3\n    /* \"#utility.yul\":7882:7886   */\n  dup6\n    /* \"#utility.yul\":7836:7903   */\n  tag_42\n  jump\t// in\ntag_141:\n    /* \"#utility.yul\":7930:7931   */\n  0x00\n    /* \"#utility.yul\":7954:7958   */\n  0x20\n    /* \"#utility.yul\":7941:7958   */\n  swap1\n  pop\n    /* \"#utility.yul\":7986:7988   */\n  0x1f\n    /* \"#utility.yul\":7978:7984   */\n  dup4\n    /* \"#utility.yul\":7975:7989   */\n  gt\n    /* \"#utility.yul\":8003:8004   */\n  0x01\n    /* \"#utility.yul\":7998:8616   */\n  dup2\n  eq\n  tag_143\n  jumpi\n    /* \"#utility.yul\":8660:8661   */\n  0x00\n    /* \"#utility.yul\":8677:8683   */\n  dup5\n    /* \"#utility.yul\":8674:8751   */\n  iszero\n  tag_144\n  jumpi\n    /* \"#utility.yul\":8726:8735   */\n  dup3\n    /* \"#utility.yul\":8721:8724   */\n  dup8\n    /* \"#utility.yul\":8717:8736   */\n  add\n    /* \"#utility.yul\":8711:8737   */\n  mload\n    /* \"#utility.yul\":8702:8737   */\n  swap1\n  pop\n    /* \"#utility.yul\":8674:8751   */\ntag_144:\n    /* \"#utility.yul\":8777:8844   */\n  tag_145\n    /* \"#utility.yul\":8837:8843   */\n  dup6\n    /* \"#utility.yul\":8830:8835   */\n  dup3\n    /* \"#utility.yul\":8777:8844   */\n  tag_45\n  jump\t// in\ntag_145:\n    /* \"#utility.yul\":8771:8775   */\n  dup7\n    /* \"#utility.yul\":8764:8845   */\n  sstore\n    /* \"#utility.yul\":8633:8855   */\n  pop\n    /* \"#utility.yul\":7968:8855   */\n  jump(tag_142)\n    /* \"#utility.yul\":7998:8616   */\ntag_143:\n    /* \"#utility.yul\":8050:8054   */\n  0x1f\n    /* \"#utility.yul\":8046:8055   */\n  not\n    /* \"#utility.yul\":8038:8044   */\n  dup5\n    /* \"#utility.yul\":8034:8056   */\n  and\n    /* \"#utility.yul\":8084:8121   */\n  tag_146\n    /* \"#utility.yul\":8116:8120   */\n  dup7\n    /* \"#utility.yul\":8084:8121   */\n  tag_31\n  jump\t// in\ntag_146:\n    /* \"#utility.yul\":8143:8144   */\n  0x00\n    /* \"#utility.yul\":8157:8365   */\ntag_147:\n    /* \"#utility.yul\":8171:8178   */\n  dup3\n    /* \"#utility.yul\":8168:8169   */\n  dup2\n    /* \"#utility.yul\":8165:8179   */\n  lt\n    /* \"#utility.yul\":8157:8365   */\n  iszero\n  tag_149\n  jumpi\n    /* \"#utility.yul\":8250:8259   */\n  dup5\n    /* \"#utility.yul\":8245:8248   */\n  dup10\n    /* \"#utility.yul\":8241:8260   */\n  add\n    /* \"#utility.yul\":8235:8261   */\n  mload\n    /* \"#utility.yul\":8227:8233   */\n  dup3\n    /* \"#utility.yul\":8220:8262   */\n  sstore\n    /* \"#utility.yul\":8301:8302   */\n  0x01\n    /* \"#utility.yul\":8293:8299   */\n  dup3\n    /* \"#utility.yul\":8289:8303   */\n  add\n    /* \"#utility.yul\":8279:8303   */\n  swap2\n  pop\n    /* \"#utility.yul\":8348:8350   */\n  0x20\n    /* \"#utility.yul\":8337:8346   */\n  dup6\n    /* \"#utility.yul\":8333:8351   */\n  add\n    /* \"#utility.yul\":8320:8351   */\n  swap5\n  pop\n    /* \"#utility.yul\":8194:8198   */\n  0x20\n    /* \"#utility.yul\":8191:8192   */\n  dup2\n    /* \"#utility.yul\":8187:8199   */\n  add\n    /* \"#utility.yul\":8182:8199   */\n  swap1\n  pop\n    /* \"#utility.yul\":8157:8365   */\n  jump(tag_147)\ntag_149:\n    /* \"#utility.yul\":8393:8399   */\n  dup7\n    /* \"#utility.yul\":8384:8391   */\n  dup4\n    /* \"#utility.yul\":8381:8400   */\n  lt\n    /* \"#utility.yul\":8378:8557   */\n  iszero\n  tag_150\n  jumpi\n    /* \"#utility.yul\":8451:8460   */\n  dup5\n    /* \"#utility.yul\":8446:8449   */\n  dup10\n    /* \"#utility.yul\":8442:8461   */\n  add\n    /* \"#utility.yul\":8436:8462   */\n  mload\n    /* \"#utility.yul\":8494:8542   */\n  tag_151\n    /* \"#utility.yul\":8536:8540   */\n  0x1f\n    /* \"#utility.yul\":8528:8534   */\n  dup10\n    /* \"#utility.yul\":8524:8541   */\n  and\n    /* \"#utility.yul\":8513:8522   */\n  dup3\n    /* \"#utility.yul\":8494:8542   */\n  tag_44\n  jump\t// in\ntag_151:\n    /* \"#utility.yul\":8486:8492   */\n  dup4\n    /* \"#utility.yul\":8479:8543   */\n  sstore\n    /* \"#utility.yul\":8401:8557   */\n  pop\n    /* \"#utility.yul\":8378:8557   */\ntag_150:\n    /* \"#utility.yul\":8603:8604   */\n  0x01\n    /* \"#utility.yul\":8599:8600   */\n  0x02\n    /* \"#utility.yul\":8591:8597   */\n  dup9\n    /* \"#utility.yul\":8587:8601   */\n  mul\n    /* \"#utility.yul\":8583:8605   */\n  add\n    /* \"#utility.yul\":8577:8581   */\n  dup9\n    /* \"#utility.yul\":8570:8606   */\n  sstore\n    /* \"#utility.yul\":8005:8616   */\n  pop\n  pop\n  pop\n    /* \"#utility.yul\":7968:8855   */\ntag_142:\n  pop\n    /* \"#utility.yul\":7558:8861   */\n  pop\n  pop\n  pop\n    /* \"#utility.yul\":7466:8861   */\n  pop\n  pop\n  jump\t// out\n    /* \"struct.sol\":144:884  contract Academy {... */\ntag_11:\n  dataSize(sub_0)\n  dup1\n  dataOffset(sub_0)\n  0x00\n  codecopy\n  0x00\n  return\nstop\n\nsub_0: assembly {\n        /* \"struct.sol\":144:884  contract Academy {... */\n      mstore(0x40, 0x80)\n      callvalue\n      dup1\n      iszero\n      tag_1\n      jumpi\n      0x00\n      dup1\n      revert\n    tag_1:\n      pop\n      jumpi(tag_2, lt(calldatasize, 0x04))\n      shr(0xe0, calldataload(0x00))\n      dup1\n      0x23b8ca9f\n      eq\n      tag_3\n      jumpi\n      dup1\n      0x54248841\n      eq\n      tag_4\n      jumpi\n      dup1\n      0xa46878fb\n      eq\n      tag_5\n      jumpi\n    tag_2:\n      0x00\n      dup1\n      revert\n        /* \"struct.sol\":278:316  State public academyState = State.Open */\n    tag_3:\n      tag_6\n      tag_7\n      jump\t// in\n    tag_6:\n      mload(0x40)\n      tag_8\n      swap2\n      swap1\n      tag_9\n      jump\t// in\n    tag_8:\n      mload(0x40)\n      dup1\n      swap2\n      sub\n      swap1\n      return\n        /* \"struct.sol\":167:202  Instructor public academyInstructor */\n    tag_4:\n      tag_10\n      tag_11\n      jump\t// in\n    tag_10:\n      mload(0x40)\n      tag_12\n      swap4\n      swap3\n      swap2\n      swap1\n      tag_13\n      jump\t// in\n    tag_12:\n      mload(0x40)\n      dup1\n      swap2\n      sub\n      swap1\n      return\n        /* \"struct.sol\":506:882  function changeInstructor(... */\n    tag_5:\n      tag_14\n      0x04\n      dup1\n      calldatasize\n      sub\n      dup2\n      add\n      swap1\n      tag_15\n      swap2\n      swap1\n      tag_16\n      jump\t// in\n    tag_15:\n      tag_17\n      jump\t// in\n    tag_14:\n      stop\n        /* \"struct.sol\":278:316  State public academyState = State.Open */\n    tag_7:\n      0x03\n      0x00\n      swap1\n      sload\n      swap1\n      0x0100\n      exp\n      swap1\n      div\n      0xff\n      and\n      dup2\n      jump\t// out\n        /* \"struct.sol\":167:202  Instructor public academyInstructor */\n    tag_11:\n      0x00\n      dup1\n      0x00\n      add\n      sload\n      swap1\n      dup1\n      0x01\n      add\n      dup1\n      sload\n      tag_18\n      swap1\n      tag_19\n      jump\t// in\n    tag_18:\n      dup1\n      0x1f\n      add\n      0x20\n      dup1\n      swap2\n      div\n      mul\n      0x20\n      add\n      mload(0x40)\n      swap1\n      dup2\n      add\n      0x40\n      mstore\n      dup1\n      swap3\n      swap2\n      swap1\n      dup2\n      dup2\n      mstore\n      0x20\n      add\n      dup3\n      dup1\n      sload\n      tag_20\n      swap1\n      tag_19\n      jump\t// in\n    tag_20:\n      dup1\n      iszero\n      tag_21\n      jumpi\n      dup1\n      0x1f\n      lt\n      tag_22\n      jumpi\n      0x0100\n      dup1\n      dup4\n      sload\n      div\n      mul\n      dup4\n      mstore\n      swap2\n      0x20\n      add\n      swap2\n      jump(tag_21)\n    tag_22:\n      dup3\n      add\n      swap2\n      swap1\n      0x00\n      mstore\n      keccak256(0x00, 0x20)\n      swap1\n    tag_23:\n      dup2\n      sload\n      dup2\n      mstore\n      swap1\n      0x01\n      add\n      swap1\n      0x20\n      add\n      dup1\n      dup4\n      gt\n      tag_23\n      jumpi\n      dup3\n      swap1\n      sub\n      0x1f\n      and\n      dup3\n      add\n      swap2\n    tag_21:\n      pop\n      pop\n      pop\n      pop\n      pop\n      swap1\n      dup1\n      0x02\n      add\n      0x00\n      swap1\n      sload\n      swap1\n      0x0100\n      exp\n      swap1\n      div\n      0xffffffffffffffffffffffffffffffffffffffff\n      and\n      swap1\n      pop\n      dup4\n      jump\t// out\n        /* \"struct.sol\":506:882  function changeInstructor(... */\n    tag_17:\n        /* \"struct.sol\":649:659  State.Open */\n      0x00\n        /* \"struct.sol\":633:659  academyState == State.Open */\n      0x02\n      dup2\n      gt\n      iszero\n      tag_25\n      jumpi\n      tag_26\n      tag_27\n      jump\t// in\n    tag_26:\n    tag_25:\n        /* \"struct.sol\":633:645  academyState */\n      0x03\n      0x00\n      swap1\n      sload\n      swap1\n      0x0100\n      exp\n      swap1\n      div\n      0xff\n      and\n        /* \"struct.sol\":633:659  academyState == State.Open */\n      0x02\n      dup2\n      gt\n      iszero\n      tag_28\n      jumpi\n      tag_29\n      tag_27\n      jump\t// in\n    tag_29:\n    tag_28:\n      sub\n        /* \"struct.sol\":629:876  if (academyState == State.Open) {... */\n      tag_30\n      jumpi\n        /* \"struct.sol\":675:705  Instructor memory myInstructor */\n      0x00\n        /* \"struct.sol\":708:819  Instructor({... */\n      mload(0x40)\n      dup1\n      0x60\n      add\n      0x40\n      mstore\n      dup1\n        /* \"struct.sol\":742:746  _age */\n      dup6\n        /* \"struct.sol\":708:819  Instructor({... */\n      dup2\n      mstore\n      0x20\n      add\n        /* \"struct.sol\":770:775  _name */\n      dup5\n        /* \"struct.sol\":708:819  Instructor({... */\n      dup2\n      mstore\n      0x20\n      add\n        /* \"struct.sol\":799:804  _addr */\n      dup4\n        /* \"struct.sol\":708:819  Instructor({... */\n      0xffffffffffffffffffffffffffffffffffffffff\n      and\n      dup2\n      mstore\n      pop\n        /* \"struct.sol\":675:819  Instructor memory myInstructor = Instructor({... */\n      swap1\n      pop\n        /* \"struct.sol\":853:865  myInstructor */\n      dup1\n        /* \"struct.sol\":833:850  academyInstructor */\n      0x00\n        /* \"struct.sol\":833:865  academyInstructor = myInstructor */\n      dup1\n      dup3\n      add\n      mload\n      dup2\n      0x00\n      add\n      sstore\n      0x20\n      dup3\n      add\n      mload\n      dup2\n      0x01\n      add\n      swap1\n      dup2\n      tag_31\n      swap2\n      swap1\n      tag_32\n      jump\t// in\n    tag_31:\n      pop\n      0x40\n      dup3\n      add\n      mload\n      dup2\n      0x02\n      add\n      exp(0x0100, 0x00)\n      dup2\n      sload\n      dup2\n      0xffffffffffffffffffffffffffffffffffffffff\n      mul\n      not\n      and\n      swap1\n      dup4\n      0xffffffffffffffffffffffffffffffffffffffff\n      and\n      mul\n      or\n      swap1\n      sstore\n      pop\n      swap1\n      pop\n      pop\n        /* \"struct.sol\":661:876  {... */\n      pop\n        /* \"struct.sol\":629:876  if (academyState == State.Open) {... */\n    tag_30:\n        /* \"struct.sol\":506:882  function changeInstructor(... */\n      pop\n      pop\n      pop\n      jump\t// out\n        /* \"#utility.yul\":7:187   */\n    tag_27:\n        /* \"#utility.yul\":55:132   */\n      0x4e487b7100000000000000000000000000000000000000000000000000000000\n        /* \"#utility.yul\":52:53   */\n      0x00\n        /* \"#utility.yul\":45:133   */\n      mstore\n        /* \"#utility.yul\":152:156   */\n      0x21\n        /* \"#utility.yul\":149:150   */\n      0x04\n        /* \"#utility.yul\":142:157   */\n      mstore\n        /* \"#utility.yul\":176:180   */\n      0x24\n        /* \"#utility.yul\":173:174   */\n      0x00\n        /* \"#utility.yul\":166:181   */\n      revert\n        /* \"#utility.yul\":193:306   */\n    tag_33:\n        /* \"#utility.yul\":274:275   */\n      0x03\n        /* \"#utility.yul\":267:272   */\n      dup2\n        /* \"#utility.yul\":264:276   */\n      lt\n        /* \"#utility.yul\":254:300   */\n      tag_82\n      jumpi\n        /* \"#utility.yul\":280:298   */\n      tag_83\n      tag_27\n      jump\t// in\n    tag_83:\n        /* \"#utility.yul\":254:300   */\n    tag_82:\n        /* \"#utility.yul\":193:306   */\n      pop\n      jump\t// out\n        /* \"#utility.yul\":312:439   */\n    tag_34:\n        /* \"#utility.yul\":357:364   */\n      0x00\n        /* \"#utility.yul\":386:391   */\n      dup2\n        /* \"#utility.yul\":375:391   */\n      swap1\n      pop\n        /* \"#utility.yul\":392:433   */\n      tag_85\n        /* \"#utility.yul\":427:432   */\n      dup3\n        /* \"#utility.yul\":392:433   */\n      tag_33\n      jump\t// in\n    tag_85:\n        /* \"#utility.yul\":312:439   */\n      swap2\n      swap1\n      pop\n      jump\t// out\n        /* \"#utility.yul\":445:572   */\n    tag_35:\n        /* \"#utility.yul\":501:510   */\n      0x00\n        /* \"#utility.yul\":534:566   */\n      tag_87\n        /* \"#utility.yul\":560:565   */\n      dup3\n        /* \"#utility.yul\":534:566   */\n      tag_34\n      jump\t// in\n    tag_87:\n        /* \"#utility.yul\":521:566   */\n      swap1\n      pop\n        /* \"#utility.yul\":445:572   */\n      swap2\n      swap1\n      pop\n      jump\t// out\n        /* \"#utility.yul\":578:721   */\n    tag_36:\n        /* \"#utility.yul\":671:714   */\n      tag_89\n        /* \"#utility.yul\":708:713   */\n      dup2\n        /* \"#utility.yul\":671:714   */\n      tag_35\n      jump\t// in\n    tag_89:\n        /* \"#utility.yul\":666:669   */\n      dup3\n        /* \"#utility.yul\":659:715   */\n      mstore\n        /* \"#utility.yul\":578:721   */\n      pop\n      pop\n      jump\t// out\n        /* \"#utility.yul\":727:961   */\n    tag_9:\n        /* \"#utility.yul\":826:830   */\n      0x00\n        /* \"#utility.yul\":864:866   */\n      0x20\n        /* \"#utility.yul\":853:862   */\n      dup3\n        /* \"#utility.yul\":849:867   */\n      add\n        /* \"#utility.yul\":841:867   */\n      swap1\n      pop\n        /* \"#utility.yul\":877:954   */\n      tag_91\n        /* \"#utility.yul\":951:952   */\n      0x00\n        /* \"#utility.yul\":940:949   */\n      dup4\n        /* \"#utility.yul\":936:953   */\n      add\n        /* \"#utility.yul\":927:933   */\n      dup5\n        /* \"#utility.yul\":877:954   */\n      tag_36\n      jump\t// in\n    tag_91:\n        /* \"#utility.yul\":727:961   */\n      swap3\n      swap2\n      pop\n      pop\n      jump\t// out\n        /* \"#utility.yul\":967:1044   */\n    tag_37:\n        /* \"#utility.yul\":1004:1011   */\n      0x00\n        /* \"#utility.yul\":1033:1038   */\n      dup2\n        /* \"#utility.yul\":1022:1038   */\n      swap1\n      pop\n        /* \"#utility.yul\":967:1044   */\n      swap2\n      swap1\n      pop\n      jump\t// out\n        /* \"#utility.yul\":1050:1168   */\n    tag_38:\n        /* \"#utility.yul\":1137:1161   */\n      tag_94\n        /* \"#utility.yul\":1155:1160   */\n      dup2\n        /* \"#utility.yul\":1137:1161   */\n      tag_37\n      jump\t// in\n    tag_94:\n        /* \"#utility.yul\":1132:1135   */\n      dup3\n        /* \"#utility.yul\":1125:1162   */\n      mstore\n        /* \"#utility.yul\":1050:1168   */\n      pop\n      pop\n      jump\t// out\n        /* \"#utility.yul\":1174:1273   */\n    tag_39:\n        /* \"#utility.yul\":1226:1232   */\n      0x00\n        /* \"#utility.yul\":1260:1265   */\n      dup2\n        /* \"#utility.yul\":1254:1266   */\n      mload\n        /* \"#utility.yul\":1244:1266   */\n      swap1\n      pop\n        /* \"#utility.yul\":1174:1273   */\n      swap2\n      swap1\n      pop\n      jump\t// out\n        /* \"#utility.yul\":1279:1448   */\n    tag_40:\n        /* \"#utility.yul\":1363:1374   */\n      0x00\n        /* \"#utility.yul\":1397:1403   */\n      dup3\n        /* \"#utility.yul\":1392:1395   */\n      dup3\n        /* \"#utility.yul\":1385:1404   */\n      mstore\n        /* \"#utility.yul\":1437:1441   */\n      0x20\n        /* \"#utility.yul\":1432:1435   */\n      dup3\n        /* \"#utility.yul\":1428:1442   */\n      add\n        /* \"#utility.yul\":1413:1442   */\n      swap1\n      pop\n        /* \"#utility.yul\":1279:1448   */\n      swap3\n      swap2\n      pop\n      pop\n      jump\t// out\n        /* \"#utility.yul\":1454:1700   */\n    tag_41:\n        /* \"#utility.yul\":1535:1536   */\n      0x00\n        /* \"#utility.yul\":1545:1658   */\n    tag_98:\n        /* \"#utility.yul\":1559:1565   */\n      dup4\n        /* \"#utility.yul\":1556:1557   */\n      dup2\n        /* \"#utility.yul\":1553:1566   */\n      lt\n        /* \"#utility.yul\":1545:1658   */\n      iszero\n      tag_100\n      jumpi\n        /* \"#utility.yul\":1644:1645   */\n      dup1\n        /* \"#utility.yul\":1639:1642   */\n      dup3\n        /* \"#utility.yul\":1635:1646   */\n      add\n        /* \"#utility.yul\":1629:1647   */\n      mload\n        /* \"#utility.yul\":1625:1626   */\n      dup2\n        /* \"#utility.yul\":1620:1623   */\n      dup5\n        /* \"#utility.yul\":1616:1627   */\n      add\n        /* \"#utility.yul\":1609:1648   */\n      mstore\n        /* \"#utility.yul\":1581:1583   */\n      0x20\n        /* \"#utility.yul\":1578:1579   */\n      dup2\n        /* \"#utility.yul\":1574:1584   */\n      add\n        /* \"#utility.yul\":1569:1584   */\n      swap1\n      pop\n        /* \"#utility.yul\":1545:1658   */\n      jump(tag_98)\n    tag_100:\n        /* \"#utility.yul\":1692:1693   */\n      0x00\n        /* \"#utility.yul\":1683:1689   */\n      dup5\n        /* \"#utility.yul\":1678:1681   */\n      dup5\n        /* \"#utility.yul\":1674:1690   */\n      add\n        /* \"#utility.yul\":1667:1694   */\n      mstore\n        /* \"#utility.yul\":1516:1700   */\n      pop\n        /* \"#utility.yul\":1454:1700   */\n      pop\n      pop\n      pop\n      jump\t// out\n        /* \"#utility.yul\":1706:1808   */\n    tag_42:\n        /* \"#utility.yul\":1747:1753   */\n      0x00\n        /* \"#utility.yul\":1798:1800   */\n      0x1f\n        /* \"#utility.yul\":1794:1801   */\n      not\n        /* \"#utility.yul\":1789:1791   */\n      0x1f\n        /* \"#utility.yul\":1782:1787   */\n      dup4\n        /* \"#utility.yul\":1778:1792   */\n      add\n        /* \"#utility.yul\":1774:1802   */\n      and\n        /* \"#utility.yul\":1764:1802   */\n      swap1\n      pop\n        /* \"#utility.yul\":1706:1808   */\n      swap2\n      swap1\n      pop\n      jump\t// out\n        /* \"#utility.yul\":1814:2191   */\n    tag_43:\n        /* \"#utility.yul\":1902:1905   */\n      0x00\n        /* \"#utility.yul\":1930:1969   */\n      tag_103\n        /* \"#utility.yul\":1963:1968   */\n      dup3\n        /* \"#utility.yul\":1930:1969   */\n      tag_39\n      jump\t// in\n    tag_103:\n        /* \"#utility.yul\":1985:2056   */\n      tag_104\n        /* \"#utility.yul\":2049:2055   */\n      dup2\n        /* \"#utility.yul\":2044:2047   */\n      dup6\n        /* \"#utility.yul\":1985:2056   */\n      tag_40\n      jump\t// in\n    tag_104:\n        /* \"#utility.yul\":1978:2056   */\n      swap4\n      pop\n        /* \"#utility.yul\":2065:2130   */\n      tag_105\n        /* \"#utility.yul\":2123:2129   */\n      dup2\n        /* \"#utility.yul\":2118:2121   */\n      dup6\n        /* \"#utility.yul\":2111:2115   */\n      0x20\n        /* \"#utility.yul\":2104:2109   */\n      dup7\n        /* \"#utility.yul\":2100:2116   */\n      add\n        /* \"#utility.yul\":2065:2130   */\n      tag_41\n      jump\t// in\n    tag_105:\n        /* \"#utility.yul\":2155:2184   */\n      tag_106\n        /* \"#utility.yul\":2177:2183   */\n      dup2\n        /* \"#utility.yul\":2155:2184   */\n      tag_42\n      jump\t// in\n    tag_106:\n        /* \"#utility.yul\":2150:2153   */\n      dup5\n        /* \"#utility.yul\":2146:2185   */\n      add\n        /* \"#utility.yul\":2139:2185   */\n      swap2\n      pop\n        /* \"#utility.yul\":1906:2191   */\n      pop\n        /* \"#utility.yul\":1814:2191   */\n      swap3\n      swap2\n      pop\n      pop\n      jump\t// out\n        /* \"#utility.yul\":2197:2323   */\n    tag_44:\n        /* \"#utility.yul\":2234:2241   */\n      0x00\n        /* \"#utility.yul\":2274:2316   */\n      0xffffffffffffffffffffffffffffffffffffffff\n        /* \"#utility.yul\":2267:2272   */\n      dup3\n        /* \"#utility.yul\":2263:2317   */\n      and\n        /* \"#utility.yul\":2252:2317   */\n      swap1\n      pop\n        /* \"#utility.yul\":2197:2323   */\n      swap2\n      swap1\n      pop\n      jump\t// out\n        /* \"#utility.yul\":2329:2425   */\n    tag_45:\n        /* \"#utility.yul\":2366:2373   */\n      0x00\n        /* \"#utility.yul\":2395:2419   */\n      tag_109\n        /* \"#utility.yul\":2413:2418   */\n      dup3\n        /* \"#utility.yul\":2395:2419   */\n      tag_44\n      jump\t// in\n    tag_109:\n        /* \"#utility.yul\":2384:2419   */\n      swap1\n      pop\n        /* \"#utility.yul\":2329:2425   */\n      swap2\n      swap1\n      pop\n      jump\t// out\n        /* \"#utility.yul\":2431:2549   */\n    tag_46:\n        /* \"#utility.yul\":2518:2542   */\n      tag_111\n        /* \"#utility.yul\":2536:2541   */\n      dup2\n        /* \"#utility.yul\":2518:2542   */\n      tag_45\n      jump\t// in\n    tag_111:\n        /* \"#utility.yul\":2513:2516   */\n      dup3\n        /* \"#utility.yul\":2506:2543   */\n      mstore\n        /* \"#utility.yul\":2431:2549   */\n      pop\n      pop\n      jump\t// out\n        /* \"#utility.yul\":2555:3088   */\n    tag_13:\n        /* \"#utility.yul\":2724:2728   */\n      0x00\n        /* \"#utility.yul\":2762:2764   */\n      0x60\n        /* \"#utility.yul\":2751:2760   */\n      dup3\n        /* \"#utility.yul\":2747:2765   */\n      add\n        /* \"#utility.yul\":2739:2765   */\n      swap1\n      pop\n        /* \"#utility.yul\":2775:2846   */\n      tag_113\n        /* \"#utility.yul\":2843:2844   */\n      0x00\n        /* \"#utility.yul\":2832:2841   */\n      dup4\n        /* \"#utility.yul\":2828:2845   */\n      add\n        /* \"#utility.yul\":2819:2825   */\n      dup7\n        /* \"#utility.yul\":2775:2846   */\n      tag_38\n      jump\t// in\n    tag_113:\n        /* \"#utility.yul\":2893:2902   */\n      dup2\n        /* \"#utility.yul\":2887:2891   */\n      dup2\n        /* \"#utility.yul\":2883:2903   */\n      sub\n        /* \"#utility.yul\":2878:2880   */\n      0x20\n        /* \"#utility.yul\":2867:2876   */\n      dup4\n        /* \"#utility.yul\":2863:2881   */\n      add\n        /* \"#utility.yul\":2856:2904   */\n      mstore\n        /* \"#utility.yul\":2921:2999   */\n      tag_114\n        /* \"#utility.yul\":2994:2998   */\n      dup2\n        /* \"#utility.yul\":2985:2991   */\n      dup6\n        /* \"#utility.yul\":2921:2999   */\n      tag_43\n      jump\t// in\n    tag_114:\n        /* \"#utility.yul\":2913:2999   */\n      swap1\n      pop\n        /* \"#utility.yul\":3009:3081   */\n      tag_115\n        /* \"#utility.yul\":3077:3079   */\n      0x40\n        /* \"#utility.yul\":3066:3075   */\n      dup4\n        /* \"#utility.yul\":3062:3080   */\n      add\n        /* \"#utility.yul\":3053:3059   */\n      dup5\n        /* \"#utility.yul\":3009:3081   */\n      tag_46\n      jump\t// in\n    tag_115:\n        /* \"#utility.yul\":2555:3088   */\n      swap5\n      swap4\n      pop\n      pop\n      pop\n      pop\n      jump\t// out\n        /* \"#utility.yul\":3094:3169   */\n    tag_47:\n        /* \"#utility.yul\":3127:3133   */\n      0x00\n        /* \"#utility.yul\":3160:3162   */\n      0x40\n        /* \"#utility.yul\":3154:3163   */\n      mload\n        /* \"#utility.yul\":3144:3163   */\n      swap1\n      pop\n        /* \"#utility.yul\":3094:3169   */\n      swap1\n      jump\t// out\n        /* \"#utility.yul\":3175:3292   */\n    tag_48:\n        /* \"#utility.yul\":3284:3285   */\n      0x00\n        /* \"#utility.yul\":3281:3282   */\n      dup1\n        /* \"#utility.yul\":3274:3286   */\n      revert\n        /* \"#utility.yul\":3298:3415   */\n    tag_49:\n        /* \"#utility.yul\":3407:3408   */\n      0x00\n        /* \"#utility.yul\":3404:3405   */\n      dup1\n        /* \"#utility.yul\":3397:3409   */\n      revert\n        /* \"#utility.yul\":3421:3543   */\n    tag_50:\n        /* \"#utility.yul\":3494:3518   */\n      tag_120\n        /* \"#utility.yul\":3512:3517   */\n      dup2\n        /* \"#utility.yul\":3494:3518   */\n      tag_37\n      jump\t// in\n    tag_120:\n        /* \"#utility.yul\":3487:3492   */\n      dup2\n        /* \"#utility.yul\":3484:3519   */\n      eq\n        /* \"#utility.yul\":3474:3537   */\n      tag_121\n      jumpi\n        /* \"#utility.yul\":3533:3534   */\n      0x00\n        /* \"#utility.yul\":3530:3531   */\n      dup1\n        /* \"#utility.yul\":3523:3535   */\n      revert\n        /* \"#utility.yul\":3474:3537   */\n    tag_121:\n        /* \"#utility.yul\":3421:3543   */\n      pop\n      jump\t// out\n        /* \"#utility.yul\":3549:3688   */\n    tag_51:\n        /* \"#utility.yul\":3595:3600   */\n      0x00\n        /* \"#utility.yul\":3633:3639   */\n      dup2\n        /* \"#utility.yul\":3620:3640   */\n      calldataload\n        /* \"#utility.yul\":3611:3640   */\n      swap1\n      pop\n        /* \"#utility.yul\":3649:3682   */\n      tag_123\n        /* \"#utility.yul\":3676:3681   */\n      dup2\n        /* \"#utility.yul\":3649:3682   */\n      tag_50\n      jump\t// in\n    tag_123:\n        /* \"#utility.yul\":3549:3688   */\n      swap3\n      swap2\n      pop\n      pop\n      jump\t// out\n        /* \"#utility.yul\":3694:3811   */\n    tag_52:\n        /* \"#utility.yul\":3803:3804   */\n      0x00\n        /* \"#utility.yul\":3800:3801   */\n      dup1\n        /* \"#utility.yul\":3793:3805   */\n      revert\n        /* \"#utility.yul\":3817:3934   */\n    tag_53:\n        /* \"#utility.yul\":3926:3927   */\n      0x00\n        /* \"#utility.yul\":3923:3924   */\n      dup1\n        /* \"#utility.yul\":3916:3928   */\n      revert\n        /* \"#utility.yul\":3940:4120   */\n    tag_54:\n        /* \"#utility.yul\":3988:4065   */\n      0x4e487b7100000000000000000000000000000000000000000000000000000000\n        /* \"#utility.yul\":3985:3986   */\n      0x00\n        /* \"#utility.yul\":3978:4066   */\n      mstore\n        /* \"#utility.yul\":4085:4089   */\n      0x41\n        /* \"#utility.yul\":4082:4083   */\n      0x04\n        /* \"#utility.yul\":4075:4090   */\n      mstore\n        /* \"#utility.yul\":4109:4113   */\n      0x24\n        /* \"#utility.yul\":4106:4107   */\n      0x00\n        /* \"#utility.yul\":4099:4114   */\n      revert\n        /* \"#utility.yul\":4126:4407   */\n    tag_55:\n        /* \"#utility.yul\":4209:4236   */\n      tag_128\n        /* \"#utility.yul\":4231:4235   */\n      dup3\n        /* \"#utility.yul\":4209:4236   */\n      tag_42\n      jump\t// in\n    tag_128:\n        /* \"#utility.yul\":4201:4207   */\n      dup2\n        /* \"#utility.yul\":4197:4237   */\n      add\n        /* \"#utility.yul\":4339:4345   */\n      dup2\n        /* \"#utility.yul\":4327:4337   */\n      dup2\n        /* \"#utility.yul\":4324:4346   */\n      lt\n        /* \"#utility.yul\":4303:4321   */\n      0xffffffffffffffff\n        /* \"#utility.yul\":4291:4301   */\n      dup3\n        /* \"#utility.yul\":4288:4322   */\n      gt\n        /* \"#utility.yul\":4285:4347   */\n      or\n        /* \"#utility.yul\":4282:4370   */\n      iszero\n      tag_129\n      jumpi\n        /* \"#utility.yul\":4350:4368   */\n      tag_130\n      tag_54\n      jump\t// in\n    tag_130:\n        /* \"#utility.yul\":4282:4370   */\n    tag_129:\n        /* \"#utility.yul\":4390:4400   */\n      dup1\n        /* \"#utility.yul\":4386:4388   */\n      0x40\n        /* \"#utility.yul\":4379:4401   */\n      mstore\n        /* \"#utility.yul\":4169:4407   */\n      pop\n        /* \"#utility.yul\":4126:4407   */\n      pop\n      pop\n      jump\t// out\n        /* \"#utility.yul\":4413:4542   */\n    tag_56:\n        /* \"#utility.yul\":4447:4453   */\n      0x00\n        /* \"#utility.yul\":4474:4494   */\n      tag_132\n      tag_47\n      jump\t// in\n    tag_132:\n        /* \"#utility.yul\":4464:4494   */\n      swap1\n      pop\n        /* \"#utility.yul\":4503:4536   */\n      tag_133\n        /* \"#utility.yul\":4531:4535   */\n      dup3\n        /* \"#utility.yul\":4523:4529   */\n      dup3\n        /* \"#utility.yul\":4503:4536   */\n      tag_55\n      jump\t// in\n    tag_133:\n        /* \"#utility.yul\":4413:4542   */\n      swap2\n      swap1\n      pop\n      jump\t// out\n        /* \"#utility.yul\":4548:4856   */\n    tag_57:\n        /* \"#utility.yul\":4610:4614   */\n      0x00\n        /* \"#utility.yul\":4700:4718   */\n      0xffffffffffffffff\n        /* \"#utility.yul\":4692:4698   */\n      dup3\n        /* \"#utility.yul\":4689:4719   */\n      gt\n        /* \"#utility.yul\":4686:4742   */\n      iszero\n      tag_135\n      jumpi\n        /* \"#utility.yul\":4722:4740   */\n      tag_136\n      tag_54\n      jump\t// in\n    tag_136:\n        /* \"#utility.yul\":4686:4742   */\n    tag_135:\n        /* \"#utility.yul\":4760:4789   */\n      tag_137\n        /* \"#utility.yul\":4782:4788   */\n      dup3\n        /* \"#utility.yul\":4760:4789   */\n      tag_42\n      jump\t// in\n    tag_137:\n        /* \"#utility.yul\":4752:4789   */\n      swap1\n      pop\n        /* \"#utility.yul\":4844:4848   */\n      0x20\n        /* \"#utility.yul\":4838:4842   */\n      dup2\n        /* \"#utility.yul\":4834:4849   */\n      add\n        /* \"#utility.yul\":4826:4849   */\n      swap1\n      pop\n        /* \"#utility.yul\":4548:4856   */\n      swap2\n      swap1\n      pop\n      jump\t// out\n        /* \"#utility.yul\":4862:5008   */\n    tag_58:\n        /* \"#utility.yul\":4959:4965   */\n      dup3\n        /* \"#utility.yul\":4954:4957   */\n      dup2\n        /* \"#utility.yul\":4949:4952   */\n      dup4\n        /* \"#utility.yul\":4936:4966   */\n      calldatacopy\n        /* \"#utility.yul\":5000:5001   */\n      0x00\n        /* \"#utility.yul\":4991:4997   */\n      dup4\n        /* \"#utility.yul\":4986:4989   */\n      dup4\n        /* \"#utility.yul\":4982:4998   */\n      add\n        /* \"#utility.yul\":4975:5002   */\n      mstore\n        /* \"#utility.yul\":4862:5008   */\n      pop\n      pop\n      pop\n      jump\t// out\n        /* \"#utility.yul\":5014:5439   */\n    tag_59:\n        /* \"#utility.yul\":5092:5097   */\n      0x00\n        /* \"#utility.yul\":5117:5183   */\n      tag_140\n        /* \"#utility.yul\":5133:5182   */\n      tag_141\n        /* \"#utility.yul\":5175:5181   */\n      dup5\n        /* \"#utility.yul\":5133:5182   */\n      tag_57\n      jump\t// in\n    tag_141:\n        /* \"#utility.yul\":5117:5183   */\n      tag_56\n      jump\t// in\n    tag_140:\n        /* \"#utility.yul\":5108:5183   */\n      swap1\n      pop\n        /* \"#utility.yul\":5206:5212   */\n      dup3\n        /* \"#utility.yul\":5199:5204   */\n      dup2\n        /* \"#utility.yul\":5192:5213   */\n      mstore\n        /* \"#utility.yul\":5244:5248   */\n      0x20\n        /* \"#utility.yul\":5237:5242   */\n      dup2\n        /* \"#utility.yul\":5233:5249   */\n      add\n        /* \"#utility.yul\":5282:5285   */\n      dup5\n        /* \"#utility.yul\":5273:5279   */\n      dup5\n        /* \"#utility.yul\":5268:5271   */\n      dup5\n        /* \"#utility.yul\":5264:5280   */\n      add\n        /* \"#utility.yul\":5261:5286   */\n      gt\n        /* \"#utility.yul\":5258:5370   */\n      iszero\n      tag_142\n      jumpi\n        /* \"#utility.yul\":5289:5368   */\n      tag_143\n      tag_53\n      jump\t// in\n    tag_143:\n        /* \"#utility.yul\":5258:5370   */\n    tag_142:\n        /* \"#utility.yul\":5379:5433   */\n      tag_144\n        /* \"#utility.yul\":5426:5432   */\n      dup5\n        /* \"#utility.yul\":5421:5424   */\n      dup3\n        /* \"#utility.yul\":5416:5419   */\n      dup6\n        /* \"#utility.yul\":5379:5433   */\n      tag_58\n      jump\t// in\n    tag_144:\n        /* \"#utility.yul\":5098:5439   */\n      pop\n        /* \"#utility.yul\":5014:5439   */\n      swap4\n      swap3\n      pop\n      pop\n      pop\n      jump\t// out\n        /* \"#utility.yul\":5459:5799   */\n    tag_60:\n        /* \"#utility.yul\":5515:5520   */\n      0x00\n        /* \"#utility.yul\":5564:5567   */\n      dup3\n        /* \"#utility.yul\":5557:5561   */\n      0x1f\n        /* \"#utility.yul\":5549:5555   */\n      dup4\n        /* \"#utility.yul\":5545:5562   */\n      add\n        /* \"#utility.yul\":5541:5568   */\n      slt\n        /* \"#utility.yul\":5531:5653   */\n      tag_146\n      jumpi\n        /* \"#utility.yul\":5572:5651   */\n      tag_147\n      tag_52\n      jump\t// in\n    tag_147:\n        /* \"#utility.yul\":5531:5653   */\n    tag_146:\n        /* \"#utility.yul\":5689:5695   */\n      dup2\n        /* \"#utility.yul\":5676:5696   */\n      calldataload\n        /* \"#utility.yul\":5714:5793   */\n      tag_148\n        /* \"#utility.yul\":5789:5792   */\n      dup5\n        /* \"#utility.yul\":5781:5787   */\n      dup3\n        /* \"#utility.yul\":5774:5778   */\n      0x20\n        /* \"#utility.yul\":5766:5772   */\n      dup7\n        /* \"#utility.yul\":5762:5779   */\n      add\n        /* \"#utility.yul\":5714:5793   */\n      tag_59\n      jump\t// in\n    tag_148:\n        /* \"#utility.yul\":5705:5793   */\n      swap2\n      pop\n        /* \"#utility.yul\":5521:5799   */\n      pop\n        /* \"#utility.yul\":5459:5799   */\n      swap3\n      swap2\n      pop\n      pop\n      jump\t// out\n        /* \"#utility.yul\":5805:5927   */\n    tag_61:\n        /* \"#utility.yul\":5878:5902   */\n      tag_150\n        /* \"#utility.yul\":5896:5901   */\n      dup2\n        /* \"#utility.yul\":5878:5902   */\n      tag_45\n      jump\t// in\n    tag_150:\n        /* \"#utility.yul\":5871:5876   */\n      dup2\n        /* \"#utility.yul\":5868:5903   */\n      eq\n        /* \"#utility.yul\":5858:5921   */\n      tag_151\n      jumpi\n        /* \"#utility.yul\":5917:5918   */\n      0x00\n        /* \"#utility.yul\":5914:5915   */\n      dup1\n        /* \"#utility.yul\":5907:5919   */\n      revert\n        /* \"#utility.yul\":5858:5921   */\n    tag_151:\n        /* \"#utility.yul\":5805:5927   */\n      pop\n      jump\t// out\n        /* \"#utility.yul\":5933:6072   */\n    tag_62:\n        /* \"#utility.yul\":5979:5984   */\n      0x00\n        /* \"#utility.yul\":6017:6023   */\n      dup2\n        /* \"#utility.yul\":6004:6024   */\n      calldataload\n        /* \"#utility.yul\":5995:6024   */\n      swap1\n      pop\n        /* \"#utility.yul\":6033:6066   */\n      tag_153\n        /* \"#utility.yul\":6060:6065   */\n      dup2\n        /* \"#utility.yul\":6033:6066   */\n      tag_61\n      jump\t// in\n    tag_153:\n        /* \"#utility.yul\":5933:6072   */\n      swap3\n      swap2\n      pop\n      pop\n      jump\t// out\n        /* \"#utility.yul\":6078:6877   */\n    tag_16:\n        /* \"#utility.yul\":6165:6171   */\n      0x00\n        /* \"#utility.yul\":6173:6179   */\n      dup1\n        /* \"#utility.yul\":6181:6187   */\n      0x00\n        /* \"#utility.yul\":6230:6232   */\n      0x60\n        /* \"#utility.yul\":6218:6227   */\n      dup5\n        /* \"#utility.yul\":6209:6216   */\n      dup7\n        /* \"#utility.yul\":6205:6228   */\n      sub\n        /* \"#utility.yul\":6201:6233   */\n      slt\n        /* \"#utility.yul\":6198:6317   */\n      iszero\n      tag_155\n      jumpi\n        /* \"#utility.yul\":6236:6315   */\n      tag_156\n      tag_48\n      jump\t// in\n    tag_156:\n        /* \"#utility.yul\":6198:6317   */\n    tag_155:\n        /* \"#utility.yul\":6356:6357   */\n      0x00\n        /* \"#utility.yul\":6381:6434   */\n      tag_157\n        /* \"#utility.yul\":6426:6433   */\n      dup7\n        /* \"#utility.yul\":6417:6423   */\n      dup3\n        /* \"#utility.yul\":6406:6415   */\n      dup8\n        /* \"#utility.yul\":6402:6424   */\n      add\n        /* \"#utility.yul\":6381:6434   */\n      tag_51\n      jump\t// in\n    tag_157:\n        /* \"#utility.yul\":6371:6434   */\n      swap4\n      pop\n        /* \"#utility.yul\":6327:6444   */\n      pop\n        /* \"#utility.yul\":6511:6513   */\n      0x20\n        /* \"#utility.yul\":6500:6509   */\n      dup5\n        /* \"#utility.yul\":6496:6514   */\n      add\n        /* \"#utility.yul\":6483:6515   */\n      calldataload\n        /* \"#utility.yul\":6542:6560   */\n      0xffffffffffffffff\n        /* \"#utility.yul\":6534:6540   */\n      dup2\n        /* \"#utility.yul\":6531:6561   */\n      gt\n        /* \"#utility.yul\":6528:6645   */\n      iszero\n      tag_158\n      jumpi\n        /* \"#utility.yul\":6564:6643   */\n      tag_159\n      tag_49\n      jump\t// in\n    tag_159:\n        /* \"#utility.yul\":6528:6645   */\n    tag_158:\n        /* \"#utility.yul\":6669:6732   */\n      tag_160\n        /* \"#utility.yul\":6724:6731   */\n      dup7\n        /* \"#utility.yul\":6715:6721   */\n      dup3\n        /* \"#utility.yul\":6704:6713   */\n      dup8\n        /* \"#utility.yul\":6700:6722   */\n      add\n        /* \"#utility.yul\":6669:6732   */\n      tag_60\n      jump\t// in\n    tag_160:\n        /* \"#utility.yul\":6659:6732   */\n      swap3\n      pop\n        /* \"#utility.yul\":6454:6742   */\n      pop\n        /* \"#utility.yul\":6781:6783   */\n      0x40\n        /* \"#utility.yul\":6807:6860   */\n      tag_161\n        /* \"#utility.yul\":6852:6859   */\n      dup7\n        /* \"#utility.yul\":6843:6849   */\n      dup3\n        /* \"#utility.yul\":6832:6841   */\n      dup8\n        /* \"#utility.yul\":6828:6850   */\n      add\n        /* \"#utility.yul\":6807:6860   */\n      tag_62\n      jump\t// in\n    tag_161:\n        /* \"#utility.yul\":6797:6860   */\n      swap2\n      pop\n        /* \"#utility.yul\":6752:6870   */\n      pop\n        /* \"#utility.yul\":6078:6877   */\n      swap3\n      pop\n      swap3\n      pop\n      swap3\n      jump\t// out\n        /* \"#utility.yul\":6883:7063   */\n    tag_63:\n        /* \"#utility.yul\":6931:7008   */\n      0x4e487b7100000000000000000000000000000000000000000000000000000000\n        /* \"#utility.yul\":6928:6929   */\n      0x00\n        /* \"#utility.yul\":6921:7009   */\n      mstore\n        /* \"#utility.yul\":7028:7032   */\n      0x22\n        /* \"#utility.yul\":7025:7026   */\n      0x04\n        /* \"#utility.yul\":7018:7033   */\n      mstore\n        /* \"#utility.yul\":7052:7056   */\n      0x24\n        /* \"#utility.yul\":7049:7050   */\n      0x00\n        /* \"#utility.yul\":7042:7057   */\n      revert\n        /* \"#utility.yul\":7069:7389   */\n    tag_19:\n        /* \"#utility.yul\":7113:7119   */\n      0x00\n        /* \"#utility.yul\":7150:7151   */\n      0x02\n        /* \"#utility.yul\":7144:7148   */\n      dup3\n        /* \"#utility.yul\":7140:7152   */\n      div\n        /* \"#utility.yul\":7130:7152   */\n      swap1\n      pop\n        /* \"#utility.yul\":7197:7198   */\n      0x01\n        /* \"#utility.yul\":7191:7195   */\n      dup3\n        /* \"#utility.yul\":7187:7199   */\n      and\n        /* \"#utility.yul\":7218:7236   */\n      dup1\n        /* \"#utility.yul\":7208:7289   */\n      tag_164\n      jumpi\n        /* \"#utility.yul\":7274:7278   */\n      0x7f\n        /* \"#utility.yul\":7266:7272   */\n      dup3\n        /* \"#utility.yul\":7262:7279   */\n      and\n        /* \"#utility.yul\":7252:7279   */\n      swap2\n      pop\n        /* \"#utility.yul\":7208:7289   */\n    tag_164:\n        /* \"#utility.yul\":7336:7338   */\n      0x20\n        /* \"#utility.yul\":7328:7334   */\n      dup3\n        /* \"#utility.yul\":7325:7339   */\n      lt\n        /* \"#utility.yul\":7305:7323   */\n      dup2\n        /* \"#utility.yul\":7302:7340   */\n      sub\n        /* \"#utility.yul\":7299:7383   */\n      tag_165\n      jumpi\n        /* \"#utility.yul\":7355:7373   */\n      tag_166\n      tag_63\n      jump\t// in\n    tag_166:\n        /* \"#utility.yul\":7299:7383   */\n    tag_165:\n        /* \"#utility.yul\":7120:7389   */\n      pop\n        /* \"#utility.yul\":7069:7389   */\n      swap2\n      swap1\n      pop\n      jump\t// out\n        /* \"#utility.yul\":7395:7536   */\n    tag_64:\n        /* \"#utility.yul\":7444:7448   */\n      0x00\n        /* \"#utility.yul\":7467:7470   */\n      dup2\n        /* \"#utility.yul\":7459:7470   */\n      swap1\n      pop\n        /* \"#utility.yul\":7490:7493   */\n      dup2\n        /* \"#utility.yul\":7487:7488   */\n      0x00\n        /* \"#utility.yul\":7480:7494   */\n      mstore\n        /* \"#utility.yul\":7524:7528   */\n      0x20\n        /* \"#utility.yul\":7521:7522   */\n      0x00\n        /* \"#utility.yul\":7511:7529   */\n      keccak256\n        /* \"#utility.yul\":7503:7529   */\n      swap1\n      pop\n        /* \"#utility.yul\":7395:7536   */\n      swap2\n      swap1\n      pop\n      jump\t// out\n        /* \"#utility.yul\":7542:7635   */\n    tag_65:\n        /* \"#utility.yul\":7579:7585   */\n      0x00\n        /* \"#utility.yul\":7626:7628   */\n      0x20\n        /* \"#utility.yul\":7621:7623   */\n      0x1f\n        /* \"#utility.yul\":7614:7619   */\n      dup4\n        /* \"#utility.yul\":7610:7624   */\n      add\n        /* \"#utility.yul\":7606:7629   */\n      div\n        /* \"#utility.yul\":7596:7629   */\n      swap1\n      pop\n        /* \"#utility.yul\":7542:7635   */\n      swap2\n      swap1\n      pop\n      jump\t// out\n        /* \"#utility.yul\":7641:7748   */\n    tag_66:\n        /* \"#utility.yul\":7685:7693   */\n      0x00\n        /* \"#utility.yul\":7735:7740   */\n      dup3\n        /* \"#utility.yul\":7729:7733   */\n      dup3\n        /* \"#utility.yul\":7725:7741   */\n      shl\n        /* \"#utility.yul\":7704:7741   */\n      swap1\n      pop\n        /* \"#utility.yul\":7641:7748   */\n      swap3\n      swap2\n      pop\n      pop\n      jump\t// out\n        /* \"#utility.yul\":7754:8147   */\n    tag_67:\n        /* \"#utility.yul\":7823:7829   */\n      0x00\n        /* \"#utility.yul\":7873:7874   */\n      0x08\n        /* \"#utility.yul\":7861:7871   */\n      dup4\n        /* \"#utility.yul\":7857:7875   */\n      mul\n        /* \"#utility.yul\":7896:7993   */\n      tag_171\n        /* \"#utility.yul\":7926:7992   */\n      0xffffffffffffffffffffffffffffffffffffffffffffffffffffffffffffffff\n        /* \"#utility.yul\":7915:7924   */\n      dup3\n        /* \"#utility.yul\":7896:7993   */\n      tag_66\n      jump\t// in\n    tag_171:\n        /* \"#utility.yul\":8014:8053   */\n      tag_172\n        /* \"#utility.yul\":8044:8052   */\n      dup7\n        /* \"#utility.yul\":8033:8042   */\n      dup4\n        /* \"#utility.yul\":8014:8053   */\n      tag_66\n      jump\t// in\n    tag_172:\n        /* \"#utility.yul\":8002:8053   */\n      swap6\n      pop\n        /* \"#utility.yul\":8086:8090   */\n      dup1\n        /* \"#utility.yul\":8082:8091   */\n      not\n        /* \"#utility.yul\":8075:8080   */\n      dup5\n        /* \"#utility.yul\":8071:8092   */\n      and\n        /* \"#utility.yul\":8062:8092   */\n      swap4\n      pop\n        /* \"#utility.yul\":8135:8139   */\n      dup1\n        /* \"#utility.yul\":8125:8133   */\n      dup7\n        /* \"#utility.yul\":8121:8140   */\n      and\n        /* \"#utility.yul\":8114:8119   */\n      dup5\n        /* \"#utility.yul\":8111:8141   */\n      or\n        /* \"#utility.yul\":8101:8141   */\n      swap3\n      pop\n        /* \"#utility.yul\":7830:8147   */\n      pop\n      pop\n        /* \"#utility.yul\":7754:8147   */\n      swap4\n      swap3\n      pop\n      pop\n      pop\n      jump\t// out\n        /* \"#utility.yul\":8153:8213   */\n    tag_68:\n        /* \"#utility.yul\":8181:8184   */\n      0x00\n        /* \"#utility.yul\":8202:8207   */\n      dup2\n        /* \"#utility.yul\":8195:8207   */\n      swap1\n      pop\n        /* \"#utility.yul\":8153:8213   */\n      swap2\n      swap1\n      pop\n      jump\t// out\n        /* \"#utility.yul\":8219:8361   */\n    tag_69:\n        /* \"#utility.yul\":8269:8278   */\n      0x00\n        /* \"#utility.yul\":8302:8355   */\n      tag_175\n        /* \"#utility.yul\":8320:8354   */\n      tag_176\n        /* \"#utility.yul\":8329:8353   */\n      tag_177\n        /* \"#utility.yul\":8347:8352   */\n      dup5\n        /* \"#utility.yul\":8329:8353   */\n      tag_37\n      jump\t// in\n    tag_177:\n        /* \"#utility.yul\":8320:8354   */\n      tag_68\n      jump\t// in\n    tag_176:\n        /* \"#utility.yul\":8302:8355   */\n      tag_37\n      jump\t// in\n    tag_175:\n        /* \"#utility.yul\":8289:8355   */\n      swap1\n      pop\n        /* \"#utility.yul\":8219:8361   */\n      swap2\n      swap1\n      pop\n      jump\t// out\n        /* \"#utility.yul\":8367:8442   */\n    tag_70:\n        /* \"#utility.yul\":8410:8413   */\n      0x00\n        /* \"#utility.yul\":8431:8436   */\n      dup2\n        /* \"#utility.yul\":8424:8436   */\n      swap1\n      pop\n        /* \"#utility.yul\":8367:8442   */\n      swap2\n      swap1\n      pop\n      jump\t// out\n        /* \"#utility.yul\":8448:8717   */\n    tag_71:\n        /* \"#utility.yul\":8558:8597   */\n      tag_180\n        /* \"#utility.yul\":8589:8596   */\n      dup4\n        /* \"#utility.yul\":8558:8597   */\n      tag_69\n      jump\t// in\n    tag_180:\n        /* \"#utility.yul\":8619:8710   */\n      tag_181\n        /* \"#utility.yul\":8668:8709   */\n      tag_182\n        /* \"#utility.yul\":8692:8708   */\n      dup3\n        /* \"#utility.yul\":8668:8709   */\n      tag_70\n      jump\t// in\n    tag_182:\n        /* \"#utility.yul\":8660:8666   */\n      dup5\n        /* \"#utility.yul\":8653:8657   */\n      dup5\n        /* \"#utility.yul\":8647:8658   */\n      sload\n        /* \"#utility.yul\":8619:8710   */\n      tag_67\n      jump\t// in\n    tag_181:\n        /* \"#utility.yul\":8613:8617   */\n      dup3\n        /* \"#utility.yul\":8606:8711   */\n      sstore\n        /* \"#utility.yul\":8524:8717   */\n      pop\n        /* \"#utility.yul\":8448:8717   */\n      pop\n      pop\n      pop\n      jump\t// out\n        /* \"#utility.yul\":8723:8796   */\n    tag_72:\n        /* \"#utility.yul\":8768:8771   */\n      0x00\n        /* \"#utility.yul\":8723:8796   */\n      swap1\n      jump\t// out\n        /* \"#utility.yul\":8802:8991   */\n    tag_73:\n        /* \"#utility.yul\":8879:8911   */\n      tag_185\n      tag_72\n      jump\t// in\n    tag_185:\n        /* \"#utility.yul\":8920:8985   */\n      tag_186\n        /* \"#utility.yul\":8978:8984   */\n      dup2\n        /* \"#utility.yul\":8970:8976   */\n      dup5\n        /* \"#utility.yul\":8964:8968   */\n      dup5\n        /* \"#utility.yul\":8920:8985   */\n      tag_71\n      jump\t// in\n    tag_186:\n        /* \"#utility.yul\":8855:8991   */\n      pop\n        /* \"#utility.yul\":8802:8991   */\n      pop\n      pop\n      jump\t// out\n        /* \"#utility.yul\":8997:9183   */\n    tag_74:\n        /* \"#utility.yul\":9057:9177   */\n    tag_188:\n        /* \"#utility.yul\":9074:9077   */\n      dup2\n        /* \"#utility.yul\":9067:9072   */\n      dup2\n        /* \"#utility.yul\":9064:9078   */\n      lt\n        /* \"#utility.yul\":9057:9177   */\n      iszero\n      tag_190\n      jumpi\n        /* \"#utility.yul\":9128:9167   */\n      tag_191\n        /* \"#utility.yul\":9165:9166   */\n      0x00\n        /* \"#utility.yul\":9158:9163   */\n      dup3\n        /* \"#utility.yul\":9128:9167   */\n      tag_73\n      jump\t// in\n    tag_191:\n        /* \"#utility.yul\":9101:9102   */\n      0x01\n        /* \"#utility.yul\":9094:9099   */\n      dup2\n        /* \"#utility.yul\":9090:9103   */\n      add\n        /* \"#utility.yul\":9081:9103   */\n      swap1\n      pop\n        /* \"#utility.yul\":9057:9177   */\n      jump(tag_188)\n    tag_190:\n        /* \"#utility.yul\":8997:9183   */\n      pop\n      pop\n      jump\t// out\n        /* \"#utility.yul\":9189:9732   */\n    tag_75:\n        /* \"#utility.yul\":9290:9292   */\n      0x1f\n        /* \"#utility.yul\":9285:9288   */\n      dup3\n        /* \"#utility.yul\":9282:9293   */\n      gt\n        /* \"#utility.yul\":9279:9725   */\n      iszero\n      tag_193\n      jumpi\n        /* \"#utility.yul\":9324:9362   */\n      tag_194\n        /* \"#utility.yul\":9356:9361   */\n      dup2\n        /* \"#utility.yul\":9324:9362   */\n      tag_64\n      jump\t// in\n    tag_194:\n        /* \"#utility.yul\":9408:9437   */\n      tag_195\n        /* \"#utility.yul\":9426:9436   */\n      dup5\n        /* \"#utility.yul\":9408:9437   */\n      tag_65\n      jump\t// in\n    tag_195:\n        /* \"#utility.yul\":9398:9406   */\n      dup2\n        /* \"#utility.yul\":9394:9438   */\n      add\n        /* \"#utility.yul\":9591:9593   */\n      0x20\n        /* \"#utility.yul\":9579:9589   */\n      dup6\n        /* \"#utility.yul\":9576:9594   */\n      lt\n        /* \"#utility.yul\":9573:9622   */\n      iszero\n      tag_196\n      jumpi\n        /* \"#utility.yul\":9612:9620   */\n      dup2\n        /* \"#utility.yul\":9597:9620   */\n      swap1\n      pop\n        /* \"#utility.yul\":9573:9622   */\n    tag_196:\n        /* \"#utility.yul\":9635:9715   */\n      tag_197\n        /* \"#utility.yul\":9691:9713   */\n      tag_198\n        /* \"#utility.yul\":9709:9712   */\n      dup6\n        /* \"#utility.yul\":9691:9713   */\n      tag_65\n      jump\t// in\n    tag_198:\n        /* \"#utility.yul\":9681:9689   */\n      dup4\n        /* \"#utility.yul\":9677:9714   */\n      add\n        /* \"#utility.yul\":9664:9675   */\n      dup3\n        /* \"#utility.yul\":9635:9715   */\n      tag_74\n      jump\t// in\n    tag_197:\n        /* \"#utility.yul\":9294:9725   */\n      pop\n      pop\n        /* \"#utility.yul\":9279:9725   */\n    tag_193:\n        /* \"#utility.yul\":9189:9732   */\n      pop\n      pop\n      pop\n      jump\t// out\n        /* \"#utility.yul\":9738:9855   */\n    tag_76:\n        /* \"#utility.yul\":9792:9800   */\n      0x00\n        /* \"#utility.yul\":9842:9847   */\n      dup3\n        /* \"#utility.yul\":9836:9840   */\n      dup3\n        /* \"#utility.yul\":9832:9848   */\n      shr\n        /* \"#utility.yul\":9811:9848   */\n      swap1\n      pop\n        /* \"#utility.yul\":9738:9855   */\n      swap3\n      swap2\n      pop\n      pop\n      jump\t// out\n        /* \"#utility.yul\":9861:10030   */\n    tag_77:\n        /* \"#utility.yul\":9905:9911   */\n      0x00\n        /* \"#utility.yul\":9938:9989   */\n      tag_201\n        /* \"#utility.yul\":9986:9987   */\n      0x00\n        /* \"#utility.yul\":9982:9988   */\n      not\n        /* \"#utility.yul\":9974:9979   */\n      dup5\n        /* \"#utility.yul\":9971:9972   */\n      0x08\n        /* \"#utility.yul\":9967:9980   */\n      mul\n        /* \"#utility.yul\":9938:9989   */\n      tag_76\n      jump\t// in\n    tag_201:\n        /* \"#utility.yul\":9934:9990   */\n      not\n        /* \"#utility.yul\":10019:10023   */\n      dup1\n        /* \"#utility.yul\":10013:10017   */\n      dup4\n        /* \"#utility.yul\":10009:10024   */\n      and\n        /* \"#utility.yul\":9999:10024   */\n      swap2\n      pop\n        /* \"#utility.yul\":9912:10030   */\n      pop\n        /* \"#utility.yul\":9861:10030   */\n      swap3\n      swap2\n      pop\n      pop\n      jump\t// out\n        /* \"#utility.yul\":10035:10330   */\n    tag_78:\n        /* \"#utility.yul\":10111:10115   */\n      0x00\n        /* \"#utility.yul\":10257:10286   */\n      tag_203\n        /* \"#utility.yul\":10282:10285   */\n      dup4\n        /* \"#utility.yul\":10276:10280   */\n      dup4\n        /* \"#utility.yul\":10257:10286   */\n      tag_77\n      jump\t// in\n    tag_203:\n        /* \"#utility.yul\":10249:10286   */\n      swap2\n      pop\n        /* \"#utility.yul\":10319:10322   */\n      dup3\n        /* \"#utility.yul\":10316:10317   */\n      0x02\n        /* \"#utility.yul\":10312:10323   */\n      mul\n        /* \"#utility.yul\":10306:10310   */\n      dup3\n        /* \"#utility.yul\":10303:10324   */\n      or\n        /* \"#utility.yul\":10295:10324   */\n      swap1\n      pop\n        /* \"#utility.yul\":10035:10330   */\n      swap3\n      swap2\n      pop\n      pop\n      jump\t// out\n        /* \"#utility.yul\":10335:11730   */\n    tag_32:\n        /* \"#utility.yul\":10452:10489   */\n      tag_205\n        /* \"#utility.yul\":10485:10488   */\n      dup3\n        /* \"#utility.yul\":10452:10489   */\n      tag_39\n      jump\t// in\n    tag_205:\n        /* \"#utility.yul\":10554:10572   */\n      0xffffffffffffffff\n        /* \"#utility.yul\":10546:10552   */\n      dup2\n        /* \"#utility.yul\":10543:10573   */\n      gt\n        /* \"#utility.yul\":10540:10596   */\n      iszero\n      tag_206\n      jumpi\n        /* \"#utility.yul\":10576:10594   */\n      tag_207\n      tag_54\n      jump\t// in\n    tag_207:\n        /* \"#utility.yul\":10540:10596   */\n    tag_206:\n        /* \"#utility.yul\":10620:10658   */\n      tag_208\n        /* \"#utility.yul\":10652:10656   */\n      dup3\n        /* \"#utility.yul\":10646:10657   */\n      sload\n        /* \"#utility.yul\":10620:10658   */\n      tag_19\n      jump\t// in\n    tag_208:\n        /* \"#utility.yul\":10705:10772   */\n      tag_209\n        /* \"#utility.yul\":10765:10771   */\n      dup3\n        /* \"#utility.yul\":10757:10763   */\n      dup3\n        /* \"#utility.yul\":10751:10755   */\n      dup6\n        /* \"#utility.yul\":10705:10772   */\n      tag_75\n      jump\t// in\n    tag_209:\n        /* \"#utility.yul\":10799:10800   */\n      0x00\n        /* \"#utility.yul\":10823:10827   */\n      0x20\n        /* \"#utility.yul\":10810:10827   */\n      swap1\n      pop\n        /* \"#utility.yul\":10855:10857   */\n      0x1f\n        /* \"#utility.yul\":10847:10853   */\n      dup4\n        /* \"#utility.yul\":10844:10858   */\n      gt\n        /* \"#utility.yul\":10872:10873   */\n      0x01\n        /* \"#utility.yul\":10867:11485   */\n      dup2\n      eq\n      tag_211\n      jumpi\n        /* \"#utility.yul\":11529:11530   */\n      0x00\n        /* \"#utility.yul\":11546:11552   */\n      dup5\n        /* \"#utility.yul\":11543:11620   */\n      iszero\n      tag_212\n      jumpi\n        /* \"#utility.yul\":11595:11604   */\n      dup3\n        /* \"#utility.yul\":11590:11593   */\n      dup8\n        /* \"#utility.yul\":11586:11605   */\n      add\n        /* \"#utility.yul\":11580:11606   */\n      mload\n        /* \"#utility.yul\":11571:11606   */\n      swap1\n      pop\n        /* \"#utility.yul\":11543:11620   */\n    tag_212:\n        /* \"#utility.yul\":11646:11713   */\n      tag_213\n        /* \"#utility.yul\":11706:11712   */\n      dup6\n        /* \"#utility.yul\":11699:11704   */\n      dup3\n        /* \"#utility.yul\":11646:11713   */\n      tag_78\n      jump\t// in\n    tag_213:\n        /* \"#utility.yul\":11640:11644   */\n      dup7\n        /* \"#utility.yul\":11633:11714   */\n      sstore\n        /* \"#utility.yul\":11502:11724   */\n      pop\n        /* \"#utility.yul\":10837:11724   */\n      jump(tag_210)\n        /* \"#utility.yul\":10867:11485   */\n    tag_211:\n        /* \"#utility.yul\":10919:10923   */\n      0x1f\n        /* \"#utility.yul\":10915:10924   */\n      not\n        /* \"#utility.yul\":10907:10913   */\n      dup5\n        /* \"#utility.yul\":10903:10925   */\n      and\n        /* \"#utility.yul\":10953:10990   */\n      tag_214\n        /* \"#utility.yul\":10985:10989   */\n      dup7\n        /* \"#utility.yul\":10953:10990   */\n      tag_64\n      jump\t// in\n    tag_214:\n        /* \"#utility.yul\":11012:11013   */\n      0x00\n        /* \"#utility.yul\":11026:11234   */\n    tag_215:\n        /* \"#utility.yul\":11040:11047   */\n      dup3\n        /* \"#utility.yul\":11037:11038   */\n      dup2\n        /* \"#utility.yul\":11034:11048   */\n      lt\n        /* \"#utility.yul\":11026:11234   */\n      iszero\n      tag_217\n      jumpi\n        /* \"#utility.yul\":11119:11128   */\n      dup5\n        /* \"#utility.yul\":11114:11117   */\n      dup10\n        /* \"#utility.yul\":11110:11129   */\n      add\n        /* \"#utility.yul\":11104:11130   */\n      mload\n        /* \"#utility.yul\":11096:11102   */\n      dup3\n        /* \"#utility.yul\":11089:11131   */\n      sstore\n        /* \"#utility.yul\":11170:11171   */\n      0x01\n        /* \"#utility.yul\":11162:11168   */\n      dup3\n        /* \"#utility.yul\":11158:11172   */\n      add\n        /* \"#utility.yul\":11148:11172   */\n      swap2\n      pop\n        /* \"#utility.yul\":11217:11219   */\n      0x20\n        /* \"#utility.yul\":11206:11215   */\n      dup6\n        /* \"#utility.yul\":11202:11220   */\n      add\n        /* \"#utility.yul\":11189:11220   */\n      swap5\n      pop\n        /* \"#utility.yul\":11063:11067   */\n      0x20\n        /* \"#utility.yul\":11060:11061   */\n      dup2\n        /* \"#utility.yul\":11056:11068   */\n      add\n        /* \"#utility.yul\":11051:11068   */\n      swap1\n      pop\n        /* \"#utility.yul\":11026:11234   */\n      jump(tag_215)\n    tag_217:\n        /* \"#utility.yul\":11262:11268   */\n      dup7\n        /* \"#utility.yul\":11253:11260   */\n      dup4\n        /* \"#utility.yul\":11250:11269   */\n      lt\n        /* \"#utility.yul\":11247:11426   */\n      iszero\n      tag_218\n      jumpi\n        /* \"#utility.yul\":11320:11329   */\n      dup5\n        /* \"#utility.yul\":11315:11318   */\n      dup10\n        /* \"#utility.yul\":11311:11330   */\n      add\n        /* \"#utility.yul\":11305:11331   */\n      mload\n        /* \"#utility.yul\":11363:11411   */\n      tag_219\n        /* \"#utility.yul\":11405:11409   */\n      0x1f\n        /* \"#utility.yul\":11397:11403   */\n      dup10\n        /* \"#utility.yul\":11393:11410   */\n      and\n        /* \"#utility.yul\":11382:11391   */\n      dup3\n        /* \"#utility.yul\":11363:11411   */\n      tag_77\n      jump\t// in\n    tag_219:\n        /* \"#utility.yul\":11355:11361   */\n      dup4\n        /* \"#utility.yul\":11348:11412   */\n      sstore\n        /* \"#utility.yul\":11270:11426   */\n      pop\n        /* \"#utility.yul\":11247:11426   */\n    tag_218:\n        /* \"#utility.yul\":11472:11473   */\n      0x01\n        /* \"#utility.yul\":11468:11469   */\n      0x02\n        /* \"#utility.yul\":11460:11466   */\n      dup9\n        /* \"#utility.yul\":11456:11470   */\n      mul\n        /* \"#utility.yul\":11452:11474   */\n      add\n        /* \"#utility.yul\":11446:11450   */\n      dup9\n        /* \"#utility.yul\":11439:11475   */\n      sstore\n        /* \"#utility.yul\":10874:11485   */\n      pop\n      pop\n      pop\n        /* \"#utility.yul\":10837:11724   */\n    tag_210:\n      pop\n        /* \"#utility.yul\":10427:11730   */\n      pop\n      pop\n      pop\n        /* \"#utility.yul\":10335:11730   */\n      pop\n      pop\n      jump\t// out\n\n    auxdata: 0xa26469706673582212205c510533674323d473faf89715ab6610a5e283bb07a475e628811ed4a756260b64736f6c63430008160033\n}\n",
				"bytecode": {
					"linkReferences": {},
					"object": "60806040525f60035f6101000a81548160ff021916908360028111156200002b576200002a620000c8565b5b02179055503480156200003c575f80fd5b5060405162000f2238038062000f228339818101604052810190620000629190620002b2565b815f800181905550805f60010190816200007d919062000544565b50335f6002015f6101000a81548173ffffffffffffffffffffffffffffffffffffffff021916908373ffffffffffffffffffffffffffffffffffffffff160217905550505062000628565b7f4e487b71000000000000000000000000000000000000000000000000000000005f52602160045260245ffd5b5f604051905090565b5f80fd5b5f80fd5b5f819050919050565b6200011a8162000106565b811462000125575f80fd5b50565b5f8151905062000138816200010f565b92915050565b5f80fd5b5f80fd5b5f601f19601f8301169050919050565b7f4e487b71000000000000000000000000000000000000000000000000000000005f52604160045260245ffd5b6200018e8262000146565b810181811067ffffffffffffffff82111715620001b057620001af62000156565b5b80604052505050565b5f620001c4620000f5565b9050620001d2828262000183565b919050565b5f67ffffffffffffffff821115620001f457620001f362000156565b5b620001ff8262000146565b9050602081019050919050565b5f5b838110156200022b5780820151818401526020810190506200020e565b5f8484015250505050565b5f6200024c6200024684620001d7565b620001b9565b9050828152602081018484840111156200026b576200026a62000142565b5b620002788482856200020c565b509392505050565b5f82601f8301126200029757620002966200013e565b5b8151620002a984826020860162000236565b91505092915050565b5f8060408385031215620002cb57620002ca620000fe565b5b5f620002da8582860162000128565b925050602083015167ffffffffffffffff811115620002fe57620002fd62000102565b5b6200030c8582860162000280565b9150509250929050565b5f81519050919050565b7f4e487b71000000000000000000000000000000000000000000000000000000005f52602260045260245ffd5b5f60028204905060018216806200036557607f821691505b6020821081036200037b576200037a62000320565b5b50919050565b5f819050815f5260205f209050919050565b5f6020601f8301049050919050565b5f82821b905092915050565b5f60088302620003df7fffffffffffffffffffffffffffffffffffffffffffffffffffffffffffffffff82620003a2565b620003eb8683620003a2565b95508019841693508086168417925050509392505050565b5f819050919050565b5f6200042c62000426620004208462000106565b62000403565b62000106565b9050919050565b5f819050919050565b62000447836200040c565b6200045f620004568262000433565b848454620003ae565b825550505050565b5f90565b6200047562000467565b620004828184846200043c565b505050565b5b81811015620004a9576200049d5f826200046b565b60018101905062000488565b5050565b601f821115620004f857620004c28162000381565b620004cd8462000393565b81016020851015620004dd578190505b620004f5620004ec8562000393565b83018262000487565b50505b505050565b5f82821c905092915050565b5f6200051a5f1984600802620004fd565b1980831691505092915050565b5f62000534838362000509565b9150826002028217905092915050565b6200054f8262000316565b67ffffffffffffffff8111156200056b576200056a62000156565b5b6200057782546200034d565b62000584828285620004ad565b5f60209050601f831160018114620005ba575f8415620005a5578287015190505b620005b1858262000527565b86555062000620565b601f198416620005ca8662000381565b5f5b82811015620005f357848901518255600182019150602085019450602081019050620005cc565b868310156200061357848901516200060f601f89168262000509565b8355505b6001600288020188555050505b505050505050565b6108ec80620006365f395ff3fe608060405234801561000f575f80fd5b506004361061003f575f3560e01c806323b8ca9f146100435780635424884114610061578063a46878fb14610081575b5f80fd5b61004b61009d565b60405161005891906102ba565b60405180910390f35b6100696100af565b604051610078939291906103b4565b60405180910390f35b61009b60048036038101906100969190610581565b61016a565b005b60035f9054906101000a900460ff1681565b5f805f0154908060010180546100c49061061a565b80601f01602080910402602001604051908101604052809291908181526020018280546100f09061061a565b801561013b5780601f106101125761010080835404028352916020019161013b565b820191905f5260205f20905b81548152906001019060200180831161011e57829003601f168201915b505050505090806002015f9054906101000a900473ffffffffffffffffffffffffffffffffffffffff16905083565b5f600281111561017d5761017c610247565b5b60035f9054906101000a900460ff16600281111561019e5761019d610247565b5b03610242575f60405180606001604052808581526020018481526020018373ffffffffffffffffffffffffffffffffffffffff168152509050805f80820151815f015560208201518160010190816101f691906107e7565b506040820151816002015f6101000a81548173ffffffffffffffffffffffffffffffffffffffff021916908373ffffffffffffffffffffffffffffffffffffffff160217905550905050505b505050565b7f4e487b71000000000000000000000000000000000000000000000000000000005f52602160045260245ffd5b6003811061028557610284610247565b5b50565b5f81905061029582610274565b919050565b5f6102a482610288565b9050919050565b6102b48161029a565b82525050565b5f6020820190506102cd5f8301846102ab565b92915050565b5f819050919050565b6102e5816102d3565b82525050565b5f81519050919050565b5f82825260208201905092915050565b5f5b83811015610322578082015181840152602081019050610307565b5f8484015250505050565b5f601f19601f8301169050919050565b5f610347826102eb565b61035181856102f5565b9350610361818560208601610305565b61036a8161032d565b840191505092915050565b5f73ffffffffffffffffffffffffffffffffffffffff82169050919050565b5f61039e82610375565b9050919050565b6103ae81610394565b82525050565b5f6060820190506103c75f8301866102dc565b81810360208301526103d9818561033d565b90506103e860408301846103a5565b949350505050565b5f604051905090565b5f80fd5b5f80fd5b61040a816102d3565b8114610414575f80fd5b50565b5f8135905061042581610401565b92915050565b5f80fd5b5f80fd5b7f4e487b71000000000000000000000000000000000000000000000000000000005f52604160045260245ffd5b6104698261032d565b810181811067ffffffffffffffff8211171561048857610487610433565b5b80604052505050565b5f61049a6103f0565b90506104a68282610460565b919050565b5f67ffffffffffffffff8211156104c5576104c4610433565b5b6104ce8261032d565b9050602081019050919050565b828183375f83830152505050565b5f6104fb6104f6846104ab565b610491565b9050828152602081018484840111156105175761051661042f565b5b6105228482856104db565b509392505050565b5f82601f83011261053e5761053d61042b565b5b813561054e8482602086016104e9565b91505092915050565b61056081610394565b811461056a575f80fd5b50565b5f8135905061057b81610557565b92915050565b5f805f60608486031215610598576105976103f9565b5b5f6105a586828701610417565b935050602084013567ffffffffffffffff8111156105c6576105c56103fd565b5b6105d28682870161052a565b92505060406105e38682870161056d565b9150509250925092565b7f4e487b71000000000000000000000000000000000000000000000000000000005f52602260045260245ffd5b5f600282049050600182168061063157607f821691505b602082108103610644576106436105ed565b5b50919050565b5f819050815f5260205f209050919050565b5f6020601f8301049050919050565b5f82821b905092915050565b5f600883026106a67fffffffffffffffffffffffffffffffffffffffffffffffffffffffffffffffff8261066b565b6106b0868361066b565b95508019841693508086168417925050509392505050565b5f819050919050565b5f6106eb6106e66106e1846102d3565b6106c8565b6102d3565b9050919050565b5f819050919050565b610704836106d1565b610718610710826106f2565b848454610677565b825550505050565b5f90565b61072c610720565b6107378184846106fb565b505050565b5b8181101561075a5761074f5f82610724565b60018101905061073d565b5050565b601f82111561079f576107708161064a565b6107798461065c565b81016020851015610788578190505b61079c6107948561065c565b83018261073c565b50505b505050565b5f82821c905092915050565b5f6107bf5f19846008026107a4565b1980831691505092915050565b5f6107d783836107b0565b9150826002028217905092915050565b6107f0826102eb565b67ffffffffffffffff81111561080957610808610433565b5b610813825461061a565b61081e82828561075e565b5f60209050601f83116001811461084f575f841561083d578287015190505b61084785826107cc565b8655506108ae565b601f19841661085d8661064a565b5f5b828110156108845784890151825560018201915060208501945060208101905061085f565b868310156108a1578489015161089d601f8916826107b0565b8355505b6001600288020188555050505b50505050505056fea26469706673582212205c510533674323d473faf89715ab6610a5e283bb07a475e628811ed4a756260b64736f6c63430008160033",
					"opcodes": "PUSH1 0x80 PUSH1 0x40 MSTORE PUSH0 PUSH1 0x3 PUSH0 PUSH2 0x100 EXP DUP2 SLOAD DUP2 PUSH1 0xFF MUL NOT AND SWAP1 DUP4 PUSH1 0x2 DUP2 GT ISZERO PUSH3 0x2B JUMPI PUSH3 0x2A PUSH3 0xC8 JUMP JUMPDEST JUMPDEST MUL OR SWAP1 SSTORE POP CALLVALUE DUP1 ISZERO PUSH3 0x3C JUMPI PUSH0 DUP1 REVERT JUMPDEST POP PUSH1 0x40 MLOAD PUSH3 0xF22 CODESIZE SUB DUP1 PUSH3 0xF22 DUP4 CODECOPY DUP2 DUP2 ADD PUSH1 0x40 MSTORE DUP2 ADD SWAP1 PUSH3 0x62 SWAP2 SWAP1 PUSH3 0x2B2 JUMP JUMPDEST DUP2 PUSH0 DUP1 ADD DUP2 SWAP1 SSTORE POP DUP1 PUSH0 PUSH1 0x1 ADD SWAP1 DUP2 PUSH3 0x7D SWAP2 SWAP1 PUSH3 0x544 JUMP JUMPDEST POP CALLER PUSH0 PUSH1 0x2 ADD PUSH0 PUSH2 0x100 EXP DUP2 SLOAD DUP2 PUSH20 0xFFFFFFFFFFFFFFFFFFFFFFFFFFFFFFFFFFFFFFFF MUL NOT AND SWAP1 DUP4 PUSH20 0xFFFFFFFFFFFFFFFFFFFFFFFFFFFFFFFFFFFFFFFF AND MUL OR SWAP1 SSTORE POP POP POP PUSH3 0x628 JUMP JUMPDEST PUSH32 0x4E487B7100000000000000000000000000000000000000000000000000000000 PUSH0 MSTORE PUSH1 0x21 PUSH1 0x4 MSTORE PUSH1 0x24 PUSH0 REVERT JUMPDEST PUSH0 PUSH1 0x40 MLOAD SWAP1 POP SWAP1 JUMP JUMPDEST PUSH0 DUP1 REVERT JUMPDEST PUSH0 DUP1 REVERT JUMPDEST PUSH0 DUP2 SWAP1 POP SWAP2 SWAP1 POP JUMP JUMPDEST PUSH3 0x11A DUP2 PUSH3 0x106 JUMP JUMPDEST DUP2 EQ PUSH3 0x125 JUMPI PUSH0 DUP1 REVERT JUMPDEST POP JUMP JUMPDEST PUSH0 DUP2 MLOAD SWAP1 POP PUSH3 0x138 DUP2 PUSH3 0x10F JUMP JUMPDEST SWAP3 SWAP2 POP POP JUMP JUMPDEST PUSH0 DUP1 REVERT JUMPDEST PUSH0 DUP1 REVERT JUMPDEST PUSH0 PUSH1 0x1F NOT PUSH1 0x1F DUP4 ADD AND SWAP1 POP SWAP2 SWAP1 POP JUMP JUMPDEST PUSH32 0x4E487B7100000000000000000000000000000000000000000000000000000000 PUSH0 MSTORE PUSH1 0x41 PUSH1 0x4 MSTORE PUSH1 0x24 PUSH0 REVERT JUMPDEST PUSH3 0x18E DUP3 PUSH3 0x146 JUMP JUMPDEST DUP2 ADD DUP2 DUP2 LT PUSH8 0xFFFFFFFFFFFFFFFF DUP3 GT OR ISZERO PUSH3 0x1B0 JUMPI PUSH3 0x1AF PUSH3 0x156 JUMP JUMPDEST JUMPDEST DUP1 PUSH1 0x40 MSTORE POP POP POP JUMP JUMPDEST PUSH0 PUSH3 0x1C4 PUSH3 0xF5 JUMP JUMPDEST SWAP1 POP PUSH3 0x1D2 DUP3 DUP3 PUSH3 0x183 JUMP JUMPDEST SWAP2 SWAP1 POP JUMP JUMPDEST PUSH0 PUSH8 0xFFFFFFFFFFFFFFFF DUP3 GT ISZERO PUSH3 0x1F4 JUMPI PUSH3 0x1F3 PUSH3 0x156 JUMP JUMPDEST JUMPDEST PUSH3 0x1FF DUP3 PUSH3 0x146 JUMP JUMPDEST SWAP1 POP PUSH1 0x20 DUP2 ADD SWAP1 POP SWAP2 SWAP1 POP JUMP JUMPDEST PUSH0 JUMPDEST DUP4 DUP2 LT ISZERO PUSH3 0x22B JUMPI DUP1 DUP3 ADD MLOAD DUP2 DUP5 ADD MSTORE PUSH1 0x20 DUP2 ADD SWAP1 POP PUSH3 0x20E JUMP JUMPDEST PUSH0 DUP5 DUP5 ADD MSTORE POP POP POP POP JUMP JUMPDEST PUSH0 PUSH3 0x24C PUSH3 0x246 DUP5 PUSH3 0x1D7 JUMP JUMPDEST PUSH3 0x1B9 JUMP JUMPDEST SWAP1 POP DUP3 DUP2 MSTORE PUSH1 0x20 DUP2 ADD DUP5 DUP5 DUP5 ADD GT ISZERO PUSH3 0x26B JUMPI PUSH3 0x26A PUSH3 0x142 JUMP JUMPDEST JUMPDEST PUSH3 0x278 DUP5 DUP3 DUP6 PUSH3 0x20C JUMP JUMPDEST POP SWAP4 SWAP3 POP POP POP JUMP JUMPDEST PUSH0 DUP3 PUSH1 0x1F DUP4 ADD SLT PUSH3 0x297 JUMPI PUSH3 0x296 PUSH3 0x13E JUMP JUMPDEST JUMPDEST DUP2 MLOAD PUSH3 0x2A9 DUP5 DUP3 PUSH1 0x20 DUP7 ADD PUSH3 0x236 JUMP JUMPDEST SWAP2 POP POP SWAP3 SWAP2 POP POP JUMP JUMPDEST PUSH0 DUP1 PUSH1 0x40 DUP4 DUP6 SUB SLT ISZERO PUSH3 0x2CB JUMPI PUSH3 0x2CA PUSH3 0xFE JUMP JUMPDEST JUMPDEST PUSH0 PUSH3 0x2DA DUP6 DUP3 DUP7 ADD PUSH3 0x128 JUMP JUMPDEST SWAP3 POP POP PUSH1 0x20 DUP4 ADD MLOAD PUSH8 0xFFFFFFFFFFFFFFFF DUP2 GT ISZERO PUSH3 0x2FE JUMPI PUSH3 0x2FD PUSH3 0x102 JUMP JUMPDEST JUMPDEST PUSH3 0x30C DUP6 DUP3 DUP7 ADD PUSH3 0x280 JUMP JUMPDEST SWAP2 POP POP SWAP3 POP SWAP3 SWAP1 POP JUMP JUMPDEST PUSH0 DUP2 MLOAD SWAP1 POP SWAP2 SWAP1 POP JUMP JUMPDEST PUSH32 0x4E487B7100000000000000000000000000000000000000000000000000000000 PUSH0 MSTORE PUSH1 0x22 PUSH1 0x4 MSTORE PUSH1 0x24 PUSH0 REVERT JUMPDEST PUSH0 PUSH1 0x2 DUP3 DIV SWAP1 POP PUSH1 0x1 DUP3 AND DUP1 PUSH3 0x365 JUMPI PUSH1 0x7F DUP3 AND SWAP2 POP JUMPDEST PUSH1 0x20 DUP3 LT DUP2 SUB PUSH3 0x37B JUMPI PUSH3 0x37A PUSH3 0x320 JUMP JUMPDEST JUMPDEST POP SWAP2 SWAP1 POP JUMP JUMPDEST PUSH0 DUP2 SWAP1 POP DUP2 PUSH0 MSTORE PUSH1 0x20 PUSH0 KECCAK256 SWAP1 POP SWAP2 SWAP1 POP JUMP JUMPDEST PUSH0 PUSH1 0x20 PUSH1 0x1F DUP4 ADD DIV SWAP1 POP SWAP2 SWAP1 POP JUMP JUMPDEST PUSH0 DUP3 DUP3 SHL SWAP1 POP SWAP3 SWAP2 POP POP JUMP JUMPDEST PUSH0 PUSH1 0x8 DUP4 MUL PUSH3 0x3DF PUSH32 0xFFFFFFFFFFFFFFFFFFFFFFFFFFFFFFFFFFFFFFFFFFFFFFFFFFFFFFFFFFFFFFFF DUP3 PUSH3 0x3A2 JUMP JUMPDEST PUSH3 0x3EB DUP7 DUP4 PUSH3 0x3A2 JUMP JUMPDEST SWAP6 POP DUP1 NOT DUP5 AND SWAP4 POP DUP1 DUP7 AND DUP5 OR SWAP3 POP POP POP SWAP4 SWAP3 POP POP POP JUMP JUMPDEST PUSH0 DUP2 SWAP1 POP SWAP2 SWAP1 POP JUMP JUMPDEST PUSH0 PUSH3 0x42C PUSH3 0x426 PUSH3 0x420 DUP5 PUSH3 0x106 JUMP JUMPDEST PUSH3 0x403 JUMP JUMPDEST PUSH3 0x106 JUMP JUMPDEST SWAP1 POP SWAP2 SWAP1 POP JUMP JUMPDEST PUSH0 DUP2 SWAP1 POP SWAP2 SWAP1 POP JUMP JUMPDEST PUSH3 0x447 DUP4 PUSH3 0x40C JUMP JUMPDEST PUSH3 0x45F PUSH3 0x456 DUP3 PUSH3 0x433 JUMP JUMPDEST DUP5 DUP5 SLOAD PUSH3 0x3AE JUMP JUMPDEST DUP3 SSTORE POP POP POP POP JUMP JUMPDEST PUSH0 SWAP1 JUMP JUMPDEST PUSH3 0x475 PUSH3 0x467 JUMP JUMPDEST PUSH3 0x482 DUP2 DUP5 DUP5 PUSH3 0x43C JUMP JUMPDEST POP POP POP JUMP JUMPDEST JUMPDEST DUP2 DUP2 LT ISZERO PUSH3 0x4A9 JUMPI PUSH3 0x49D PUSH0 DUP3 PUSH3 0x46B JUMP JUMPDEST PUSH1 0x1 DUP2 ADD SWAP1 POP PUSH3 0x488 JUMP JUMPDEST POP POP JUMP JUMPDEST PUSH1 0x1F DUP3 GT ISZERO PUSH3 0x4F8 JUMPI PUSH3 0x4C2 DUP2 PUSH3 0x381 JUMP JUMPDEST PUSH3 0x4CD DUP5 PUSH3 0x393 JUMP JUMPDEST DUP2 ADD PUSH1 0x20 DUP6 LT ISZERO PUSH3 0x4DD JUMPI DUP2 SWAP1 POP JUMPDEST PUSH3 0x4F5 PUSH3 0x4EC DUP6 PUSH3 0x393 JUMP JUMPDEST DUP4 ADD DUP3 PUSH3 0x487 JUMP JUMPDEST POP POP JUMPDEST POP POP POP JUMP JUMPDEST PUSH0 DUP3 DUP3 SHR SWAP1 POP SWAP3 SWAP2 POP POP JUMP JUMPDEST PUSH0 PUSH3 0x51A PUSH0 NOT DUP5 PUSH1 0x8 MUL PUSH3 0x4FD JUMP JUMPDEST NOT DUP1 DUP4 AND SWAP2 POP POP SWAP3 SWAP2 POP POP JUMP JUMPDEST PUSH0 PUSH3 0x534 DUP4 DUP4 PUSH3 0x509 JUMP JUMPDEST SWAP2 POP DUP3 PUSH1 0x2 MUL DUP3 OR SWAP1 POP SWAP3 SWAP2 POP POP JUMP JUMPDEST PUSH3 0x54F DUP3 PUSH3 0x316 JUMP JUMPDEST PUSH8 0xFFFFFFFFFFFFFFFF DUP2 GT ISZERO PUSH3 0x56B JUMPI PUSH3 0x56A PUSH3 0x156 JUMP JUMPDEST JUMPDEST PUSH3 0x577 DUP3 SLOAD PUSH3 0x34D JUMP JUMPDEST PUSH3 0x584 DUP3 DUP3 DUP6 PUSH3 0x4AD JUMP JUMPDEST PUSH0 PUSH1 0x20 SWAP1 POP PUSH1 0x1F DUP4 GT PUSH1 0x1 DUP2 EQ PUSH3 0x5BA JUMPI PUSH0 DUP5 ISZERO PUSH3 0x5A5 JUMPI DUP3 DUP8 ADD MLOAD SWAP1 POP JUMPDEST PUSH3 0x5B1 DUP6 DUP3 PUSH3 0x527 JUMP JUMPDEST DUP7 SSTORE POP PUSH3 0x620 JUMP JUMPDEST PUSH1 0x1F NOT DUP5 AND PUSH3 0x5CA DUP7 PUSH3 0x381 JUMP JUMPDEST PUSH0 JUMPDEST DUP3 DUP2 LT ISZERO PUSH3 0x5F3 JUMPI DUP5 DUP10 ADD MLOAD DUP3 SSTORE PUSH1 0x1 DUP3 ADD SWAP2 POP PUSH1 0x20 DUP6 ADD SWAP5 POP PUSH1 0x20 DUP2 ADD SWAP1 POP PUSH3 0x5CC JUMP JUMPDEST DUP7 DUP4 LT ISZERO PUSH3 0x613 JUMPI DUP5 DUP10 ADD MLOAD PUSH3 0x60F PUSH1 0x1F DUP10 AND DUP3 PUSH3 0x509 JUMP JUMPDEST DUP4 SSTORE POP JUMPDEST PUSH1 0x1 PUSH1 0x2 DUP9 MUL ADD DUP9 SSTORE POP POP POP JUMPDEST POP POP POP POP POP POP JUMP JUMPDEST PUSH2 0x8EC DUP1 PUSH3 0x636 PUSH0 CODECOPY PUSH0 RETURN INVALID PUSH1 0x80 PUSH1 0x40 MSTORE CALLVALUE DUP1 ISZERO PUSH2 0xF JUMPI PUSH0 DUP1 REVERT JUMPDEST POP PUSH1 0x4 CALLDATASIZE LT PUSH2 0x3F JUMPI PUSH0 CALLDATALOAD PUSH1 0xE0 SHR DUP1 PUSH4 0x23B8CA9F EQ PUSH2 0x43 JUMPI DUP1 PUSH4 0x54248841 EQ PUSH2 0x61 JUMPI DUP1 PUSH4 0xA46878FB EQ PUSH2 0x81 JUMPI JUMPDEST PUSH0 DUP1 REVERT JUMPDEST PUSH2 0x4B PUSH2 0x9D JUMP JUMPDEST PUSH1 0x40 MLOAD PUSH2 0x58 SWAP2 SWAP1 PUSH2 0x2BA JUMP JUMPDEST PUSH1 0x40 MLOAD DUP1 SWAP2 SUB SWAP1 RETURN JUMPDEST PUSH2 0x69 PUSH2 0xAF JUMP JUMPDEST PUSH1 0x40 MLOAD PUSH2 0x78 SWAP4 SWAP3 SWAP2 SWAP1 PUSH2 0x3B4 JUMP JUMPDEST PUSH1 0x40 MLOAD DUP1 SWAP2 SUB SWAP1 RETURN JUMPDEST PUSH2 0x9B PUSH1 0x4 DUP1 CALLDATASIZE SUB DUP2 ADD SWAP1 PUSH2 0x96 SWAP2 SWAP1 PUSH2 0x581 JUMP JUMPDEST PUSH2 0x16A JUMP JUMPDEST STOP JUMPDEST PUSH1 0x3 PUSH0 SWAP1 SLOAD SWAP1 PUSH2 0x100 EXP SWAP1 DIV PUSH1 0xFF AND DUP2 JUMP JUMPDEST PUSH0 DUP1 PUSH0 ADD SLOAD SWAP1 DUP1 PUSH1 0x1 ADD DUP1 SLOAD PUSH2 0xC4 SWAP1 PUSH2 0x61A JUMP JUMPDEST DUP1 PUSH1 0x1F ADD PUSH1 0x20 DUP1 SWAP2 DIV MUL PUSH1 0x20 ADD PUSH1 0x40 MLOAD SWAP1 DUP2 ADD PUSH1 0x40 MSTORE DUP1 SWAP3 SWAP2 SWAP1 DUP2 DUP2 MSTORE PUSH1 0x20 ADD DUP3 DUP1 SLOAD PUSH2 0xF0 SWAP1 PUSH2 0x61A JUMP JUMPDEST DUP1 ISZERO PUSH2 0x13B JUMPI DUP1 PUSH1 0x1F LT PUSH2 0x112 JUMPI PUSH2 0x100 DUP1 DUP4 SLOAD DIV MUL DUP4 MSTORE SWAP2 PUSH1 0x20 ADD SWAP2 PUSH2 0x13B JUMP JUMPDEST DUP3 ADD SWAP2 SWAP1 PUSH0 MSTORE PUSH1 0x20 PUSH0 KECCAK256 SWAP1 JUMPDEST DUP2 SLOAD DUP2 MSTORE SWAP1 PUSH1 0x1 ADD SWAP1 PUSH1 0x20 ADD DUP1 DUP4 GT PUSH2 0x11E JUMPI DUP3 SWAP1 SUB PUSH1 0x1F AND DUP3 ADD SWAP2 JUMPDEST POP POP POP POP POP SWAP1 DUP1 PUSH1 0x2 ADD PUSH0 SWAP1 SLOAD SWAP1 PUSH2 0x100 EXP SWAP1 DIV PUSH20 0xFFFFFFFFFFFFFFFFFFFFFFFFFFFFFFFFFFFFFFFF AND SWAP1 POP DUP4 JUMP JUMPDEST PUSH0 PUSH1 0x2 DUP2 GT ISZERO PUSH2 0x17D JUMPI PUSH2 0x17C PUSH2 0x247 JUMP JUMPDEST JUMPDEST PUSH1 0x3 PUSH0 SWAP1 SLOAD SWAP1 PUSH2 0x100 EXP SWAP1 DIV PUSH1 0xFF AND PUSH1 0x2 DUP2 GT ISZERO PUSH2 0x19E JUMPI PUSH2 0x19D PUSH2 0x247 JUMP JUMPDEST JUMPDEST SUB PUSH2 0x242 JUMPI PUSH0 PUSH1 0x40 MLOAD DUP1 PUSH1 0x60 ADD PUSH1 0x40 MSTORE DUP1 DUP6 DUP2 MSTORE PUSH1 0x20 ADD DUP5 DUP2 MSTORE PUSH1 0x20 ADD DUP4 PUSH20 0xFFFFFFFFFFFFFFFFFFFFFFFFFFFFFFFFFFFFFFFF AND DUP2 MSTORE POP SWAP1 POP DUP1 PUSH0 DUP1 DUP3 ADD MLOAD DUP2 PUSH0 ADD SSTORE PUSH1 0x20 DUP3 ADD MLOAD DUP2 PUSH1 0x1 ADD SWAP1 DUP2 PUSH2 0x1F6 SWAP2 SWAP1 PUSH2 0x7E7 JUMP JUMPDEST POP PUSH1 0x40 DUP3 ADD MLOAD DUP2 PUSH1 0x2 ADD PUSH0 PUSH2 0x100 EXP DUP2 SLOAD DUP2 PUSH20 0xFFFFFFFFFFFFFFFFFFFFFFFFFFFFFFFFFFFFFFFF MUL NOT AND SWAP1 DUP4 PUSH20 0xFFFFFFFFFFFFFFFFFFFFFFFFFFFFFFFFFFFFFFFF AND MUL OR SWAP1 SSTORE POP SWAP1 POP POP POP JUMPDEST POP POP POP JUMP JUMPDEST PUSH32 0x4E487B7100000000000000000000000000000000000000000000000000000000 PUSH0 MSTORE PUSH1 0x21 PUSH1 0x4 MSTORE PUSH1 0x24 PUSH0 REVERT JUMPDEST PUSH1 0x3 DUP2 LT PUSH2 0x285 JUMPI PUSH2 0x284 PUSH2 0x247 JUMP JUMPDEST JUMPDEST POP JUMP JUMPDEST PUSH0 DUP2 SWAP1 POP PUSH2 0x295 DUP3 PUSH2 0x274 JUMP JUMPDEST SWAP2 SWAP1 POP JUMP JUMPDEST PUSH0 PUSH2 0x2A4 DUP3 PUSH2 0x288 JUMP JUMPDEST SWAP1 POP SWAP2 SWAP1 POP JUMP JUMPDEST PUSH2 0x2B4 DUP2 PUSH2 0x29A JUMP JUMPDEST DUP3 MSTORE POP POP JUMP JUMPDEST PUSH0 PUSH1 0x20 DUP3 ADD SWAP1 POP PUSH2 0x2CD PUSH0 DUP4 ADD DUP5 PUSH2 0x2AB JUMP JUMPDEST SWAP3 SWAP2 POP POP JUMP JUMPDEST PUSH0 DUP2 SWAP1 POP SWAP2 SWAP1 POP JUMP JUMPDEST PUSH2 0x2E5 DUP2 PUSH2 0x2D3 JUMP JUMPDEST DUP3 MSTORE POP POP JUMP JUMPDEST PUSH0 DUP2 MLOAD SWAP1 POP SWAP2 SWAP1 POP JUMP JUMPDEST PUSH0 DUP3 DUP3 MSTORE PUSH1 0x20 DUP3 ADD SWAP1 POP SWAP3 SWAP2 POP POP JUMP JUMPDEST PUSH0 JUMPDEST DUP4 DUP2 LT ISZERO PUSH2 0x322 JUMPI DUP1 DUP3 ADD MLOAD DUP2 DUP5 ADD MSTORE PUSH1 0x20 DUP2 ADD SWAP1 POP PUSH2 0x307 JUMP JUMPDEST PUSH0 DUP5 DUP5 ADD MSTORE POP POP POP POP JUMP JUMPDEST PUSH0 PUSH1 0x1F NOT PUSH1 0x1F DUP4 ADD AND SWAP1 POP SWAP2 SWAP1 POP JUMP JUMPDEST PUSH0 PUSH2 0x347 DUP3 PUSH2 0x2EB JUMP JUMPDEST PUSH2 0x351 DUP2 DUP6 PUSH2 0x2F5 JUMP JUMPDEST SWAP4 POP PUSH2 0x361 DUP2 DUP6 PUSH1 0x20 DUP7 ADD PUSH2 0x305 JUMP JUMPDEST PUSH2 0x36A DUP2 PUSH2 0x32D JUMP JUMPDEST DUP5 ADD SWAP2 POP POP SWAP3 SWAP2 POP POP JUMP JUMPDEST PUSH0 PUSH20 0xFFFFFFFFFFFFFFFFFFFFFFFFFFFFFFFFFFFFFFFF DUP3 AND SWAP1 POP SWAP2 SWAP1 POP JUMP JUMPDEST PUSH0 PUSH2 0x39E DUP3 PUSH2 0x375 JUMP JUMPDEST SWAP1 POP SWAP2 SWAP1 POP JUMP JUMPDEST PUSH2 0x3AE DUP2 PUSH2 0x394 JUMP JUMPDEST DUP3 MSTORE POP POP JUMP JUMPDEST PUSH0 PUSH1 0x60 DUP3 ADD SWAP1 POP PUSH2 0x3C7 PUSH0 DUP4 ADD DUP7 PUSH2 0x2DC JUMP JUMPDEST DUP2 DUP2 SUB PUSH1 0x20 DUP4 ADD MSTORE PUSH2 0x3D9 DUP2 DUP6 PUSH2 0x33D JUMP JUMPDEST SWAP1 POP PUSH2 0x3E8 PUSH1 0x40 DUP4 ADD DUP5 PUSH2 0x3A5 JUMP JUMPDEST SWAP5 SWAP4 POP POP POP POP JUMP JUMPDEST PUSH0 PUSH1 0x40 MLOAD SWAP1 POP SWAP1 JUMP JUMPDEST PUSH0 DUP1 REVERT JUMPDEST PUSH0 DUP1 REVERT JUMPDEST PUSH2 0x40A DUP2 PUSH2 0x2D3 JUMP JUMPDEST DUP2 EQ PUSH2 0x414 JUMPI PUSH0 DUP1 REVERT JUMPDEST POP JUMP JUMPDEST PUSH0 DUP2 CALLDATALOAD SWAP1 POP PUSH2 0x425 DUP2 PUSH2 0x401 JUMP JUMPDEST SWAP3 SWAP2 POP POP JUMP JUMPDEST PUSH0 DUP1 REVERT JUMPDEST PUSH0 DUP1 REVERT JUMPDEST PUSH32 0x4E487B7100000000000000000000000000000000000000000000000000000000 PUSH0 MSTORE PUSH1 0x41 PUSH1 0x4 MSTORE PUSH1 0x24 PUSH0 REVERT JUMPDEST PUSH2 0x469 DUP3 PUSH2 0x32D JUMP JUMPDEST DUP2 ADD DUP2 DUP2 LT PUSH8 0xFFFFFFFFFFFFFFFF DUP3 GT OR ISZERO PUSH2 0x488 JUMPI PUSH2 0x487 PUSH2 0x433 JUMP JUMPDEST JUMPDEST DUP1 PUSH1 0x40 MSTORE POP POP POP JUMP JUMPDEST PUSH0 PUSH2 0x49A PUSH2 0x3F0 JUMP JUMPDEST SWAP1 POP PUSH2 0x4A6 DUP3 DUP3 PUSH2 0x460 JUMP JUMPDEST SWAP2 SWAP1 POP JUMP JUMPDEST PUSH0 PUSH8 0xFFFFFFFFFFFFFFFF DUP3 GT ISZERO PUSH2 0x4C5 JUMPI PUSH2 0x4C4 PUSH2 0x433 JUMP JUMPDEST JUMPDEST PUSH2 0x4CE DUP3 PUSH2 0x32D JUMP JUMPDEST SWAP1 POP PUSH1 0x20 DUP2 ADD SWAP1 POP SWAP2 SWAP1 POP JUMP JUMPDEST DUP3 DUP2 DUP4 CALLDATACOPY PUSH0 DUP4 DUP4 ADD MSTORE POP POP POP JUMP JUMPDEST PUSH0 PUSH2 0x4FB PUSH2 0x4F6 DUP5 PUSH2 0x4AB JUMP JUMPDEST PUSH2 0x491 JUMP JUMPDEST SWAP1 POP DUP3 DUP2 MSTORE PUSH1 0x20 DUP2 ADD DUP5 DUP5 DUP5 ADD GT ISZERO PUSH2 0x517 JUMPI PUSH2 0x516 PUSH2 0x42F JUMP JUMPDEST JUMPDEST PUSH2 0x522 DUP5 DUP3 DUP6 PUSH2 0x4DB JUMP JUMPDEST POP SWAP4 SWAP3 POP POP POP JUMP JUMPDEST PUSH0 DUP3 PUSH1 0x1F DUP4 ADD SLT PUSH2 0x53E JUMPI PUSH2 0x53D PUSH2 0x42B JUMP JUMPDEST JUMPDEST DUP2 CALLDATALOAD PUSH2 0x54E DUP5 DUP3 PUSH1 0x20 DUP7 ADD PUSH2 0x4E9 JUMP JUMPDEST SWAP2 POP POP SWAP3 SWAP2 POP POP JUMP JUMPDEST PUSH2 0x560 DUP2 PUSH2 0x394 JUMP JUMPDEST DUP2 EQ PUSH2 0x56A JUMPI PUSH0 DUP1 REVERT JUMPDEST POP JUMP JUMPDEST PUSH0 DUP2 CALLDATALOAD SWAP1 POP PUSH2 0x57B DUP2 PUSH2 0x557 JUMP JUMPDEST SWAP3 SWAP2 POP POP JUMP JUMPDEST PUSH0 DUP1 PUSH0 PUSH1 0x60 DUP5 DUP7 SUB SLT ISZERO PUSH2 0x598 JUMPI PUSH2 0x597 PUSH2 0x3F9 JUMP JUMPDEST JUMPDEST PUSH0 PUSH2 0x5A5 DUP7 DUP3 DUP8 ADD PUSH2 0x417 JUMP JUMPDEST SWAP4 POP POP PUSH1 0x20 DUP5 ADD CALLDATALOAD PUSH8 0xFFFFFFFFFFFFFFFF DUP2 GT ISZERO PUSH2 0x5C6 JUMPI PUSH2 0x5C5 PUSH2 0x3FD JUMP JUMPDEST JUMPDEST PUSH2 0x5D2 DUP7 DUP3 DUP8 ADD PUSH2 0x52A JUMP JUMPDEST SWAP3 POP POP PUSH1 0x40 PUSH2 0x5E3 DUP7 DUP3 DUP8 ADD PUSH2 0x56D JUMP JUMPDEST SWAP2 POP POP SWAP3 POP SWAP3 POP SWAP3 JUMP JUMPDEST PUSH32 0x4E487B7100000000000000000000000000000000000000000000000000000000 PUSH0 MSTORE PUSH1 0x22 PUSH1 0x4 MSTORE PUSH1 0x24 PUSH0 REVERT JUMPDEST PUSH0 PUSH1 0x2 DUP3 DIV SWAP1 POP PUSH1 0x1 DUP3 AND DUP1 PUSH2 0x631 JUMPI PUSH1 0x7F DUP3 AND SWAP2 POP JUMPDEST PUSH1 0x20 DUP3 LT DUP2 SUB PUSH2 0x644 JUMPI PUSH2 0x643 PUSH2 0x5ED JUMP JUMPDEST JUMPDEST POP SWAP2 SWAP1 POP JUMP JUMPDEST PUSH0 DUP2 SWAP1 POP DUP2 PUSH0 MSTORE PUSH1 0x20 PUSH0 KECCAK256 SWAP1 POP SWAP2 SWAP1 POP JUMP JUMPDEST PUSH0 PUSH1 0x20 PUSH1 0x1F DUP4 ADD DIV SWAP1 POP SWAP2 SWAP1 POP JUMP JUMPDEST PUSH0 DUP3 DUP3 SHL SWAP1 POP SWAP3 SWAP2 POP POP JUMP JUMPDEST PUSH0 PUSH1 0x8 DUP4 MUL PUSH2 0x6A6 PUSH32 0xFFFFFFFFFFFFFFFFFFFFFFFFFFFFFFFFFFFFFFFFFFFFFFFFFFFFFFFFFFFFFFFF DUP3 PUSH2 0x66B JUMP JUMPDEST PUSH2 0x6B0 DUP7 DUP4 PUSH2 0x66B JUMP JUMPDEST SWAP6 POP DUP1 NOT DUP5 AND SWAP4 POP DUP1 DUP7 AND DUP5 OR SWAP3 POP POP POP SWAP4 SWAP3 POP POP POP JUMP JUMPDEST PUSH0 DUP2 SWAP1 POP SWAP2 SWAP1 POP JUMP JUMPDEST PUSH0 PUSH2 0x6EB PUSH2 0x6E6 PUSH2 0x6E1 DUP5 PUSH2 0x2D3 JUMP JUMPDEST PUSH2 0x6C8 JUMP JUMPDEST PUSH2 0x2D3 JUMP JUMPDEST SWAP1 POP SWAP2 SWAP1 POP JUMP JUMPDEST PUSH0 DUP2 SWAP1 POP SWAP2 SWAP1 POP JUMP JUMPDEST PUSH2 0x704 DUP4 PUSH2 0x6D1 JUMP JUMPDEST PUSH2 0x718 PUSH2 0x710 DUP3 PUSH2 0x6F2 JUMP JUMPDEST DUP5 DUP5 SLOAD PUSH2 0x677 JUMP JUMPDEST DUP3 SSTORE POP POP POP POP JUMP JUMPDEST PUSH0 SWAP1 JUMP JUMPDEST PUSH2 0x72C PUSH2 0x720 JUMP JUMPDEST PUSH2 0x737 DUP2 DUP5 DUP5 PUSH2 0x6FB JUMP JUMPDEST POP POP POP JUMP JUMPDEST JUMPDEST DUP2 DUP2 LT ISZERO PUSH2 0x75A JUMPI PUSH2 0x74F PUSH0 DUP3 PUSH2 0x724 JUMP JUMPDEST PUSH1 0x1 DUP2 ADD SWAP1 POP PUSH2 0x73D JUMP JUMPDEST POP POP JUMP JUMPDEST PUSH1 0x1F DUP3 GT ISZERO PUSH2 0x79F JUMPI PUSH2 0x770 DUP2 PUSH2 0x64A JUMP JUMPDEST PUSH2 0x779 DUP5 PUSH2 0x65C JUMP JUMPDEST DUP2 ADD PUSH1 0x20 DUP6 LT ISZERO PUSH2 0x788 JUMPI DUP2 SWAP1 POP JUMPDEST PUSH2 0x79C PUSH2 0x794 DUP6 PUSH2 0x65C JUMP JUMPDEST DUP4 ADD DUP3 PUSH2 0x73C JUMP JUMPDEST POP POP JUMPDEST POP POP POP JUMP JUMPDEST PUSH0 DUP3 DUP3 SHR SWAP1 POP SWAP3 SWAP2 POP POP JUMP JUMPDEST PUSH0 PUSH2 0x7BF PUSH0 NOT DUP5 PUSH1 0x8 MUL PUSH2 0x7A4 JUMP JUMPDEST NOT DUP1 DUP4 AND SWAP2 POP POP SWAP3 SWAP2 POP POP JUMP JUMPDEST PUSH0 PUSH2 0x7D7 DUP4 DUP4 PUSH2 0x7B0 JUMP JUMPDEST SWAP2 POP DUP3 PUSH1 0x2 MUL DUP3 OR SWAP1 POP SWAP3 SWAP2 POP POP JUMP JUMPDEST PUSH2 0x7F0 DUP3 PUSH2 0x2EB JUMP JUMPDEST PUSH8 0xFFFFFFFFFFFFFFFF DUP2 GT ISZERO PUSH2 0x809 JUMPI PUSH2 0x808 PUSH2 0x433 JUMP JUMPDEST JUMPDEST PUSH2 0x813 DUP3 SLOAD PUSH2 0x61A JUMP JUMPDEST PUSH2 0x81E DUP3 DUP3 DUP6 PUSH2 0x75E JUMP JUMPDEST PUSH0 PUSH1 0x20 SWAP1 POP PUSH1 0x1F DUP4 GT PUSH1 0x1 DUP2 EQ PUSH2 0x84F JUMPI PUSH0 DUP5 ISZERO PUSH2 0x83D JUMPI DUP3 DUP8 ADD MLOAD SWAP1 POP JUMPDEST PUSH2 0x847 DUP6 DUP3 PUSH2 0x7CC JUMP JUMPDEST DUP7 SSTORE POP PUSH2 0x8AE JUMP JUMPDEST PUSH1 0x1F NOT DUP5 AND PUSH2 0x85D DUP7 PUSH2 0x64A JUMP JUMPDEST PUSH0 JUMPDEST DUP3 DUP2 LT ISZERO PUSH2 0x884 JUMPI DUP5 DUP10 ADD MLOAD DUP3 SSTORE PUSH1 0x1 DUP3 ADD SWAP2 POP PUSH1 0x20 DUP6 ADD SWAP5 POP PUSH1 0x20 DUP2 ADD SWAP1 POP PUSH2 0x85F JUMP JUMPDEST DUP7 DUP4 LT ISZERO PUSH2 0x8A1 JUMPI DUP5 DUP10 ADD MLOAD PUSH2 0x89D PUSH1 0x1F DUP10 AND DUP3 PUSH2 0x7B0 JUMP JUMPDEST DUP4 SSTORE POP JUMPDEST PUSH1 0x1 PUSH1 0x2 DUP9 MUL ADD DUP9 SSTORE POP POP POP JUMPDEST POP POP POP POP POP POP JUMP INVALID LOG2 PUSH5 0x6970667358 0x22 SLT KECCAK256 0x5C MLOAD SDIV CALLER PUSH8 0x4323D473FAF89715 0xAB PUSH7 0x10A5E283BB07A4 PUSH22 0xE628811ED4A756260B64736F6C634300081600330000 "
				},
				"gasEstimates": {
					"creation": {
						"codeDepositCost": "456800",
						"executionCost": "infinite",
						"totalCost": "infinite"
					},
					"external": {
						"academyInstructor()": "infinite",
						"academyState()": "2532",
						"changeInstructor(uint256,string,address)": "infinite"
					}
				},
				"methodIdentifiers": {
					"academyInstructor()": "54248841",
					"academyState()": "23b8ca9f",
					"changeInstructor(uint256,string,address)": "a46878fb"
				}
			},
			"storageLayout": {
				"storage": [
					{
						"astId": 11,
						"contract": "struct.sol:Academy",
						"label": "academyInstructor",
						"offset": 0,
						"slot": "0",
						"type": "t_struct(Instructor)8_storage"
					},
					{
						"astId": 20,
						"contract": "struct.sol:Academy",
						"label": "academyState",
						"offset": 0,
						"slot": "3",
						"type": "t_enum(State)15"
					}
				],
				"types": {
					"t_address": {
						"encoding": "inplace",
						"label": "address",
						"numberOfBytes": "20"
					},
					"t_enum(State)15": {
						"encoding": "inplace",
						"label": "enum Academy.State",
						"numberOfBytes": "1"
					},
					"t_string_storage": {
						"encoding": "bytes",
						"label": "string",
						"numberOfBytes": "32"
					},
					"t_struct(Instructor)8_storage": {
						"encoding": "inplace",
						"label": "struct Instructor",
						"members": [
							{
								"astId": 3,
								"contract": "struct.sol:Academy",
								"label": "age",
								"offset": 0,
								"slot": "0",
								"type": "t_uint256"
							},
							{
								"astId": 5,
								"contract": "struct.sol:Academy",
								"label": "name",
								"offset": 0,
								"slot": "1",
								"type": "t_string_storage"
							},
							{
								"astId": 7,
								"contract": "struct.sol:Academy",
								"label": "addr",
								"offset": 0,
								"slot": "2",
								"type": "t_address"
							}
						],
						"numberOfBytes": "96"
					},
					"t_uint256": {
						"encoding": "inplace",
						"label": "uint256",
						"numberOfBytes": "32"
					}
				}
			},
			"userdoc": {
				"kind": "user",
				"methods": {},
				"version": 1
			}
		}
	}
}