{
	"int_bool_types.sol": {
		"Property": {
			"abi": [
				{
					"inputs": [],
					"name": "sold",
					"outputs": [
						{
							"internalType": "bool",
							"name": "",
							"type": "bool"
						}
					],
					"stateMutability": "view",
					"type": "function"
				},
				{
					"inputs": [],
					"name": "x",
					"outputs": [
						{
							"internalType": "uint8",
							"name": "",
							"type": "uint8"
						}
					],
					"stateMutability": "view",
					"type": "function"
				},
				{
					"inputs": [],
					"name": "y",
					"outputs": [
						{
							"internalType": "int8",
							"name": "",
							"type": "int8"
						}
					],
					"stateMutability": "view",
					"type": "function"
				}
			],
			"devdoc": {
				"kind": "dev",
				"methods": {},
				"version": 1
			},
			"evm": {
				"assembly": "    /* \"int_bool_types.sol\":69:163  contract Property {... */\n  mstore(0x40, 0x80)\n    /* \"int_bool_types.sol\":132:135  255 */\n  0xff\n    /* \"int_bool_types.sol\":115:135  uint8 public x = 255 */\n  0x00\n  exp(0x0100, 0x01)\n  dup2\n  sload\n  dup2\n  0xff\n  mul\n  not\n  and\n  swap1\n  dup4\n  0xff\n  and\n  mul\n  or\n  swap1\n  sstore\n  pop\n    /* \"int_bool_types.sol\":157:160  -10 */\n  0xfffffffffffffffffffffffffffffffffffffffffffffffffffffffffffffff6\n    /* \"int_bool_types.sol\":141:160  int8 public y = -10 */\n  0x00\n  exp(0x0100, 0x02)\n  dup2\n  sload\n  dup2\n  0xff\n  mul\n  not\n  and\n  swap1\n  dup4\n  0x00\n  signextend\n  0xff\n  and\n  mul\n  or\n  swap1\n  sstore\n  pop\n    /* \"int_bool_types.sol\":69:163  contract Property {... */\n  callvalue\n  dup1\n  iszero\n  tag_1\n  jumpi\n  0x00\n  dup1\n  revert\ntag_1:\n  pop\n  dataSize(sub_0)\n  dup1\n  dataOffset(sub_0)\n  0x00\n  codecopy\n  0x00\n  return\nstop\n\nsub_0: assembly {\n        /* \"int_bool_types.sol\":69:163  contract Property {... */\n      mstore(0x40, 0x80)\n      callvalue\n      dup1\n      iszero\n      tag_1\n      jumpi\n      0x00\n      dup1\n      revert\n    tag_1:\n      pop\n      jumpi(tag_2, lt(calldatasize, 0x04))\n      shr(0xe0, calldataload(0x00))\n      dup1\n      0x02c7e7af\n      eq\n      tag_3\n      jumpi\n      dup1\n      0x0c55699c\n      eq\n      tag_4\n      jumpi\n      dup1\n      0xa56dfe4a\n      eq\n      tag_5\n      jumpi\n    tag_2:\n      0x00\n      dup1\n      revert\n        /* \"int_bool_types.sol\":93:109  bool public sold */\n    tag_3:\n      tag_6\n      tag_7\n      jump\t// in\n    tag_6:\n      mload(0x40)\n      tag_8\n      swap2\n      swap1\n      tag_9\n      jump\t// in\n    tag_8:\n      mload(0x40)\n      dup1\n      swap2\n      sub\n      swap1\n      return\n        /* \"int_bool_types.sol\":115:135  uint8 public x = 255 */\n    tag_4:\n      tag_10\n      tag_11\n      jump\t// in\n    tag_10:\n      mload(0x40)\n      tag_12\n      swap2\n      swap1\n      tag_13\n      jump\t// in\n    tag_12:\n      mload(0x40)\n      dup1\n      swap2\n      sub\n      swap1\n      return\n        /* \"int_bool_types.sol\":141:160  int8 public y = -10 */\n    tag_5:\n      tag_14\n      tag_15\n      jump\t// in\n    tag_14:\n      mload(0x40)\n      tag_16\n      swap2\n      swap1\n      tag_17\n      jump\t// in\n    tag_16:\n      mload(0x40)\n      dup1\n      swap2\n      sub\n      swap1\n      return\n        /* \"int_bool_types.sol\":93:109  bool public sold */\n    tag_7:\n      0x00\n      dup1\n      sload\n      swap1\n      0x0100\n      exp\n      swap1\n      div\n      0xff\n      and\n      dup2\n      jump\t// out\n        /* \"int_bool_types.sol\":115:135  uint8 public x = 255 */\n    tag_11:\n      0x00\n      0x01\n      swap1\n      sload\n      swap1\n      0x0100\n      exp\n      swap1\n      div\n      0xff\n      and\n      dup2\n      jump\t// out\n        /* \"int_bool_types.sol\":141:160  int8 public y = -10 */\n    tag_15:\n      0x00\n      0x02\n      swap1\n      sload\n      swap1\n      0x0100\n      exp\n      swap1\n      div\n      0x00\n      signextend\n      dup2\n      jump\t// out\n        /* \"#utility.yul\":7:116   */\n    tag_19:\n        /* \"#utility.yul\":88:109   */\n      tag_21\n        /* \"#utility.yul\":103:108   */\n      dup2\n        /* \"#utility.yul\":88:109   */\n      tag_22\n      jump\t// in\n    tag_21:\n        /* \"#utility.yul\":83:86   */\n      dup3\n        /* \"#utility.yul\":76:110   */\n      mstore\n        /* \"#utility.yul\":66:116   */\n      pop\n      pop\n      jump\t// out\n        /* \"#utility.yul\":122:231   */\n    tag_23:\n        /* \"#utility.yul\":203:224   */\n      tag_25\n        /* \"#utility.yul\":218:223   */\n      dup2\n        /* \"#utility.yul\":203:224   */\n      tag_26\n      jump\t// in\n    tag_25:\n        /* \"#utility.yul\":198:201   */\n      dup3\n        /* \"#utility.yul\":191:225   */\n      mstore\n        /* \"#utility.yul\":181:231   */\n      pop\n      pop\n      jump\t// out\n        /* \"#utility.yul\":237:349   */\n    tag_27:\n        /* \"#utility.yul\":320:342   */\n      tag_29\n        /* \"#utility.yul\":336:341   */\n      dup2\n        /* \"#utility.yul\":320:342   */\n      tag_30\n      jump\t// in\n    tag_29:\n        /* \"#utility.yul\":315:318   */\n      dup3\n        /* \"#utility.yul\":308:343   */\n      mstore\n        /* \"#utility.yul\":298:349   */\n      pop\n      pop\n      jump\t// out\n        /* \"#utility.yul\":355:565   */\n    tag_9:\n      0x00\n        /* \"#utility.yul\":480:482   */\n      0x20\n        /* \"#utility.yul\":469:478   */\n      dup3\n        /* \"#utility.yul\":465:483   */\n      add\n        /* \"#utility.yul\":457:483   */\n      swap1\n      pop\n        /* \"#utility.yul\":493:558   */\n      tag_32\n        /* \"#utility.yul\":555:556   */\n      0x00\n        /* \"#utility.yul\":544:553   */\n      dup4\n        /* \"#utility.yul\":540:557   */\n      add\n        /* \"#utility.yul\":531:537   */\n      dup5\n        /* \"#utility.yul\":493:558   */\n      tag_19\n      jump\t// in\n    tag_32:\n        /* \"#utility.yul\":447:565   */\n      swap3\n      swap2\n      pop\n      pop\n      jump\t// out\n        /* \"#utility.yul\":571:781   */\n    tag_17:\n      0x00\n        /* \"#utility.yul\":696:698   */\n      0x20\n        /* \"#utility.yul\":685:694   */\n      dup3\n        /* \"#utility.yul\":681:699   */\n      add\n        /* \"#utility.yul\":673:699   */\n      swap1\n      pop\n        /* \"#utility.yul\":709:774   */\n      tag_34\n        /* \"#utility.yul\":771:772   */\n      0x00\n        /* \"#utility.yul\":760:769   */\n      dup4\n        /* \"#utility.yul\":756:773   */\n      add\n        /* \"#utility.yul\":747:753   */\n      dup5\n        /* \"#utility.yul\":709:774   */\n      tag_23\n      jump\t// in\n    tag_34:\n        /* \"#utility.yul\":663:781   */\n      swap3\n      swap2\n      pop\n      pop\n      jump\t// out\n        /* \"#utility.yul\":787:1001   */\n    tag_13:\n      0x00\n        /* \"#utility.yul\":914:916   */\n      0x20\n        /* \"#utility.yul\":903:912   */\n      dup3\n        /* \"#utility.yul\":899:917   */\n      add\n        /* \"#utility.yul\":891:917   */\n      swap1\n      pop\n        /* \"#utility.yul\":927:994   */\n      tag_36\n        /* \"#utility.yul\":991:992   */\n      0x00\n        /* \"#utility.yul\":980:989   */\n      dup4\n        /* \"#utility.yul\":976:993   */\n      add\n        /* \"#utility.yul\":967:973   */\n      dup5\n        /* \"#utility.yul\":927:994   */\n      tag_27\n      jump\t// in\n    tag_36:\n        /* \"#utility.yul\":881:1001   */\n      swap3\n      swap2\n      pop\n      pop\n      jump\t// out\n        /* \"#utility.yul\":1007:1097   */\n    tag_22:\n      0x00\n        /* \"#utility.yul\":1084:1089   */\n      dup2\n        /* \"#utility.yul\":1077:1090   */\n      iszero\n        /* \"#utility.yul\":1070:1091   */\n      iszero\n        /* \"#utility.yul\":1059:1091   */\n      swap1\n      pop\n        /* \"#utility.yul\":1049:1097   */\n      swap2\n      swap1\n      pop\n      jump\t// out\n        /* \"#utility.yul\":1103:1192   */\n    tag_26:\n      0x00\n        /* \"#utility.yul\":1180:1185   */\n      dup2\n        /* \"#utility.yul\":1177:1178   */\n      0x00\n        /* \"#utility.yul\":1166:1186   */\n      signextend\n        /* \"#utility.yul\":1155:1186   */\n      swap1\n      pop\n        /* \"#utility.yul\":1145:1192   */\n      swap2\n      swap1\n      pop\n      jump\t// out\n        /* \"#utility.yul\":1198:1284   */\n    tag_30:\n      0x00\n        /* \"#utility.yul\":1273:1277   */\n      0xff\n        /* \"#utility.yul\":1266:1271   */\n      dup3\n        /* \"#utility.yul\":1262:1278   */\n      and\n        /* \"#utility.yul\":1251:1278   */\n      swap1\n      pop\n        /* \"#utility.yul\":1241:1284   */\n      swap2\n      swap1\n      pop\n      jump\t// out\n\n    auxdata: 0xa2646970667358221220491c790e21d5b956b238420f9e5cf07dbaeaa36c3559a4711d3ba4cf820ee5c964736f6c63430008000033\n}\n",
				"bytecode": {
					"linkReferences": {},
					"object": "608060405260ff600060016101000a81548160ff021916908360ff1602179055507ffffffffffffffffffffffffffffffffffffffffffffffffffffffffffffffff6600060026101000a81548160ff021916908360000b60ff16021790555034801561006a57600080fd5b506101b18061007a6000396000f3fe608060405234801561001057600080fd5b50600436106100415760003560e01c806302c7e7af146100465780630c55699c14610064578063a56dfe4a14610082575b600080fd5b61004e6100a0565b60405161005b9190610104565b60405180910390f35b61006c6100b1565b604051610079919061013a565b60405180910390f35b61008a6100c4565b604051610097919061011f565b60405180910390f35b60008054906101000a900460ff1681565b600060019054906101000a900460ff1681565b600060029054906101000a900460000b81565b6100e081610155565b82525050565b6100ef81610161565b82525050565b6100fe8161016e565b82525050565b600060208201905061011960008301846100d7565b92915050565b600060208201905061013460008301846100e6565b92915050565b600060208201905061014f60008301846100f5565b92915050565b60008115159050919050565b60008160000b9050919050565b600060ff8216905091905056fea2646970667358221220491c790e21d5b956b238420f9e5cf07dbaeaa36c3559a4711d3ba4cf820ee5c964736f6c63430008000033",
					"opcodes": "PUSH1 0x80 PUSH1 0x40 MSTORE PUSH1 0xFF PUSH1 0x0 PUSH1 0x1 PUSH2 0x100 EXP DUP2 SLOAD DUP2 PUSH1 0xFF MUL NOT AND SWAP1 DUP4 PUSH1 0xFF AND MUL OR SWAP1 SSTORE POP PUSH32 0xFFFFFFFFFFFFFFFFFFFFFFFFFFFFFFFFFFFFFFFFFFFFFFFFFFFFFFFFFFFFFFF6 PUSH1 0x0 PUSH1 0x2 PUSH2 0x100 EXP DUP2 SLOAD DUP2 PUSH1 0xFF MUL NOT AND SWAP1 DUP4 PUSH1 0x0 SIGNEXTEND PUSH1 0xFF AND MUL OR SWAP1 SSTORE POP CALLVALUE DUP1 ISZERO PUSH2 0x6A JUMPI PUSH1 0x0 DUP1 REVERT JUMPDEST POP PUSH2 0x1B1 DUP1 PUSH2 0x7A PUSH1 0x0 CODECOPY PUSH1 0x0 RETURN INVALID PUSH1 0x80 PUSH1 0x40 MSTORE CALLVALUE DUP1 ISZERO PUSH2 0x10 JUMPI PUSH1 0x0 DUP1 REVERT JUMPDEST POP PUSH1 0x4 CALLDATASIZE LT PUSH2 0x41 JUMPI PUSH1 0x0 CALLDATALOAD PUSH1 0xE0 SHR DUP1 PUSH4 0x2C7E7AF EQ PUSH2 0x46 JUMPI DUP1 PUSH4 0xC55699C EQ PUSH2 0x64 JUMPI DUP1 PUSH4 0xA56DFE4A EQ PUSH2 0x82 JUMPI JUMPDEST PUSH1 0x0 DUP1 REVERT JUMPDEST PUSH2 0x4E PUSH2 0xA0 JUMP JUMPDEST PUSH1 0x40 MLOAD PUSH2 0x5B SWAP2 SWAP1 PUSH2 0x104 JUMP JUMPDEST PUSH1 0x40 MLOAD DUP1 SWAP2 SUB SWAP1 RETURN JUMPDEST PUSH2 0x6C PUSH2 0xB1 JUMP JUMPDEST PUSH1 0x40 MLOAD PUSH2 0x79 SWAP2 SWAP1 PUSH2 0x13A JUMP JUMPDEST PUSH1 0x40 MLOAD DUP1 SWAP2 SUB SWAP1 RETURN JUMPDEST PUSH2 0x8A PUSH2 0xC4 JUMP JUMPDEST PUSH1 0x40 MLOAD PUSH2 0x97 SWAP2 SWAP1 PUSH2 0x11F JUMP JUMPDEST PUSH1 0x40 MLOAD DUP1 SWAP2 SUB SWAP1 RETURN JUMPDEST PUSH1 0x0 DUP1 SLOAD SWAP1 PUSH2 0x100 EXP SWAP1 DIV PUSH1 0xFF AND DUP2 JUMP JUMPDEST PUSH1 0x0 PUSH1 0x1 SWAP1 SLOAD SWAP1 PUSH2 0x100 EXP SWAP1 DIV PUSH1 0xFF AND DUP2 JUMP JUMPDEST PUSH1 0x0 PUSH1 0x2 SWAP1 SLOAD SWAP1 PUSH2 0x100 EXP SWAP1 DIV PUSH1 0x0 SIGNEXTEND DUP2 JUMP JUMPDEST PUSH2 0xE0 DUP2 PUSH2 0x155 JUMP JUMPDEST DUP3 MSTORE POP POP JUMP JUMPDEST PUSH2 0xEF DUP2 PUSH2 0x161 JUMP JUMPDEST DUP3 MSTORE POP POP JUMP JUMPDEST PUSH2 0xFE DUP2 PUSH2 0x16E JUMP JUMPDEST DUP3 MSTORE POP POP JUMP JUMPDEST PUSH1 0x0 PUSH1 0x20 DUP3 ADD SWAP1 POP PUSH2 0x119 PUSH1 0x0 DUP4 ADD DUP5 PUSH2 0xD7 JUMP JUMPDEST SWAP3 SWAP2 POP POP JUMP JUMPDEST PUSH1 0x0 PUSH1 0x20 DUP3 ADD SWAP1 POP PUSH2 0x134 PUSH1 0x0 DUP4 ADD DUP5 PUSH2 0xE6 JUMP JUMPDEST SWAP3 SWAP2 POP POP JUMP JUMPDEST PUSH1 0x0 PUSH1 0x20 DUP3 ADD SWAP1 POP PUSH2 0x14F PUSH1 0x0 DUP4 ADD DUP5 PUSH2 0xF5 JUMP JUMPDEST SWAP3 SWAP2 POP POP JUMP JUMPDEST PUSH1 0x0 DUP2 ISZERO ISZERO SWAP1 POP SWAP2 SWAP1 POP JUMP JUMPDEST PUSH1 0x0 DUP2 PUSH1 0x0 SIGNEXTEND SWAP1 POP SWAP2 SWAP1 POP JUMP JUMPDEST PUSH1 0x0 PUSH1 0xFF DUP3 AND SWAP1 POP SWAP2 SWAP1 POP JUMP INVALID LOG2 PUSH5 0x6970667358 0x22 SLT KECCAK256 0x49 SHR PUSH26 0xE21D5B956B238420F9E5CF07DBAEAA36C3559A4711D3BA4CF82 0xE 0xE5 0xC9 PUSH5 0x736F6C6343 STOP ADDMOD STOP STOP CALLER "
				},
				"gasEstimates": {
					"creation": {
						"codeDepositCost": "86600",
						"executionCost": "41977",
						"totalCost": "128577"
					},
					"external": {
						"sold()": "1146",
						"x()": "1221",
						"y()": "1247"
					}
				},
				"methodIdentifiers": {
					"sold()": "02c7e7af",
					"x()": "0c55699c",
					"y()": "a56dfe4a"
				}
			},
			"storageLayout": {
				"storage": [
					{
						"astId": 3,
						"contract": "int_bool_types.sol:Property",
						"label": "sold",
						"offset": 0,
						"slot": "0",
						"type": "t_bool"
					},
					{
						"astId": 6,
						"contract": "int_bool_types.sol:Property",
						"label": "x",
						"offset": 1,
						"slot": "0",
						"type": "t_uint8"
					},
					{
						"astId": 10,
						"contract": "int_bool_types.sol:Property",
						"label": "y",
						"offset": 2,
						"slot": "0",
						"type": "t_int8"
					}
				],
				"types": {
					"t_bool": {
						"encoding": "inplace",
						"label": "bool",
						"numberOfBytes": "1"
					},
					"t_int8": {
						"encoding": "inplace",
						"label": "int8",
						"numberOfBytes": "1"
					},
					"t_uint8": {
						"encoding": "inplace",
						"label": "uint8",
						"numberOfBytes": "1"
					}
				}
			},
			"userdoc": {
				"kind": "user",
				"methods": {},
				"version": 1
			}
		}
	}
}