{
	"variables_function_visibility.sol": {
		"B": {
			"abi": [
				{
					"inputs": [],
					"name": "f2",
					"outputs": [
						{
							"internalType": "int256",
							"name": "",
							"type": "int256"
						}
					],
					"stateMutability": "view",
					"type": "function"
				},
				{
					"inputs": [],
					"name": "f4",
					"outputs": [
						{
							"internalType": "int256",
							"name": "",
							"type": "int256"
						}
					],
					"stateMutability": "view",
					"type": "function"
				},
				{
					"inputs": [],
					"name": "f5",
					"outputs": [
						{
							"internalType": "int256",
							"name": "",
							"type": "int256"
						}
					],
					"stateMutability": "view",
					"type": "function"
				},
				{
					"inputs": [],
					"name": "get_y",
					"outputs": [
						{
							"internalType": "int256",
							"name": "",
							"type": "int256"
						}
					],
					"stateMutability": "view",
					"type": "function"
				},
				{
					"inputs": [],
					"name": "x",
					"outputs": [
						{
							"internalType": "int256",
							"name": "",
							"type": "int256"
						}
					],
					"stateMutability": "view",
					"type": "function"
				},
				{
					"inputs": [],
					"name": "xx",
					"outputs": [
						{
							"internalType": "int256",
							"name": "",
							"type": "int256"
						}
					],
					"stateMutability": "view",
					"type": "function"
				}
			],
			"devdoc": {
				"kind": "dev",
				"methods": {},
				"version": 1
			},
			"evm": {
				"assembly": "    /* \"variables_function_visibility.sol\":611:737  contract B is A {... */\n  mstore(0x40, 0x80)\n    /* \"variables_function_visibility.sol\":68:70  10 */\n  0x0a\n    /* \"variables_function_visibility.sol\":50:70  int256 public x = 10 */\n  0x00\n  sstore\n    /* \"variables_function_visibility.sol\":87:89  20 */\n  0x14\n    /* \"variables_function_visibility.sol\":76:89  int256 y = 20 */\n  0x01\n  sstore\n    /* \"variables_function_visibility.sol\":652:656  f3() */\n  tag_1\n    /* \"variables_function_visibility.sol\":652:654  f3 */\n  shl(0x20, tag_2)\n    /* \"variables_function_visibility.sol\":652:656  f3() */\n  0x20\n  shr\n  jump\t// in\ntag_1:\n    /* \"variables_function_visibility.sol\":633:656  int256 public xx = f3() */\n  0x02\n  sstore\n    /* \"variables_function_visibility.sol\":611:737  contract B is A {... */\n  callvalue\n  dup1\n  iszero\n  tag_3\n  jumpi\n  0x00\n  dup1\n  revert\ntag_3:\n  pop\n  jump(tag_4)\n    /* \"variables_function_visibility.sol\":325:395  function f3() internal view returns (int256) {... */\ntag_2:\n    /* \"variables_function_visibility.sol\":362:368  int256 */\n  0x00\n    /* \"variables_function_visibility.sol\":387:388  x */\n  dup1\n  sload\n    /* \"variables_function_visibility.sol\":380:388  return x */\n  swap1\n  pop\n    /* \"variables_function_visibility.sol\":325:395  function f3() internal view returns (int256) {... */\n  swap1\n  jump\t// out\n    /* \"variables_function_visibility.sol\":611:737  contract B is A {... */\ntag_4:\n  dataSize(sub_0)\n  dup1\n  dataOffset(sub_0)\n  0x00\n  codecopy\n  0x00\n  return\nstop\n\nsub_0: assembly {\n        /* \"variables_function_visibility.sol\":611:737  contract B is A {... */\n      mstore(0x40, 0x80)\n      callvalue\n      dup1\n      iszero\n      tag_1\n      jumpi\n      0x00\n      dup1\n      revert\n    tag_1:\n      pop\n      jumpi(tag_2, lt(calldatasize, 0x04))\n      shr(0xe0, calldataload(0x00))\n      dup1\n      0x0c55699c\n      eq\n      tag_3\n      jumpi\n      dup1\n      0x28d69c6d\n      eq\n      tag_4\n      jumpi\n      dup1\n      0x3c9d377d\n      eq\n      tag_5\n      jumpi\n      dup1\n      0x9942ec6f\n      eq\n      tag_6\n      jumpi\n      dup1\n      0xc3f90202\n      eq\n      tag_7\n      jumpi\n      dup1\n      0xece57b04\n      eq\n      tag_8\n      jumpi\n    tag_2:\n      0x00\n      dup1\n      revert\n        /* \"variables_function_visibility.sol\":50:70  int256 public x = 10 */\n    tag_3:\n      tag_9\n      tag_10\n      jump\t// in\n    tag_9:\n      mload(0x40)\n      tag_11\n      swap2\n      swap1\n      tag_12\n      jump\t// in\n    tag_11:\n      mload(0x40)\n      dup1\n      swap2\n      sub\n      swap1\n      return\n        /* \"variables_function_visibility.sol\":96:167  function get_y() public view returns (int256) {... */\n    tag_4:\n      tag_13\n      tag_14\n      jump\t// in\n    tag_13:\n      mload(0x40)\n      tag_15\n      swap2\n      swap1\n      tag_12\n      jump\t// in\n    tag_15:\n      mload(0x40)\n      dup1\n      swap2\n      sub\n      swap1\n      return\n        /* \"variables_function_visibility.sol\":479:607  function f5() public view returns (int256) {... */\n    tag_5:\n      tag_16\n      tag_17\n      jump\t// in\n    tag_16:\n      mload(0x40)\n      tag_18\n      swap2\n      swap1\n      tag_12\n      jump\t// in\n    tag_18:\n      mload(0x40)\n      dup1\n      swap2\n      sub\n      swap1\n      return\n        /* \"variables_function_visibility.sol\":248:319  function f2() public view returns (int256) {... */\n    tag_6:\n      tag_19\n      tag_20\n      jump\t// in\n    tag_19:\n      mload(0x40)\n      tag_21\n      swap2\n      swap1\n      tag_12\n      jump\t// in\n    tag_21:\n      mload(0x40)\n      dup1\n      swap2\n      sub\n      swap1\n      return\n        /* \"variables_function_visibility.sol\":401:473  function f4() external view returns (int256) {... */\n    tag_7:\n      tag_22\n      tag_23\n      jump\t// in\n    tag_22:\n      mload(0x40)\n      tag_24\n      swap2\n      swap1\n      tag_12\n      jump\t// in\n    tag_24:\n      mload(0x40)\n      dup1\n      swap2\n      sub\n      swap1\n      return\n        /* \"variables_function_visibility.sol\":633:656  int256 public xx = f3() */\n    tag_8:\n      tag_25\n      tag_26\n      jump\t// in\n    tag_25:\n      mload(0x40)\n      tag_27\n      swap2\n      swap1\n      tag_12\n      jump\t// in\n    tag_27:\n      mload(0x40)\n      dup1\n      swap2\n      sub\n      swap1\n      return\n        /* \"variables_function_visibility.sol\":50:70  int256 public x = 10 */\n    tag_10:\n      sload(0x00)\n      dup2\n      jump\t// out\n        /* \"variables_function_visibility.sol\":96:167  function get_y() public view returns (int256) {... */\n    tag_14:\n        /* \"variables_function_visibility.sol\":134:140  int256 */\n      0x00\n        /* \"variables_function_visibility.sol\":159:160  y */\n      sload(0x01)\n        /* \"variables_function_visibility.sol\":152:160  return y */\n      swap1\n      pop\n        /* \"variables_function_visibility.sol\":96:167  function get_y() public view returns (int256) {... */\n      swap1\n      jump\t// out\n        /* \"variables_function_visibility.sol\":479:607  function f5() public view returns (int256) {... */\n    tag_17:\n        /* \"variables_function_visibility.sol\":514:520  int256 */\n      0x00\n        /* \"variables_function_visibility.sol\":532:540  int256 b */\n      dup1\n        /* \"variables_function_visibility.sol\":599:600  b */\n      dup1\n        /* \"variables_function_visibility.sol\":592:600  return b */\n      swap2\n      pop\n      pop\n        /* \"variables_function_visibility.sol\":479:607  function f5() public view returns (int256) {... */\n      swap1\n      jump\t// out\n        /* \"variables_function_visibility.sol\":248:319  function f2() public view returns (int256) {... */\n    tag_20:\n        /* \"variables_function_visibility.sol\":283:289  int256 */\n      0x00\n        /* \"variables_function_visibility.sol\":308:312  f1() */\n      tag_31\n        /* \"variables_function_visibility.sol\":308:310  f1 */\n      tag_32\n        /* \"variables_function_visibility.sol\":308:312  f1() */\n      jump\t// in\n    tag_31:\n        /* \"variables_function_visibility.sol\":301:312  return f1() */\n      swap1\n      pop\n        /* \"variables_function_visibility.sol\":248:319  function f2() public view returns (int256) {... */\n      swap1\n      jump\t// out\n        /* \"variables_function_visibility.sol\":401:473  function f4() external view returns (int256) {... */\n    tag_23:\n        /* \"variables_function_visibility.sol\":438:444  int256 */\n      0x00\n        /* \"variables_function_visibility.sol\":465:466  1 */\n      0x01\n        /* \"variables_function_visibility.sol\":463:464  x */\n      sload(0x00)\n        /* \"variables_function_visibility.sol\":463:466  x+1 */\n      tag_34\n      swap2\n      swap1\n      tag_35\n      jump\t// in\n    tag_34:\n        /* \"variables_function_visibility.sol\":456:466  return x+1 */\n      swap1\n      pop\n        /* \"variables_function_visibility.sol\":401:473  function f4() external view returns (int256) {... */\n      swap1\n      jump\t// out\n        /* \"variables_function_visibility.sol\":633:656  int256 public xx = f3() */\n    tag_26:\n      sload(0x02)\n      dup2\n      jump\t// out\n        /* \"variables_function_visibility.sol\":173:242  function f1() private view returns (int256) {... */\n    tag_32:\n        /* \"variables_function_visibility.sol\":209:215  int256 */\n      0x00\n        /* \"variables_function_visibility.sol\":234:235  x */\n      dup1\n      sload\n        /* \"variables_function_visibility.sol\":227:235  return x */\n      swap1\n      pop\n        /* \"variables_function_visibility.sol\":173:242  function f1() private view returns (int256) {... */\n      swap1\n      jump\t// out\n        /* \"#utility.yul\":7:83   */\n    tag_37:\n        /* \"#utility.yul\":43:50   */\n      0x00\n        /* \"#utility.yul\":72:77   */\n      dup2\n        /* \"#utility.yul\":61:77   */\n      swap1\n      pop\n        /* \"#utility.yul\":7:83   */\n      swap2\n      swap1\n      pop\n      jump\t// out\n        /* \"#utility.yul\":89:204   */\n    tag_38:\n        /* \"#utility.yul\":174:197   */\n      tag_43\n        /* \"#utility.yul\":191:196   */\n      dup2\n        /* \"#utility.yul\":174:197   */\n      tag_37\n      jump\t// in\n    tag_43:\n        /* \"#utility.yul\":169:172   */\n      dup3\n        /* \"#utility.yul\":162:198   */\n      mstore\n        /* \"#utility.yul\":89:204   */\n      pop\n      pop\n      jump\t// out\n        /* \"#utility.yul\":210:428   */\n    tag_12:\n        /* \"#utility.yul\":301:305   */\n      0x00\n        /* \"#utility.yul\":339:341   */\n      0x20\n        /* \"#utility.yul\":328:337   */\n      dup3\n        /* \"#utility.yul\":324:342   */\n      add\n        /* \"#utility.yul\":316:342   */\n      swap1\n      pop\n        /* \"#utility.yul\":352:421   */\n      tag_45\n        /* \"#utility.yul\":418:419   */\n      0x00\n        /* \"#utility.yul\":407:416   */\n      dup4\n        /* \"#utility.yul\":403:420   */\n      add\n        /* \"#utility.yul\":394:400   */\n      dup5\n        /* \"#utility.yul\":352:421   */\n      tag_38\n      jump\t// in\n    tag_45:\n        /* \"#utility.yul\":210:428   */\n      swap3\n      swap2\n      pop\n      pop\n      jump\t// out\n        /* \"#utility.yul\":434:614   */\n    tag_39:\n        /* \"#utility.yul\":482:559   */\n      0x4e487b7100000000000000000000000000000000000000000000000000000000\n        /* \"#utility.yul\":479:480   */\n      0x00\n        /* \"#utility.yul\":472:560   */\n      mstore\n        /* \"#utility.yul\":579:583   */\n      0x11\n        /* \"#utility.yul\":576:577   */\n      0x04\n        /* \"#utility.yul\":569:584   */\n      mstore\n        /* \"#utility.yul\":603:607   */\n      0x24\n        /* \"#utility.yul\":600:601   */\n      0x00\n        /* \"#utility.yul\":593:608   */\n      revert\n        /* \"#utility.yul\":620:995   */\n    tag_35:\n        /* \"#utility.yul\":659:662   */\n      0x00\n        /* \"#utility.yul\":678:697   */\n      tag_48\n        /* \"#utility.yul\":695:696   */\n      dup3\n        /* \"#utility.yul\":678:697   */\n      tag_37\n      jump\t// in\n    tag_48:\n        /* \"#utility.yul\":673:697   */\n      swap2\n      pop\n        /* \"#utility.yul\":711:730   */\n      tag_49\n        /* \"#utility.yul\":728:729   */\n      dup4\n        /* \"#utility.yul\":711:730   */\n      tag_37\n      jump\t// in\n    tag_49:\n        /* \"#utility.yul\":706:730   */\n      swap3\n      pop\n        /* \"#utility.yul\":753:754   */\n      dup3\n        /* \"#utility.yul\":750:751   */\n      dup3\n        /* \"#utility.yul\":746:755   */\n      add\n        /* \"#utility.yul\":739:755   */\n      swap1\n      pop\n        /* \"#utility.yul\":951:952   */\n      dup3\n        /* \"#utility.yul\":946:949   */\n      dup2\n        /* \"#utility.yul\":942:953   */\n      slt\n        /* \"#utility.yul\":935:954   */\n      iszero\n        /* \"#utility.yul\":931:932   */\n      0x00\n        /* \"#utility.yul\":928:929   */\n      dup4\n        /* \"#utility.yul\":924:933   */\n      slt\n        /* \"#utility.yul\":920:955   */\n      and\n        /* \"#utility.yul\":903:904   */\n      dup4\n        /* \"#utility.yul\":898:901   */\n      dup3\n        /* \"#utility.yul\":894:905   */\n      slt\n        /* \"#utility.yul\":889:890   */\n      0x00\n        /* \"#utility.yul\":886:887   */\n      dup5\n        /* \"#utility.yul\":882:891   */\n      slt\n        /* \"#utility.yul\":875:892   */\n      iszero\n        /* \"#utility.yul\":871:906   */\n      and\n        /* \"#utility.yul\":855:965   */\n      or\n        /* \"#utility.yul\":852:988   */\n      iszero\n      tag_50\n      jumpi\n        /* \"#utility.yul\":968:986   */\n      tag_51\n      tag_39\n      jump\t// in\n    tag_51:\n        /* \"#utility.yul\":852:988   */\n    tag_50:\n        /* \"#utility.yul\":620:995   */\n      swap3\n      swap2\n      pop\n      pop\n      jump\t// out\n\n    auxdata: 0xa264697066735822122077fa634488c3321f8313ee94204c1297b435d6171d28b072006bd3d60e732c1d64736f6c63430008160033\n}\n",
				"bytecode": {
					"linkReferences": {},
					"object": "6080604052600a5f55601460015561001b61002f60201b60201c565b600255348015610029575f80fd5b50610037565b5f8054905090565b610234806100445f395ff3fe608060405234801561000f575f80fd5b5060043610610060575f3560e01c80630c55699c1461006457806328d69c6d146100825780633c9d377d146100a05780639942ec6f146100be578063c3f90202146100dc578063ece57b04146100fa575b5f80fd5b61006c610118565b6040516100799190610177565b60405180910390f35b61008a61011d565b6040516100979190610177565b60405180910390f35b6100a8610126565b6040516100b59190610177565b60405180910390f35b6100c661012f565b6040516100d39190610177565b60405180910390f35b6100e461013d565b6040516100f19190610177565b60405180910390f35b610102610151565b60405161010f9190610177565b60405180910390f35b5f5481565b5f600154905090565b5f808091505090565b5f610138610157565b905090565b5f60015f5461014c91906101bd565b905090565b60025481565b5f8054905090565b5f819050919050565b6101718161015f565b82525050565b5f60208201905061018a5f830184610168565b92915050565b7f4e487b71000000000000000000000000000000000000000000000000000000005f52601160045260245ffd5b5f6101c78261015f565b91506101d28361015f565b92508282019050828112155f8312168382125f8412151617156101f8576101f7610190565b5b9291505056fea264697066735822122077fa634488c3321f8313ee94204c1297b435d6171d28b072006bd3d60e732c1d64736f6c63430008160033",
					"opcodes": "PUSH1 0x80 PUSH1 0x40 MSTORE PUSH1 0xA PUSH0 SSTORE PUSH1 0x14 PUSH1 0x1 SSTORE PUSH2 0x1B PUSH2 0x2F PUSH1 0x20 SHL PUSH1 0x20 SHR JUMP JUMPDEST PUSH1 0x2 SSTORE CALLVALUE DUP1 ISZERO PUSH2 0x29 JUMPI PUSH0 DUP1 REVERT JUMPDEST POP PUSH2 0x37 JUMP JUMPDEST PUSH0 DUP1 SLOAD SWAP1 POP SWAP1 JUMP JUMPDEST PUSH2 0x234 DUP1 PUSH2 0x44 PUSH0 CODECOPY PUSH0 RETURN INVALID PUSH1 0x80 PUSH1 0x40 MSTORE CALLVALUE DUP1 ISZERO PUSH2 0xF JUMPI PUSH0 DUP1 REVERT JUMPDEST POP PUSH1 0x4 CALLDATASIZE LT PUSH2 0x60 JUMPI PUSH0 CALLDATALOAD PUSH1 0xE0 SHR DUP1 PUSH4 0xC55699C EQ PUSH2 0x64 JUMPI DUP1 PUSH4 0x28D69C6D EQ PUSH2 0x82 JUMPI DUP1 PUSH4 0x3C9D377D EQ PUSH2 0xA0 JUMPI DUP1 PUSH4 0x9942EC6F EQ PUSH2 0xBE JUMPI DUP1 PUSH4 0xC3F90202 EQ PUSH2 0xDC JUMPI DUP1 PUSH4 0xECE57B04 EQ PUSH2 0xFA JUMPI JUMPDEST PUSH0 DUP1 REVERT JUMPDEST PUSH2 0x6C PUSH2 0x118 JUMP JUMPDEST PUSH1 0x40 MLOAD PUSH2 0x79 SWAP2 SWAP1 PUSH2 0x177 JUMP JUMPDEST PUSH1 0x40 MLOAD DUP1 SWAP2 SUB SWAP1 RETURN JUMPDEST PUSH2 0x8A PUSH2 0x11D JUMP JUMPDEST PUSH1 0x40 MLOAD PUSH2 0x97 SWAP2 SWAP1 PUSH2 0x177 JUMP JUMPDEST PUSH1 0x40 MLOAD DUP1 SWAP2 SUB SWAP1 RETURN JUMPDEST PUSH2 0xA8 PUSH2 0x126 JUMP JUMPDEST PUSH1 0x40 MLOAD PUSH2 0xB5 SWAP2 SWAP1 PUSH2 0x177 JUMP JUMPDEST PUSH1 0x40 MLOAD DUP1 SWAP2 SUB SWAP1 RETURN JUMPDEST PUSH2 0xC6 PUSH2 0x12F JUMP JUMPDEST PUSH1 0x40 MLOAD PUSH2 0xD3 SWAP2 SWAP1 PUSH2 0x177 JUMP JUMPDEST PUSH1 0x40 MLOAD DUP1 SWAP2 SUB SWAP1 RETURN JUMPDEST PUSH2 0xE4 PUSH2 0x13D JUMP JUMPDEST PUSH1 0x40 MLOAD PUSH2 0xF1 SWAP2 SWAP1 PUSH2 0x177 JUMP JUMPDEST PUSH1 0x40 MLOAD DUP1 SWAP2 SUB SWAP1 RETURN JUMPDEST PUSH2 0x102 PUSH2 0x151 JUMP JUMPDEST PUSH1 0x40 MLOAD PUSH2 0x10F SWAP2 SWAP1 PUSH2 0x177 JUMP JUMPDEST PUSH1 0x40 MLOAD DUP1 SWAP2 SUB SWAP1 RETURN JUMPDEST PUSH0 SLOAD DUP2 JUMP JUMPDEST PUSH0 PUSH1 0x1 SLOAD SWAP1 POP SWAP1 JUMP JUMPDEST PUSH0 DUP1 DUP1 SWAP2 POP POP SWAP1 JUMP JUMPDEST PUSH0 PUSH2 0x138 PUSH2 0x157 JUMP JUMPDEST SWAP1 POP SWAP1 JUMP JUMPDEST PUSH0 PUSH1 0x1 PUSH0 SLOAD PUSH2 0x14C SWAP2 SWAP1 PUSH2 0x1BD JUMP JUMPDEST SWAP1 POP SWAP1 JUMP JUMPDEST PUSH1 0x2 SLOAD DUP2 JUMP JUMPDEST PUSH0 DUP1 SLOAD SWAP1 POP SWAP1 JUMP JUMPDEST PUSH0 DUP2 SWAP1 POP SWAP2 SWAP1 POP JUMP JUMPDEST PUSH2 0x171 DUP2 PUSH2 0x15F JUMP JUMPDEST DUP3 MSTORE POP POP JUMP JUMPDEST PUSH0 PUSH1 0x20 DUP3 ADD SWAP1 POP PUSH2 0x18A PUSH0 DUP4 ADD DUP5 PUSH2 0x168 JUMP JUMPDEST SWAP3 SWAP2 POP POP JUMP JUMPDEST PUSH32 0x4E487B7100000000000000000000000000000000000000000000000000000000 PUSH0 MSTORE PUSH1 0x11 PUSH1 0x4 MSTORE PUSH1 0x24 PUSH0 REVERT JUMPDEST PUSH0 PUSH2 0x1C7 DUP3 PUSH2 0x15F JUMP JUMPDEST SWAP2 POP PUSH2 0x1D2 DUP4 PUSH2 0x15F JUMP JUMPDEST SWAP3 POP DUP3 DUP3 ADD SWAP1 POP DUP3 DUP2 SLT ISZERO PUSH0 DUP4 SLT AND DUP4 DUP3 SLT PUSH0 DUP5 SLT ISZERO AND OR ISZERO PUSH2 0x1F8 JUMPI PUSH2 0x1F7 PUSH2 0x190 JUMP JUMPDEST JUMPDEST SWAP3 SWAP2 POP POP JUMP INVALID LOG2 PUSH5 0x6970667358 0x22 SLT KECCAK256 PUSH24 0xFA634488C3321F8313EE94204C1297B435D6171D28B07200 PUSH12 0xD3D60E732C1D64736F6C6343 STOP ADDMOD AND STOP CALLER "
				},
				"gasEstimates": {
					"creation": {
						"codeDepositCost": "112800",
						"executionCost": "infinite",
						"totalCost": "infinite"
					},
					"external": {
						"f2()": "2510",
						"f4()": "infinite",
						"f5()": "359",
						"get_y()": "2432",
						"x()": "2402",
						"xx()": "2513"
					}
				},
				"methodIdentifiers": {
					"f2()": "9942ec6f",
					"f4()": "c3f90202",
					"f5()": "3c9d377d",
					"get_y()": "28d69c6d",
					"x()": "0c55699c",
					"xx()": "ece57b04"
				}
			},
			"storageLayout": {
				"storage": [
					{
						"astId": 4,
						"contract": "variables_function_visibility.sol:B",
						"label": "x",
						"offset": 0,
						"slot": "0",
						"type": "t_int256"
					},
					{
						"astId": 7,
						"contract": "variables_function_visibility.sol:B",
						"label": "y",
						"offset": 0,
						"slot": "1",
						"type": "t_int256"
					},
					{
						"astId": 68,
						"contract": "variables_function_visibility.sol:B",
						"label": "xx",
						"offset": 0,
						"slot": "2",
						"type": "t_int256"
					}
				],
				"types": {
					"t_int256": {
						"encoding": "inplace",
						"label": "int256",
						"numberOfBytes": "32"
					}
				}
			},
			"userdoc": {
				"kind": "user",
				"methods": {},
				"version": 1
			}
		}
	}
}