{
	"variables_function_visibility.sol": {
		"C": {
			"abi": [
				{
					"inputs": [],
					"name": "contract_a",
					"outputs": [
						{
							"internalType": "contract A",
							"name": "",
							"type": "address"
						}
					],
					"stateMutability": "view",
					"type": "function"
				},
				{
					"inputs": [],
					"name": "xx",
					"outputs": [
						{
							"internalType": "int256",
							"name": "",
							"type": "int256"
						}
					],
					"stateMutability": "view",
					"type": "function"
				}
			],
			"devdoc": {
				"kind": "dev",
				"methods": {},
				"version": 1
			},
			"evm": {
				"assembly": "    /* \"variables_function_visibility.sol\":739:907  contract C {... */\n  mstore(0x40, 0x80)\n    /* \"variables_function_visibility.sol\":778:785  new A() */\n  mload(0x40)\n  tag_1\n  swap1\n  tag_2\n  jump\t// in\ntag_1:\n  mload(0x40)\n  dup1\n  swap2\n  sub\n  swap1\n  0x00\n  create\n  dup1\n  iszero\n  dup1\n  iszero\n  tag_3\n  jumpi\n  returndatasize\n  0x00\n  dup1\n  returndatacopy\n  revert(0x00, returndatasize)\ntag_3:\n  pop\n    /* \"variables_function_visibility.sol\":756:785  A public contract_a = new A() */\n  0x00\n  dup1\n  0x0100\n  exp\n  dup2\n  sload\n  dup2\n  0xffffffffffffffffffffffffffffffffffffffff\n  mul\n  not\n  and\n  swap1\n  dup4\n  0xffffffffffffffffffffffffffffffffffffffff\n  and\n  mul\n  or\n  swap1\n  sstore\n  pop\n    /* \"variables_function_visibility.sol\":808:818  contract_a */\n  0x00\n  dup1\n  sload\n  swap1\n  0x0100\n  exp\n  swap1\n  div\n  0xffffffffffffffffffffffffffffffffffffffff\n  and\n    /* \"variables_function_visibility.sol\":808:821  contract_a.f4 */\n  0xffffffffffffffffffffffffffffffffffffffff\n  and\n  0xc3f90202\n    /* \"variables_function_visibility.sol\":808:823  contract_a.f4() */\n  mload(0x40)\n  dup2\n  0xffffffff\n  and\n  0xe0\n  shl\n  dup2\n  mstore\n  0x04\n  add\n  0x20\n  mload(0x40)\n  dup1\n  dup4\n  sub\n  dup2\n  dup7\n  gas\n  staticcall\n  iszero\n  dup1\n  iszero\n  tag_5\n  jumpi\n  returndatasize\n  0x00\n  dup1\n  returndatacopy\n  revert(0x00, returndatasize)\ntag_5:\n  pop\n  pop\n  pop\n  pop\n  mload(0x40)\n  returndatasize\n  not(0x1f)\n  0x1f\n  dup3\n  add\n  and\n  dup3\n  add\n  dup1\n  0x40\n  mstore\n  pop\n  dup2\n  add\n  swap1\n  tag_6\n  swap2\n  swap1\n  tag_7\n  jump\t// in\ntag_6:\n    /* \"variables_function_visibility.sol\":792:823  int public xx = contract_a.f4() */\n  0x01\n  sstore\n    /* \"variables_function_visibility.sol\":739:907  contract C {... */\n  callvalue\n  dup1\n  iszero\n  tag_8\n  jumpi\n  0x00\n  dup1\n  revert\ntag_8:\n  pop\n  jump(tag_9)\ntag_2:\n  dataSize(sub_1)\n  dup1\n  dataOffset(sub_1)\n  dup4\n  codecopy\n  add\n  swap1\n  jump\t// out\n    /* \"#utility.yul\":88:205   */\ntag_11:\n    /* \"#utility.yul\":197:198   */\n  0x00\n    /* \"#utility.yul\":194:195   */\n  dup1\n    /* \"#utility.yul\":187:199   */\n  revert\n    /* \"#utility.yul\":334:410   */\ntag_13:\n    /* \"#utility.yul\":370:377   */\n  0x00\n    /* \"#utility.yul\":399:404   */\n  dup2\n    /* \"#utility.yul\":388:404   */\n  swap1\n  pop\n    /* \"#utility.yul\":334:410   */\n  swap2\n  swap1\n  pop\n  jump\t// out\n    /* \"#utility.yul\":416:536   */\ntag_14:\n    /* \"#utility.yul\":488:511   */\n  tag_22\n    /* \"#utility.yul\":505:510   */\n  dup2\n    /* \"#utility.yul\":488:511   */\n  tag_13\n  jump\t// in\ntag_22:\n    /* \"#utility.yul\":481:486   */\n  dup2\n    /* \"#utility.yul\":478:512   */\n  eq\n    /* \"#utility.yul\":468:530   */\n  tag_23\n  jumpi\n    /* \"#utility.yul\":526:527   */\n  0x00\n    /* \"#utility.yul\":523:524   */\n  dup1\n    /* \"#utility.yul\":516:528   */\n  revert\n    /* \"#utility.yul\":468:530   */\ntag_23:\n    /* \"#utility.yul\":416:536   */\n  pop\n  jump\t// out\n    /* \"#utility.yul\":542:683   */\ntag_15:\n    /* \"#utility.yul\":598:603   */\n  0x00\n    /* \"#utility.yul\":629:635   */\n  dup2\n    /* \"#utility.yul\":623:636   */\n  mload\n    /* \"#utility.yul\":614:636   */\n  swap1\n  pop\n    /* \"#utility.yul\":645:677   */\n  tag_25\n    /* \"#utility.yul\":671:676   */\n  dup2\n    /* \"#utility.yul\":645:677   */\n  tag_14\n  jump\t// in\ntag_25:\n    /* \"#utility.yul\":542:683   */\n  swap3\n  swap2\n  pop\n  pop\n  jump\t// out\n    /* \"#utility.yul\":689:1038   */\ntag_7:\n    /* \"#utility.yul\":758:764   */\n  0x00\n    /* \"#utility.yul\":807:809   */\n  0x20\n    /* \"#utility.yul\":795:804   */\n  dup3\n    /* \"#utility.yul\":786:793   */\n  dup5\n    /* \"#utility.yul\":782:805   */\n  sub\n    /* \"#utility.yul\":778:810   */\n  slt\n    /* \"#utility.yul\":775:894   */\n  iszero\n  tag_27\n  jumpi\n    /* \"#utility.yul\":813:892   */\n  tag_28\n  tag_11\n  jump\t// in\ntag_28:\n    /* \"#utility.yul\":775:894   */\ntag_27:\n    /* \"#utility.yul\":933:934   */\n  0x00\n    /* \"#utility.yul\":958:1021   */\n  tag_29\n    /* \"#utility.yul\":1013:1020   */\n  dup5\n    /* \"#utility.yul\":1004:1010   */\n  dup3\n    /* \"#utility.yul\":993:1002   */\n  dup6\n    /* \"#utility.yul\":989:1011   */\n  add\n    /* \"#utility.yul\":958:1021   */\n  tag_15\n  jump\t// in\ntag_29:\n    /* \"#utility.yul\":948:1021   */\n  swap2\n  pop\n    /* \"#utility.yul\":904:1031   */\n  pop\n    /* \"#utility.yul\":689:1038   */\n  swap3\n  swap2\n  pop\n  pop\n  jump\t// out\n    /* \"variables_function_visibility.sol\":739:907  contract C {... */\ntag_9:\n  dataSize(sub_0)\n  dup1\n  dataOffset(sub_0)\n  0x00\n  codecopy\n  0x00\n  return\nstop\n\nsub_0: assembly {\n        /* \"variables_function_visibility.sol\":739:907  contract C {... */\n      mstore(0x40, 0x80)\n      callvalue\n      dup1\n      iszero\n      tag_1\n      jumpi\n      0x00\n      dup1\n      revert\n    tag_1:\n      pop\n      jumpi(tag_2, lt(calldatasize, 0x04))\n      shr(0xe0, calldataload(0x00))\n      dup1\n      0x605b85ad\n      eq\n      tag_3\n      jumpi\n      dup1\n      0xece57b04\n      eq\n      tag_4\n      jumpi\n    tag_2:\n      0x00\n      dup1\n      revert\n        /* \"variables_function_visibility.sol\":756:785  A public contract_a = new A() */\n    tag_3:\n      tag_5\n      tag_6\n      jump\t// in\n    tag_5:\n      mload(0x40)\n      tag_7\n      swap2\n      swap1\n      tag_8\n      jump\t// in\n    tag_7:\n      mload(0x40)\n      dup1\n      swap2\n      sub\n      swap1\n      return\n        /* \"variables_function_visibility.sol\":792:823  int public xx = contract_a.f4() */\n    tag_4:\n      tag_9\n      tag_10\n      jump\t// in\n    tag_9:\n      mload(0x40)\n      tag_11\n      swap2\n      swap1\n      tag_12\n      jump\t// in\n    tag_11:\n      mload(0x40)\n      dup1\n      swap2\n      sub\n      swap1\n      return\n        /* \"variables_function_visibility.sol\":756:785  A public contract_a = new A() */\n    tag_6:\n      0x00\n      dup1\n      sload\n      swap1\n      0x0100\n      exp\n      swap1\n      div\n      0xffffffffffffffffffffffffffffffffffffffff\n      and\n      dup2\n      jump\t// out\n        /* \"variables_function_visibility.sol\":792:823  int public xx = contract_a.f4() */\n    tag_10:\n      sload(0x01)\n      dup2\n      jump\t// out\n        /* \"#utility.yul\":7:133   */\n    tag_13:\n        /* \"#utility.yul\":44:51   */\n      0x00\n        /* \"#utility.yul\":84:126   */\n      0xffffffffffffffffffffffffffffffffffffffff\n        /* \"#utility.yul\":77:82   */\n      dup3\n        /* \"#utility.yul\":73:127   */\n      and\n        /* \"#utility.yul\":62:127   */\n      swap1\n      pop\n        /* \"#utility.yul\":7:133   */\n      swap2\n      swap1\n      pop\n      jump\t// out\n        /* \"#utility.yul\":139:199   */\n    tag_14:\n        /* \"#utility.yul\":167:170   */\n      0x00\n        /* \"#utility.yul\":188:193   */\n      dup2\n        /* \"#utility.yul\":181:193   */\n      swap1\n      pop\n        /* \"#utility.yul\":139:199   */\n      swap2\n      swap1\n      pop\n      jump\t// out\n        /* \"#utility.yul\":205:347   */\n    tag_15:\n        /* \"#utility.yul\":255:264   */\n      0x00\n        /* \"#utility.yul\":288:341   */\n      tag_25\n        /* \"#utility.yul\":306:340   */\n      tag_26\n        /* \"#utility.yul\":315:339   */\n      tag_27\n        /* \"#utility.yul\":333:338   */\n      dup5\n        /* \"#utility.yul\":315:339   */\n      tag_13\n      jump\t// in\n    tag_27:\n        /* \"#utility.yul\":306:340   */\n      tag_14\n      jump\t// in\n    tag_26:\n        /* \"#utility.yul\":288:341   */\n      tag_13\n      jump\t// in\n    tag_25:\n        /* \"#utility.yul\":275:341   */\n      swap1\n      pop\n        /* \"#utility.yul\":205:347   */\n      swap2\n      swap1\n      pop\n      jump\t// out\n        /* \"#utility.yul\":353:479   */\n    tag_16:\n        /* \"#utility.yul\":403:412   */\n      0x00\n        /* \"#utility.yul\":436:473   */\n      tag_29\n        /* \"#utility.yul\":467:472   */\n      dup3\n        /* \"#utility.yul\":436:473   */\n      tag_15\n      jump\t// in\n    tag_29:\n        /* \"#utility.yul\":423:473   */\n      swap1\n      pop\n        /* \"#utility.yul\":353:479   */\n      swap2\n      swap1\n      pop\n      jump\t// out\n        /* \"#utility.yul\":485:619   */\n    tag_17:\n        /* \"#utility.yul\":543:552   */\n      0x00\n        /* \"#utility.yul\":576:613   */\n      tag_31\n        /* \"#utility.yul\":607:612   */\n      dup3\n        /* \"#utility.yul\":576:613   */\n      tag_16\n      jump\t// in\n    tag_31:\n        /* \"#utility.yul\":563:613   */\n      swap1\n      pop\n        /* \"#utility.yul\":485:619   */\n      swap2\n      swap1\n      pop\n      jump\t// out\n        /* \"#utility.yul\":625:772   */\n    tag_18:\n        /* \"#utility.yul\":720:765   */\n      tag_33\n        /* \"#utility.yul\":759:764   */\n      dup2\n        /* \"#utility.yul\":720:765   */\n      tag_17\n      jump\t// in\n    tag_33:\n        /* \"#utility.yul\":715:718   */\n      dup3\n        /* \"#utility.yul\":708:766   */\n      mstore\n        /* \"#utility.yul\":625:772   */\n      pop\n      pop\n      jump\t// out\n        /* \"#utility.yul\":778:1016   */\n    tag_8:\n        /* \"#utility.yul\":879:883   */\n      0x00\n        /* \"#utility.yul\":917:919   */\n      0x20\n        /* \"#utility.yul\":906:915   */\n      dup3\n        /* \"#utility.yul\":902:920   */\n      add\n        /* \"#utility.yul\":894:920   */\n      swap1\n      pop\n        /* \"#utility.yul\":930:1009   */\n      tag_35\n        /* \"#utility.yul\":1006:1007   */\n      0x00\n        /* \"#utility.yul\":995:1004   */\n      dup4\n        /* \"#utility.yul\":991:1008   */\n      add\n        /* \"#utility.yul\":982:988   */\n      dup5\n        /* \"#utility.yul\":930:1009   */\n      tag_18\n      jump\t// in\n    tag_35:\n        /* \"#utility.yul\":778:1016   */\n      swap3\n      swap2\n      pop\n      pop\n      jump\t// out\n        /* \"#utility.yul\":1022:1098   */\n    tag_19:\n        /* \"#utility.yul\":1058:1065   */\n      0x00\n        /* \"#utility.yul\":1087:1092   */\n      dup2\n        /* \"#utility.yul\":1076:1092   */\n      swap1\n      pop\n        /* \"#utility.yul\":1022:1098   */\n      swap2\n      swap1\n      pop\n      jump\t// out\n        /* \"#utility.yul\":1104:1219   */\n    tag_20:\n        /* \"#utility.yul\":1189:1212   */\n      tag_38\n        /* \"#utility.yul\":1206:1211   */\n      dup2\n        /* \"#utility.yul\":1189:1212   */\n      tag_19\n      jump\t// in\n    tag_38:\n        /* \"#utility.yul\":1184:1187   */\n      dup3\n        /* \"#utility.yul\":1177:1213   */\n      mstore\n        /* \"#utility.yul\":1104:1219   */\n      pop\n      pop\n      jump\t// out\n        /* \"#utility.yul\":1225:1443   */\n    tag_12:\n        /* \"#utility.yul\":1316:1320   */\n      0x00\n        /* \"#utility.yul\":1354:1356   */\n      0x20\n        /* \"#utility.yul\":1343:1352   */\n      dup3\n        /* \"#utility.yul\":1339:1357   */\n      add\n        /* \"#utility.yul\":1331:1357   */\n      swap1\n      pop\n        /* \"#utility.yul\":1367:1436   */\n      tag_40\n        /* \"#utility.yul\":1433:1434   */\n      0x00\n        /* \"#utility.yul\":1422:1431   */\n      dup4\n        /* \"#utility.yul\":1418:1435   */\n      add\n        /* \"#utility.yul\":1409:1415   */\n      dup5\n        /* \"#utility.yul\":1367:1436   */\n      tag_20\n      jump\t// in\n    tag_40:\n        /* \"#utility.yul\":1225:1443   */\n      swap3\n      swap2\n      pop\n      pop\n      jump\t// out\n\n    auxdata: 0xa2646970667358221220661589eac515e1921fe4c1e018a330c3614d3d8b7cbf501332e34c6dea22c3c364736f6c63430008160033\n}\n\nsub_1: assembly {\n        /* \"variables_function_visibility.sol\":33:609  contract A {... */\n      mstore(0x40, 0x80)\n        /* \"variables_function_visibility.sol\":68:70  10 */\n      0x0a\n        /* \"variables_function_visibility.sol\":50:70  int256 public x = 10 */\n      0x00\n      sstore\n        /* \"variables_function_visibility.sol\":87:89  20 */\n      0x14\n        /* \"variables_function_visibility.sol\":76:89  int256 y = 20 */\n      0x01\n      sstore\n        /* \"variables_function_visibility.sol\":33:609  contract A {... */\n      callvalue\n      dup1\n      iszero\n      tag_1\n      jumpi\n      0x00\n      dup1\n      revert\n    tag_1:\n      pop\n      dataSize(sub_0)\n      dup1\n      dataOffset(sub_0)\n      0x00\n      codecopy\n      0x00\n      return\n    stop\n\n    sub_0: assembly {\n            /* \"variables_function_visibility.sol\":33:609  contract A {... */\n          mstore(0x40, 0x80)\n          callvalue\n          dup1\n          iszero\n          tag_1\n          jumpi\n          0x00\n          dup1\n          revert\n        tag_1:\n          pop\n          jumpi(tag_2, lt(calldatasize, 0x04))\n          shr(0xe0, calldataload(0x00))\n          dup1\n          0x0c55699c\n          eq\n          tag_3\n          jumpi\n          dup1\n          0x28d69c6d\n          eq\n          tag_4\n          jumpi\n          dup1\n          0x3c9d377d\n          eq\n          tag_5\n          jumpi\n          dup1\n          0x9942ec6f\n          eq\n          tag_6\n          jumpi\n          dup1\n          0xc3f90202\n          eq\n          tag_7\n          jumpi\n        tag_2:\n          0x00\n          dup1\n          revert\n            /* \"variables_function_visibility.sol\":50:70  int256 public x = 10 */\n        tag_3:\n          tag_8\n          tag_9\n          jump\t// in\n        tag_8:\n          mload(0x40)\n          tag_10\n          swap2\n          swap1\n          tag_11\n          jump\t// in\n        tag_10:\n          mload(0x40)\n          dup1\n          swap2\n          sub\n          swap1\n          return\n            /* \"variables_function_visibility.sol\":96:167  function get_y() public view returns (int256) {... */\n        tag_4:\n          tag_12\n          tag_13\n          jump\t// in\n        tag_12:\n          mload(0x40)\n          tag_14\n          swap2\n          swap1\n          tag_11\n          jump\t// in\n        tag_14:\n          mload(0x40)\n          dup1\n          swap2\n          sub\n          swap1\n          return\n            /* \"variables_function_visibility.sol\":479:607  function f5() public view returns (int256) {... */\n        tag_5:\n          tag_15\n          tag_16\n          jump\t// in\n        tag_15:\n          mload(0x40)\n          tag_17\n          swap2\n          swap1\n          tag_11\n          jump\t// in\n        tag_17:\n          mload(0x40)\n          dup1\n          swap2\n          sub\n          swap1\n          return\n            /* \"variables_function_visibility.sol\":248:319  function f2() public view returns (int256) {... */\n        tag_6:\n          tag_18\n          tag_19\n          jump\t// in\n        tag_18:\n          mload(0x40)\n          tag_20\n          swap2\n          swap1\n          tag_11\n          jump\t// in\n        tag_20:\n          mload(0x40)\n          dup1\n          swap2\n          sub\n          swap1\n          return\n            /* \"variables_function_visibility.sol\":401:473  function f4() external view returns (int256) {... */\n        tag_7:\n          tag_21\n          tag_22\n          jump\t// in\n        tag_21:\n          mload(0x40)\n          tag_23\n          swap2\n          swap1\n          tag_11\n          jump\t// in\n        tag_23:\n          mload(0x40)\n          dup1\n          swap2\n          sub\n          swap1\n          return\n            /* \"variables_function_visibility.sol\":50:70  int256 public x = 10 */\n        tag_9:\n          sload(0x00)\n          dup2\n          jump\t// out\n            /* \"variables_function_visibility.sol\":96:167  function get_y() public view returns (int256) {... */\n        tag_13:\n            /* \"variables_function_visibility.sol\":134:140  int256 */\n          0x00\n            /* \"variables_function_visibility.sol\":159:160  y */\n          sload(0x01)\n            /* \"variables_function_visibility.sol\":152:160  return y */\n          swap1\n          pop\n            /* \"variables_function_visibility.sol\":96:167  function get_y() public view returns (int256) {... */\n          swap1\n          jump\t// out\n            /* \"variables_function_visibility.sol\":479:607  function f5() public view returns (int256) {... */\n        tag_16:\n            /* \"variables_function_visibility.sol\":514:520  int256 */\n          0x00\n            /* \"variables_function_visibility.sol\":532:540  int256 b */\n          dup1\n            /* \"variables_function_visibility.sol\":599:600  b */\n          dup1\n            /* \"variables_function_visibility.sol\":592:600  return b */\n          swap2\n          pop\n          pop\n            /* \"variables_function_visibility.sol\":479:607  function f5() public view returns (int256) {... */\n          swap1\n          jump\t// out\n            /* \"variables_function_visibility.sol\":248:319  function f2() public view returns (int256) {... */\n        tag_19:\n            /* \"variables_function_visibility.sol\":283:289  int256 */\n          0x00\n            /* \"variables_function_visibility.sol\":308:312  f1() */\n          tag_27\n            /* \"variables_function_visibility.sol\":308:310  f1 */\n          tag_28\n            /* \"variables_function_visibility.sol\":308:312  f1() */\n          jump\t// in\n        tag_27:\n            /* \"variables_function_visibility.sol\":301:312  return f1() */\n          swap1\n          pop\n            /* \"variables_function_visibility.sol\":248:319  function f2() public view returns (int256) {... */\n          swap1\n          jump\t// out\n            /* \"variables_function_visibility.sol\":401:473  function f4() external view returns (int256) {... */\n        tag_22:\n            /* \"variables_function_visibility.sol\":438:444  int256 */\n          0x00\n            /* \"variables_function_visibility.sol\":465:466  1 */\n          0x01\n            /* \"variables_function_visibility.sol\":463:464  x */\n          sload(0x00)\n            /* \"variables_function_visibility.sol\":463:466  x+1 */\n          tag_30\n          swap2\n          swap1\n          tag_31\n          jump\t// in\n        tag_30:\n            /* \"variables_function_visibility.sol\":456:466  return x+1 */\n          swap1\n          pop\n            /* \"variables_function_visibility.sol\":401:473  function f4() external view returns (int256) {... */\n          swap1\n          jump\t// out\n            /* \"variables_function_visibility.sol\":173:242  function f1() private view returns (int256) {... */\n        tag_28:\n            /* \"variables_function_visibility.sol\":209:215  int256 */\n          0x00\n            /* \"variables_function_visibility.sol\":234:235  x */\n          dup1\n          sload\n            /* \"variables_function_visibility.sol\":227:235  return x */\n          swap1\n          pop\n            /* \"variables_function_visibility.sol\":173:242  function f1() private view returns (int256) {... */\n          swap1\n          jump\t// out\n            /* \"#utility.yul\":7:83   */\n        tag_33:\n            /* \"#utility.yul\":43:50   */\n          0x00\n            /* \"#utility.yul\":72:77   */\n          dup2\n            /* \"#utility.yul\":61:77   */\n          swap1\n          pop\n            /* \"#utility.yul\":7:83   */\n          swap2\n          swap1\n          pop\n          jump\t// out\n            /* \"#utility.yul\":89:204   */\n        tag_34:\n            /* \"#utility.yul\":174:197   */\n          tag_39\n            /* \"#utility.yul\":191:196   */\n          dup2\n            /* \"#utility.yul\":174:197   */\n          tag_33\n          jump\t// in\n        tag_39:\n            /* \"#utility.yul\":169:172   */\n          dup3\n            /* \"#utility.yul\":162:198   */\n          mstore\n            /* \"#utility.yul\":89:204   */\n          pop\n          pop\n          jump\t// out\n            /* \"#utility.yul\":210:428   */\n        tag_11:\n            /* \"#utility.yul\":301:305   */\n          0x00\n            /* \"#utility.yul\":339:341   */\n          0x20\n            /* \"#utility.yul\":328:337   */\n          dup3\n            /* \"#utility.yul\":324:342   */\n          add\n            /* \"#utility.yul\":316:342   */\n          swap1\n          pop\n            /* \"#utility.yul\":352:421   */\n          tag_41\n            /* \"#utility.yul\":418:419   */\n          0x00\n            /* \"#utility.yul\":407:416   */\n          dup4\n            /* \"#utility.yul\":403:420   */\n          add\n            /* \"#utility.yul\":394:400   */\n          dup5\n            /* \"#utility.yul\":352:421   */\n          tag_34\n          jump\t// in\n        tag_41:\n            /* \"#utility.yul\":210:428   */\n          swap3\n          swap2\n          pop\n          pop\n          jump\t// out\n            /* \"#utility.yul\":434:614   */\n        tag_35:\n            /* \"#utility.yul\":482:559   */\n          0x4e487b7100000000000000000000000000000000000000000000000000000000\n            /* \"#utility.yul\":479:480   */\n          0x00\n            /* \"#utility.yul\":472:560   */\n          mstore\n            /* \"#utility.yul\":579:583   */\n          0x11\n            /* \"#utility.yul\":576:577   */\n          0x04\n            /* \"#utility.yul\":569:584   */\n          mstore\n            /* \"#utility.yul\":603:607   */\n          0x24\n            /* \"#utility.yul\":600:601   */\n          0x00\n            /* \"#utility.yul\":593:608   */\n          revert\n            /* \"#utility.yul\":620:995   */\n        tag_31:\n            /* \"#utility.yul\":659:662   */\n          0x00\n            /* \"#utility.yul\":678:697   */\n          tag_44\n            /* \"#utility.yul\":695:696   */\n          dup3\n            /* \"#utility.yul\":678:697   */\n          tag_33\n          jump\t// in\n        tag_44:\n            /* \"#utility.yul\":673:697   */\n          swap2\n          pop\n            /* \"#utility.yul\":711:730   */\n          tag_45\n            /* \"#utility.yul\":728:729   */\n          dup4\n            /* \"#utility.yul\":711:730   */\n          tag_33\n          jump\t// in\n        tag_45:\n            /* \"#utility.yul\":706:730   */\n          swap3\n          pop\n            /* \"#utility.yul\":753:754   */\n          dup3\n            /* \"#utility.yul\":750:751   */\n          dup3\n            /* \"#utility.yul\":746:755   */\n          add\n            /* \"#utility.yul\":739:755   */\n          swap1\n          pop\n            /* \"#utility.yul\":951:952   */\n          dup3\n            /* \"#utility.yul\":946:949   */\n          dup2\n            /* \"#utility.yul\":942:953   */\n          slt\n            /* \"#utility.yul\":935:954   */\n          iszero\n            /* \"#utility.yul\":931:932   */\n          0x00\n            /* \"#utility.yul\":928:929   */\n          dup4\n            /* \"#utility.yul\":924:933   */\n          slt\n            /* \"#utility.yul\":920:955   */\n          and\n            /* \"#utility.yul\":903:904   */\n          dup4\n            /* \"#utility.yul\":898:901   */\n          dup3\n            /* \"#utility.yul\":894:905   */\n          slt\n            /* \"#utility.yul\":889:890   */\n          0x00\n            /* \"#utility.yul\":886:887   */\n          dup5\n            /* \"#utility.yul\":882:891   */\n          slt\n            /* \"#utility.yul\":875:892   */\n          iszero\n            /* \"#utility.yul\":871:906   */\n          and\n            /* \"#utility.yul\":855:965   */\n          or\n            /* \"#utility.yul\":852:988   */\n          iszero\n          tag_46\n          jumpi\n            /* \"#utility.yul\":968:986   */\n          tag_47\n          tag_35\n          jump\t// in\n        tag_47:\n            /* \"#utility.yul\":852:988   */\n        tag_46:\n            /* \"#utility.yul\":620:995   */\n          swap3\n          swap2\n          pop\n          pop\n          jump\t// out\n\n        auxdata: 0xa26469706673582212202d6893873245a4985ed4312cb3473b182e56beee64f3ca00ed50c53524dca4ab64736f6c63430008160033\n    }\n}\n",
				"bytecode": {
					"linkReferences": {},
					"object": "608060405260405161001090610108565b604051809103905ff080158015610029573d5f803e3d5ffd5b505f806101000a81548173ffffffffffffffffffffffffffffffffffffffff021916908373ffffffffffffffffffffffffffffffffffffffff1602179055505f8054906101000a900473ffffffffffffffffffffffffffffffffffffffff1673ffffffffffffffffffffffffffffffffffffffff1663c3f902026040518163ffffffff1660e01b8152600401602060405180830381865afa1580156100d0573d5f803e3d5ffd5b505050506040513d601f19601f820116820180604052508101906100f4919061014c565b600155348015610102575f80fd5b50610177565b61022b8061031b83390190565b5f80fd5b5f819050919050565b61012b81610119565b8114610135575f80fd5b50565b5f8151905061014681610122565b92915050565b5f6020828403121561016157610160610115565b5b5f61016e84828501610138565b91505092915050565b610197806101845f395ff3fe608060405234801561000f575f80fd5b5060043610610034575f3560e01c8063605b85ad14610038578063ece57b0414610056575b5f80fd5b610040610074565b60405161004d9190610117565b60405180910390f35b61005e610097565b60405161006b9190610148565b60405180910390f35b5f8054906101000a900473ffffffffffffffffffffffffffffffffffffffff1681565b60015481565b5f73ffffffffffffffffffffffffffffffffffffffff82169050919050565b5f819050919050565b5f6100df6100da6100d58461009d565b6100bc565b61009d565b9050919050565b5f6100f0826100c5565b9050919050565b5f610101826100e6565b9050919050565b610111816100f7565b82525050565b5f60208201905061012a5f830184610108565b92915050565b5f819050919050565b61014281610130565b82525050565b5f60208201905061015b5f830184610139565b9291505056fea2646970667358221220661589eac515e1921fe4c1e018a330c3614d3d8b7cbf501332e34c6dea22c3c364736f6c634300081600336080604052600a5f556014600155348015610018575f80fd5b50610205806100265f395ff3fe608060405234801561000f575f80fd5b5060043610610055575f3560e01c80630c55699c1461005957806328d69c6d146100775780633c9d377d146100955780639942ec6f146100b3578063c3f90202146100d1575b5f80fd5b6100616100ef565b60405161006e9190610148565b60405180910390f35b61007f6100f4565b60405161008c9190610148565b60405180910390f35b61009d6100fd565b6040516100aa9190610148565b60405180910390f35b6100bb610106565b6040516100c89190610148565b60405180910390f35b6100d9610114565b6040516100e69190610148565b60405180910390f35b5f5481565b5f600154905090565b5f808091505090565b5f61010f610128565b905090565b5f60015f54610123919061018e565b905090565b5f8054905090565b5f819050919050565b61014281610130565b82525050565b5f60208201905061015b5f830184610139565b92915050565b7f4e487b71000000000000000000000000000000000000000000000000000000005f52601160045260245ffd5b5f61019882610130565b91506101a383610130565b92508282019050828112155f8312168382125f8412151617156101c9576101c8610161565b5b9291505056fea26469706673582212202d6893873245a4985ed4312cb3473b182e56beee64f3ca00ed50c53524dca4ab64736f6c63430008160033",
					"opcodes": "PUSH1 0x80 PUSH1 0x40 MSTORE PUSH1 0x40 MLOAD PUSH2 0x10 SWAP1 PUSH2 0x108 JUMP JUMPDEST PUSH1 0x40 MLOAD DUP1 SWAP2 SUB SWAP1 PUSH0 CREATE DUP1 ISZERO DUP1 ISZERO PUSH2 0x29 JUMPI RETURNDATASIZE PUSH0 DUP1 RETURNDATACOPY RETURNDATASIZE PUSH0 REVERT JUMPDEST POP PUSH0 DUP1 PUSH2 0x100 EXP DUP2 SLOAD DUP2 PUSH20 0xFFFFFFFFFFFFFFFFFFFFFFFFFFFFFFFFFFFFFFFF MUL NOT AND SWAP1 DUP4 PUSH20 0xFFFFFFFFFFFFFFFFFFFFFFFFFFFFFFFFFFFFFFFF AND MUL OR SWAP1 SSTORE POP PUSH0 DUP1 SLOAD SWAP1 PUSH2 0x100 EXP SWAP1 DIV PUSH20 0xFFFFFFFFFFFFFFFFFFFFFFFFFFFFFFFFFFFFFFFF AND PUSH20 0xFFFFFFFFFFFFFFFFFFFFFFFFFFFFFFFFFFFFFFFF AND PUSH4 0xC3F90202 PUSH1 0x40 MLOAD DUP2 PUSH4 0xFFFFFFFF AND PUSH1 0xE0 SHL DUP2 MSTORE PUSH1 0x4 ADD PUSH1 0x20 PUSH1 0x40 MLOAD DUP1 DUP4 SUB DUP2 DUP7 GAS STATICCALL ISZERO DUP1 ISZERO PUSH2 0xD0 JUMPI RETURNDATASIZE PUSH0 DUP1 RETURNDATACOPY RETURNDATASIZE PUSH0 REVERT JUMPDEST POP POP POP POP PUSH1 0x40 MLOAD RETURNDATASIZE PUSH1 0x1F NOT PUSH1 0x1F DUP3 ADD AND DUP3 ADD DUP1 PUSH1 0x40 MSTORE POP DUP2 ADD SWAP1 PUSH2 0xF4 SWAP2 SWAP1 PUSH2 0x14C JUMP JUMPDEST PUSH1 0x1 SSTORE CALLVALUE DUP1 ISZERO PUSH2 0x102 JUMPI PUSH0 DUP1 REVERT JUMPDEST POP PUSH2 0x177 JUMP JUMPDEST PUSH2 0x22B DUP1 PUSH2 0x31B DUP4 CODECOPY ADD SWAP1 JUMP JUMPDEST PUSH0 DUP1 REVERT JUMPDEST PUSH0 DUP2 SWAP1 POP SWAP2 SWAP1 POP JUMP JUMPDEST PUSH2 0x12B DUP2 PUSH2 0x119 JUMP JUMPDEST DUP2 EQ PUSH2 0x135 JUMPI PUSH0 DUP1 REVERT JUMPDEST POP JUMP JUMPDEST PUSH0 DUP2 MLOAD SWAP1 POP PUSH2 0x146 DUP2 PUSH2 0x122 JUMP JUMPDEST SWAP3 SWAP2 POP POP JUMP JUMPDEST PUSH0 PUSH1 0x20 DUP3 DUP5 SUB SLT ISZERO PUSH2 0x161 JUMPI PUSH2 0x160 PUSH2 0x115 JUMP JUMPDEST JUMPDEST PUSH0 PUSH2 0x16E DUP5 DUP3 DUP6 ADD PUSH2 0x138 JUMP JUMPDEST SWAP2 POP POP SWAP3 SWAP2 POP POP JUMP JUMPDEST PUSH2 0x197 DUP1 PUSH2 0x184 PUSH0 CODECOPY PUSH0 RETURN INVALID PUSH1 0x80 PUSH1 0x40 MSTORE CALLVALUE DUP1 ISZERO PUSH2 0xF JUMPI PUSH0 DUP1 REVERT JUMPDEST POP PUSH1 0x4 CALLDATASIZE LT PUSH2 0x34 JUMPI PUSH0 CALLDATALOAD PUSH1 0xE0 SHR DUP1 PUSH4 0x605B85AD EQ PUSH2 0x38 JUMPI DUP1 PUSH4 0xECE57B04 EQ PUSH2 0x56 JUMPI JUMPDEST PUSH0 DUP1 REVERT JUMPDEST PUSH2 0x40 PUSH2 0x74 JUMP JUMPDEST PUSH1 0x40 MLOAD PUSH2 0x4D SWAP2 SWAP1 PUSH2 0x117 JUMP JUMPDEST PUSH1 0x40 MLOAD DUP1 SWAP2 SUB SWAP1 RETURN JUMPDEST PUSH2 0x5E PUSH2 0x97 JUMP JUMPDEST PUSH1 0x40 MLOAD PUSH2 0x6B SWAP2 SWAP1 PUSH2 0x148 JUMP JUMPDEST PUSH1 0x40 MLOAD DUP1 SWAP2 SUB SWAP1 RETURN JUMPDEST PUSH0 DUP1 SLOAD SWAP1 PUSH2 0x100 EXP SWAP1 DIV PUSH20 0xFFFFFFFFFFFFFFFFFFFFFFFFFFFFFFFFFFFFFFFF AND DUP2 JUMP JUMPDEST PUSH1 0x1 SLOAD DUP2 JUMP JUMPDEST PUSH0 PUSH20 0xFFFFFFFFFFFFFFFFFFFFFFFFFFFFFFFFFFFFFFFF DUP3 AND SWAP1 POP SWAP2 SWAP1 POP JUMP JUMPDEST PUSH0 DUP2 SWAP1 POP SWAP2 SWAP1 POP JUMP JUMPDEST PUSH0 PUSH2 0xDF PUSH2 0xDA PUSH2 0xD5 DUP5 PUSH2 0x9D JUMP JUMPDEST PUSH2 0xBC JUMP JUMPDEST PUSH2 0x9D JUMP JUMPDEST SWAP1 POP SWAP2 SWAP1 POP JUMP JUMPDEST PUSH0 PUSH2 0xF0 DUP3 PUSH2 0xC5 JUMP JUMPDEST SWAP1 POP SWAP2 SWAP1 POP JUMP JUMPDEST PUSH0 PUSH2 0x101 DUP3 PUSH2 0xE6 JUMP JUMPDEST SWAP1 POP SWAP2 SWAP1 POP JUMP JUMPDEST PUSH2 0x111 DUP2 PUSH2 0xF7 JUMP JUMPDEST DUP3 MSTORE POP POP JUMP JUMPDEST PUSH0 PUSH1 0x20 DUP3 ADD SWAP1 POP PUSH2 0x12A PUSH0 DUP4 ADD DUP5 PUSH2 0x108 JUMP JUMPDEST SWAP3 SWAP2 POP POP JUMP JUMPDEST PUSH0 DUP2 SWAP1 POP SWAP2 SWAP1 POP JUMP JUMPDEST PUSH2 0x142 DUP2 PUSH2 0x130 JUMP JUMPDEST DUP3 MSTORE POP POP JUMP JUMPDEST PUSH0 PUSH1 0x20 DUP3 ADD SWAP1 POP PUSH2 0x15B PUSH0 DUP4 ADD DUP5 PUSH2 0x139 JUMP JUMPDEST SWAP3 SWAP2 POP POP JUMP INVALID LOG2 PUSH5 0x6970667358 0x22 SLT KECCAK256 PUSH7 0x1589EAC515E192 0x1F 0xE4 0xC1 0xE0 XOR LOG3 ADDRESS 0xC3 PUSH2 0x4D3D DUP12 PUSH29 0xBF501332E34C6DEA22C3C364736F6C634300081600336080604052600A PUSH0 SSTORE PUSH1 0x14 PUSH1 0x1 SSTORE CALLVALUE DUP1 ISZERO PUSH2 0x18 JUMPI PUSH0 DUP1 REVERT JUMPDEST POP PUSH2 0x205 DUP1 PUSH2 0x26 PUSH0 CODECOPY PUSH0 RETURN INVALID PUSH1 0x80 PUSH1 0x40 MSTORE CALLVALUE DUP1 ISZERO PUSH2 0xF JUMPI PUSH0 DUP1 REVERT JUMPDEST POP PUSH1 0x4 CALLDATASIZE LT PUSH2 0x55 JUMPI PUSH0 CALLDATALOAD PUSH1 0xE0 SHR DUP1 PUSH4 0xC55699C EQ PUSH2 0x59 JUMPI DUP1 PUSH4 0x28D69C6D EQ PUSH2 0x77 JUMPI DUP1 PUSH4 0x3C9D377D EQ PUSH2 0x95 JUMPI DUP1 PUSH4 0x9942EC6F EQ PUSH2 0xB3 JUMPI DUP1 PUSH4 0xC3F90202 EQ PUSH2 0xD1 JUMPI JUMPDEST PUSH0 DUP1 REVERT JUMPDEST PUSH2 0x61 PUSH2 0xEF JUMP JUMPDEST PUSH1 0x40 MLOAD PUSH2 0x6E SWAP2 SWAP1 PUSH2 0x148 JUMP JUMPDEST PUSH1 0x40 MLOAD DUP1 SWAP2 SUB SWAP1 RETURN JUMPDEST PUSH2 0x7F PUSH2 0xF4 JUMP JUMPDEST PUSH1 0x40 MLOAD PUSH2 0x8C SWAP2 SWAP1 PUSH2 0x148 JUMP JUMPDEST PUSH1 0x40 MLOAD DUP1 SWAP2 SUB SWAP1 RETURN JUMPDEST PUSH2 0x9D PUSH2 0xFD JUMP JUMPDEST PUSH1 0x40 MLOAD PUSH2 0xAA SWAP2 SWAP1 PUSH2 0x148 JUMP JUMPDEST PUSH1 0x40 MLOAD DUP1 SWAP2 SUB SWAP1 RETURN JUMPDEST PUSH2 0xBB PUSH2 0x106 JUMP JUMPDEST PUSH1 0x40 MLOAD PUSH2 0xC8 SWAP2 SWAP1 PUSH2 0x148 JUMP JUMPDEST PUSH1 0x40 MLOAD DUP1 SWAP2 SUB SWAP1 RETURN JUMPDEST PUSH2 0xD9 PUSH2 0x114 JUMP JUMPDEST PUSH1 0x40 MLOAD PUSH2 0xE6 SWAP2 SWAP1 PUSH2 0x148 JUMP JUMPDEST PUSH1 0x40 MLOAD DUP1 SWAP2 SUB SWAP1 RETURN JUMPDEST PUSH0 SLOAD DUP2 JUMP JUMPDEST PUSH0 PUSH1 0x1 SLOAD SWAP1 POP SWAP1 JUMP JUMPDEST PUSH0 DUP1 DUP1 SWAP2 POP POP SWAP1 JUMP JUMPDEST PUSH0 PUSH2 0x10F PUSH2 0x128 JUMP JUMPDEST SWAP1 POP SWAP1 JUMP JUMPDEST PUSH0 PUSH1 0x1 PUSH0 SLOAD PUSH2 0x123 SWAP2 SWAP1 PUSH2 0x18E JUMP JUMPDEST SWAP1 POP SWAP1 JUMP JUMPDEST PUSH0 DUP1 SLOAD SWAP1 POP SWAP1 JUMP JUMPDEST PUSH0 DUP2 SWAP1 POP SWAP2 SWAP1 POP JUMP JUMPDEST PUSH2 0x142 DUP2 PUSH2 0x130 JUMP JUMPDEST DUP3 MSTORE POP POP JUMP JUMPDEST PUSH0 PUSH1 0x20 DUP3 ADD SWAP1 POP PUSH2 0x15B PUSH0 DUP4 ADD DUP5 PUSH2 0x139 JUMP JUMPDEST SWAP3 SWAP2 POP POP JUMP JUMPDEST PUSH32 0x4E487B7100000000000000000000000000000000000000000000000000000000 PUSH0 MSTORE PUSH1 0x11 PUSH1 0x4 MSTORE PUSH1 0x24 PUSH0 REVERT JUMPDEST PUSH0 PUSH2 0x198 DUP3 PUSH2 0x130 JUMP JUMPDEST SWAP2 POP PUSH2 0x1A3 DUP4 PUSH2 0x130 JUMP JUMPDEST SWAP3 POP DUP3 DUP3 ADD SWAP1 POP DUP3 DUP2 SLT ISZERO PUSH0 DUP4 SLT AND DUP4 DUP3 SLT PUSH0 DUP5 SLT ISZERO AND OR ISZERO PUSH2 0x1C9 JUMPI PUSH2 0x1C8 PUSH2 0x161 JUMP JUMPDEST JUMPDEST SWAP3 SWAP2 POP POP JUMP INVALID LOG2 PUSH5 0x6970667358 0x22 SLT KECCAK256 0x2D PUSH9 0x93873245A4985ED431 0x2C 0xB3 SELFBALANCE EXTCODESIZE XOR 0x2E JUMP 0xBE 0xEE PUSH5 0xF3CA00ED50 0xC5 CALLDATALOAD 0x24 0xDC LOG4 0xAB PUSH5 0x736F6C6343 STOP ADDMOD AND STOP CALLER "
				},
				"gasEstimates": {
					"creation": {
						"codeDepositCost": "81400",
						"executionCost": "infinite",
						"totalCost": "infinite"
					},
					"external": {
						"contract_a()": "infinite",
						"xx()": "2425"
					}
				},
				"methodIdentifiers": {
					"contract_a()": "605b85ad",
					"xx()": "ece57b04"
				}
			},
			"storageLayout": {
				"storage": [
					{
						"astId": 76,
						"contract": "variables_function_visibility.sol:C",
						"label": "contract_a",
						"offset": 0,
						"slot": "0",
						"type": "t_contract(A)62"
					},
					{
						"astId": 81,
						"contract": "variables_function_visibility.sol:C",
						"label": "xx",
						"offset": 0,
						"slot": "1",
						"type": "t_int256"
					}
				],
				"types": {
					"t_contract(A)62": {
						"encoding": "inplace",
						"label": "contract A",
						"numberOfBytes": "20"
					},
					"t_int256": {
						"encoding": "inplace",
						"label": "int256",
						"numberOfBytes": "32"
					}
				}
			},
			"userdoc": {
				"kind": "user",
				"methods": {},
				"version": 1
			}
		}
	}
}