{
	"data": {
		"bytecode": {
			"linkReferences": {},
			"object": "6080604052425f5543600155446002554560035534801561001e575f80fd5b5061012a8061002c5f395ff3fe6080604052348015600e575f80fd5b50600436106044575f3560e01c806319cae46214604857806325a58b561460625780632a72283914607c578063a0200b58146096575b5f80fd5b604e60b0565b6040516059919060dd565b60405180910390f35b606860b6565b6040516073919060dd565b60405180910390f35b608260bc565b604051608d919060dd565b60405180910390f35b609c60c2565b60405160a7919060dd565b60405180910390f35b60025481565b60015481565b60035481565b5f5481565b5f819050919050565b60d78160c7565b82525050565b5f60208201905060ee5f83018460d0565b9291505056fea2646970667358221220f09fc4a85c431013efc2e1832064dc0b9c25fe64964d3da796c26d246db11ca464736f6c63430008160033",
			"opcodes": "PUSH1 0x80 PUSH1 0x40 MSTORE TIMESTAMP PUSH0 SSTORE NUMBER PUSH1 0x1 SSTORE PREVRANDAO PUSH1 0x2 SSTORE GASLIMIT PUSH1 0x3 SSTORE CALLVALUE DUP1 ISZERO PUSH2 0x1E JUMPI PUSH0 DUP1 REVERT JUMPDEST POP PUSH2 0x12A DUP1 PUSH2 0x2C PUSH0 CODECOPY PUSH0 RETURN INVALID PUSH1 0x80 PUSH1 0x40 MSTORE CALLVALUE DUP1 ISZERO PUSH1 0xE JUMPI PUSH0 DUP1 REVERT JUMPDEST POP PUSH1 0x4 CALLDATASIZE LT PUSH1 0x44 JUMPI PUSH0 CALLDATALOAD PUSH1 0xE0 SHR DUP1 PUSH4 0x19CAE462 EQ PUSH1 0x48 JUMPI DUP1 PUSH4 0x25A58B56 EQ PUSH1 0x62 JUMPI DUP1 PUSH4 0x2A722839 EQ PUSH1 0x7C JUMPI DUP1 PUSH4 0xA0200B58 EQ PUSH1 0x96 JUMPI JUMPDEST PUSH0 DUP1 REVERT JUMPDEST PUSH1 0x4E PUSH1 0xB0 JUMP JUMPDEST PUSH1 0x40 MLOAD PUSH1 0x59 SWAP2 SWAP1 PUSH1 0xDD JUMP JUMPDEST PUSH1 0x40 MLOAD DUP1 SWAP2 SUB SWAP1 RETURN JUMPDEST PUSH1 0x68 PUSH1 0xB6 JUMP JUMPDEST PUSH1 0x40 MLOAD PUSH1 0x73 SWAP2 SWAP1 PUSH1 0xDD JUMP JUMPDEST PUSH1 0x40 MLOAD DUP1 SWAP2 SUB SWAP1 RETURN JUMPDEST PUSH1 0x82 PUSH1 0xBC JUMP JUMPDEST PUSH1 0x40 MLOAD PUSH1 0x8D SWAP2 SWAP1 PUSH1 0xDD JUMP JUMPDEST PUSH1 0x40 MLOAD DUP1 SWAP2 SUB SWAP1 RETURN JUMPDEST PUSH1 0x9C PUSH1 0xC2 JUMP JUMPDEST PUSH1 0x40 MLOAD PUSH1 0xA7 SWAP2 SWAP1 PUSH1 0xDD JUMP JUMPDEST PUSH1 0x40 MLOAD DUP1 SWAP2 SUB SWAP1 RETURN JUMPDEST PUSH1 0x2 SLOAD DUP2 JUMP JUMPDEST PUSH1 0x1 SLOAD DUP2 JUMP JUMPDEST PUSH1 0x3 SLOAD DUP2 JUMP JUMPDEST PUSH0 SLOAD DUP2 JUMP JUMPDEST PUSH0 DUP2 SWAP1 POP SWAP2 SWAP1 POP JUMP JUMPDEST PUSH1 0xD7 DUP2 PUSH1 0xC7 JUMP JUMPDEST DUP3 MSTORE POP POP JUMP JUMPDEST PUSH0 PUSH1 0x20 DUP3 ADD SWAP1 POP PUSH1 0xEE PUSH0 DUP4 ADD DUP5 PUSH1 0xD0 JUMP JUMPDEST SWAP3 SWAP2 POP POP JUMP INVALID LOG2 PUSH5 0x6970667358 0x22 SLT KECCAK256 CREATE SWAP16 0xC4 0xA8 0x5C NUMBER LT SGT 0xEF 0xC2 0xE1 DUP4 KECCAK256 PUSH5 0xDC0B9C25FE PUSH5 0x964D3DA796 0xC2 PUSH14 0x246DB11CA464736F6C6343000816 STOP CALLER "
		},
		"gasEstimates": {
			"creation": {
				"codeDepositCost": "59600",
				"executionCost": "88528",
				"totalCost": "148128"
			},
			"external": {
				"block_number()": "2425",
				"difficulty()": "2403",
				"gaslimit()": "2447",
				"this_moment()": "2468"
			}
		},
		"methodIdentifiers": {
			"block_number()": "25a58b56",
			"difficulty()": "19cae462",
			"gaslimit()": "2a722839",
			"this_moment()": "a0200b58"
		}
	},
	"abi": [
		{
			"inputs": [],
			"name": "block_number",
			"outputs": [
				{
					"internalType": "uint256",
					"name": "",
					"type": "uint256"
				}
			],
			"stateMutability": "view",
			"type": "function"
		},
		{
			"inputs": [],
			"name": "difficulty",
			"outputs": [
				{
					"internalType": "uint256",
					"name": "",
					"type": "uint256"
				}
			],
			"stateMutability": "view",
			"type": "function"
		},
		{
			"inputs": [],
			"name": "gaslimit",
			"outputs": [
				{
					"internalType": "uint256",
					"name": "",
					"type": "uint256"
				}
			],
			"stateMutability": "view",
			"type": "function"
		},
		{
			"inputs": [],
			"name": "this_moment",
			"outputs": [
				{
					"internalType": "uint256",
					"name": "",
					"type": "uint256"
				}
			],
			"stateMutability": "view",
			"type": "function"
		}
	]
}