{
	"data": {
		"bytecode": {
			"linkReferences": {},
			"object": "608060405234801561000f575f80fd5b506102e58061001d5f395ff3fe608060405234801561000f575f80fd5b506004361061003f575f3560e01c8063516f279e14610043578063a035b1fe14610061578063c27fc3051461007f575b5f80fd5b61004b61009d565b60405161005891906101bb565b60405180910390f35b6100696100d6565b60405161007691906101f3565b60405180910390f35b6100876100db565b60405161009491906101f3565b60405180910390f35b6040518060400160405280600881526020017f56696574204e616d00000000000000000000000000000000000000000000000081525081565b5f5481565b5f80600590506002816100ee9190610239565b90505f6040518060400160405280600381526020017f61626300000000000000000000000000000000000000000000000000000000008152509050819250505090565b5f81519050919050565b5f82825260208201905092915050565b5f5b8381101561016857808201518184015260208101905061014d565b5f8484015250505050565b5f601f19601f8301169050919050565b5f61018d82610131565b610197818561013b565b93506101a781856020860161014b565b6101b081610173565b840191505092915050565b5f6020820190508181035f8301526101d38184610183565b905092915050565b5f819050919050565b6101ed816101db565b82525050565b5f6020820190506102065f8301846101e4565b92915050565b7f4e487b71000000000000000000000000000000000000000000000000000000005f52601160045260245ffd5b5f610243826101db565b915061024e836101db565b925082820261025c816101db565b91507f800000000000000000000000000000000000000000000000000000000000000084145f841216156102935761029261020c565b5b82820584148315176102a8576102a761020c565b5b509291505056fea264697066735822122074121207ace66301b25a8ff163d092566ac655816b8471ec6e8a8dd55eb50e7864736f6c63430008160033",
			"opcodes": "PUSH1 0x80 PUSH1 0x40 MSTORE CALLVALUE DUP1 ISZERO PUSH2 0xF JUMPI PUSH0 DUP1 REVERT JUMPDEST POP PUSH2 0x2E5 DUP1 PUSH2 0x1D PUSH0 CODECOPY PUSH0 RETURN INVALID PUSH1 0x80 PUSH1 0x40 MSTORE CALLVALUE DUP1 ISZERO PUSH2 0xF JUMPI PUSH0 DUP1 REVERT JUMPDEST POP PUSH1 0x4 CALLDATASIZE LT PUSH2 0x3F JUMPI PUSH0 CALLDATALOAD PUSH1 0xE0 SHR DUP1 PUSH4 0x516F279E EQ PUSH2 0x43 JUMPI DUP1 PUSH4 0xA035B1FE EQ PUSH2 0x61 JUMPI DUP1 PUSH4 0xC27FC305 EQ PUSH2 0x7F JUMPI JUMPDEST PUSH0 DUP1 REVERT JUMPDEST PUSH2 0x4B PUSH2 0x9D JUMP JUMPDEST PUSH1 0x40 MLOAD PUSH2 0x58 SWAP2 SWAP1 PUSH2 0x1BB JUMP JUMPDEST PUSH1 0x40 MLOAD DUP1 SWAP2 SUB SWAP1 RETURN JUMPDEST PUSH2 0x69 PUSH2 0xD6 JUMP JUMPDEST PUSH1 0x40 MLOAD PUSH2 0x76 SWAP2 SWAP1 PUSH2 0x1F3 JUMP JUMPDEST PUSH1 0x40 MLOAD DUP1 SWAP2 SUB SWAP1 RETURN JUMPDEST PUSH2 0x87 PUSH2 0xDB JUMP JUMPDEST PUSH1 0x40 MLOAD PUSH2 0x94 SWAP2 SWAP1 PUSH2 0x1F3 JUMP JUMPDEST PUSH1 0x40 MLOAD DUP1 SWAP2 SUB SWAP1 RETURN JUMPDEST PUSH1 0x40 MLOAD DUP1 PUSH1 0x40 ADD PUSH1 0x40 MSTORE DUP1 PUSH1 0x8 DUP2 MSTORE PUSH1 0x20 ADD PUSH32 0x56696574204E616D000000000000000000000000000000000000000000000000 DUP2 MSTORE POP DUP2 JUMP JUMPDEST PUSH0 SLOAD DUP2 JUMP JUMPDEST PUSH0 DUP1 PUSH1 0x5 SWAP1 POP PUSH1 0x2 DUP2 PUSH2 0xEE SWAP2 SWAP1 PUSH2 0x239 JUMP JUMPDEST SWAP1 POP PUSH0 PUSH1 0x40 MLOAD DUP1 PUSH1 0x40 ADD PUSH1 0x40 MSTORE DUP1 PUSH1 0x3 DUP2 MSTORE PUSH1 0x20 ADD PUSH32 0x6162630000000000000000000000000000000000000000000000000000000000 DUP2 MSTORE POP SWAP1 POP DUP2 SWAP3 POP POP POP SWAP1 JUMP JUMPDEST PUSH0 DUP2 MLOAD SWAP1 POP SWAP2 SWAP1 POP JUMP JUMPDEST PUSH0 DUP3 DUP3 MSTORE PUSH1 0x20 DUP3 ADD SWAP1 POP SWAP3 SWAP2 POP POP JUMP JUMPDEST PUSH0 JUMPDEST DUP4 DUP2 LT ISZERO PUSH2 0x168 JUMPI DUP1 DUP3 ADD MLOAD DUP2 DUP5 ADD MSTORE PUSH1 0x20 DUP2 ADD SWAP1 POP PUSH2 0x14D JUMP JUMPDEST PUSH0 DUP5 DUP5 ADD MSTORE POP POP POP POP JUMP JUMPDEST PUSH0 PUSH1 0x1F NOT PUSH1 0x1F DUP4 ADD AND SWAP1 POP SWAP2 SWAP1 POP JUMP JUMPDEST PUSH0 PUSH2 0x18D DUP3 PUSH2 0x131 JUMP JUMPDEST PUSH2 0x197 DUP2 DUP6 PUSH2 0x13B JUMP JUMPDEST SWAP4 POP PUSH2 0x1A7 DUP2 DUP6 PUSH1 0x20 DUP7 ADD PUSH2 0x14B JUMP JUMPDEST PUSH2 0x1B0 DUP2 PUSH2 0x173 JUMP JUMPDEST DUP5 ADD SWAP2 POP POP SWAP3 SWAP2 POP POP JUMP JUMPDEST PUSH0 PUSH1 0x20 DUP3 ADD SWAP1 POP DUP2 DUP2 SUB PUSH0 DUP4 ADD MSTORE PUSH2 0x1D3 DUP2 DUP5 PUSH2 0x183 JUMP JUMPDEST SWAP1 POP SWAP3 SWAP2 POP POP JUMP JUMPDEST PUSH0 DUP2 SWAP1 POP SWAP2 SWAP1 POP JUMP JUMPDEST PUSH2 0x1ED DUP2 PUSH2 0x1DB JUMP JUMPDEST DUP3 MSTORE POP POP JUMP JUMPDEST PUSH0 PUSH1 0x20 DUP3 ADD SWAP1 POP PUSH2 0x206 PUSH0 DUP4 ADD DUP5 PUSH2 0x1E4 JUMP JUMPDEST SWAP3 SWAP2 POP POP JUMP JUMPDEST PUSH32 0x4E487B7100000000000000000000000000000000000000000000000000000000 PUSH0 MSTORE PUSH1 0x11 PUSH1 0x4 MSTORE PUSH1 0x24 PUSH0 REVERT JUMPDEST PUSH0 PUSH2 0x243 DUP3 PUSH2 0x1DB JUMP JUMPDEST SWAP2 POP PUSH2 0x24E DUP4 PUSH2 0x1DB JUMP JUMPDEST SWAP3 POP DUP3 DUP3 MUL PUSH2 0x25C DUP2 PUSH2 0x1DB JUMP JUMPDEST SWAP2 POP PUSH32 0x8000000000000000000000000000000000000000000000000000000000000000 DUP5 EQ PUSH0 DUP5 SLT AND ISZERO PUSH2 0x293 JUMPI PUSH2 0x292 PUSH2 0x20C JUMP JUMPDEST JUMPDEST DUP3 DUP3 SDIV DUP5 EQ DUP4 ISZERO OR PUSH2 0x2A8 JUMPI PUSH2 0x2A7 PUSH2 0x20C JUMP JUMPDEST JUMPDEST POP SWAP3 SWAP2 POP POP JUMP INVALID LOG2 PUSH5 0x6970667358 0x22 SLT KECCAK256 PUSH21 0x121207ACE66301B25A8FF163D092566AC655816B84 PUSH18 0xEC6E8A8DD55EB50E7864736F6C6343000816 STOP CALLER "
		},
		"gasEstimates": {
			"creation": {
				"codeDepositCost": "148200",
				"executionCost": "194",
				"totalCost": "148394"
			},
			"external": {
				"f1()": "infinite",
				"location()": "infinite",
				"price()": "2424"
			}
		},
		"methodIdentifiers": {
			"f1()": "c27fc305",
			"location()": "516f279e",
			"price()": "a035b1fe"
		}
	},
	"abi": [
		{
			"inputs": [],
			"name": "f1",
			"outputs": [
				{
					"internalType": "int256",
					"name": "",
					"type": "int256"
				}
			],
			"stateMutability": "pure",
			"type": "function"
		},
		{
			"inputs": [],
			"name": "location",
			"outputs": [
				{
					"internalType": "string",
					"name": "",
					"type": "string"
				}
			],
			"stateMutability": "view",
			"type": "function"
		},
		{
			"inputs": [],
			"name": "price",
			"outputs": [
				{
					"internalType": "int256",
					"name": "",
					"type": "int256"
				}
			],
			"stateMutability": "view",
			"type": "function"
		}
	]
}