{
	"data": {
		"bytecode": {
			"linkReferences": {},
			"object": "6080604052600a5f556014600155348015610018575f80fd5b50610111806100265f395ff3fe6080604052348015600e575f80fd5b5060043610603a575f3560e01c80630c55699c14603e57806328d69c6d1460585780639942ec6f146072575b5f80fd5b6044608c565b604051604f919060c4565b60405180910390f35b605e6091565b6040516069919060c4565b60405180910390f35b6078609a565b6040516083919060c4565b60405180910390f35b5f5481565b5f600154905090565b5f60a160a6565b905090565b5f8054905090565b5f819050919050565b60be8160ae565b82525050565b5f60208201905060d55f83018460b7565b9291505056fea2646970667358221220984cef45e31e62e9160c8fdea2190d40444e60798d5259ef9329bbef060128f664736f6c63430008160033",
			"opcodes": "PUSH1 0x80 PUSH1 0x40 MSTORE PUSH1 0xA PUSH0 SSTORE PUSH1 0x14 PUSH1 0x1 SSTORE CALLVALUE DUP1 ISZERO PUSH2 0x18 JUMPI PUSH0 DUP1 REVERT JUMPDEST POP PUSH2 0x111 DUP1 PUSH2 0x26 PUSH0 CODECOPY PUSH0 RETURN INVALID PUSH1 0x80 PUSH1 0x40 MSTORE CALLVALUE DUP1 ISZERO PUSH1 0xE JUMPI PUSH0 DUP1 REVERT JUMPDEST POP PUSH1 0x4 CALLDATASIZE LT PUSH1 0x3A JUMPI PUSH0 CALLDATALOAD PUSH1 0xE0 SHR DUP1 PUSH4 0xC55699C EQ PUSH1 0x3E JUMPI DUP1 PUSH4 0x28D69C6D EQ PUSH1 0x58 JUMPI DUP1 PUSH4 0x9942EC6F EQ PUSH1 0x72 JUMPI JUMPDEST PUSH0 DUP1 REVERT JUMPDEST PUSH1 0x44 PUSH1 0x8C JUMP JUMPDEST PUSH1 0x40 MLOAD PUSH1 0x4F SWAP2 SWAP1 PUSH1 0xC4 JUMP JUMPDEST PUSH1 0x40 MLOAD DUP1 SWAP2 SUB SWAP1 RETURN JUMPDEST PUSH1 0x5E PUSH1 0x91 JUMP JUMPDEST PUSH1 0x40 MLOAD PUSH1 0x69 SWAP2 SWAP1 PUSH1 0xC4 JUMP JUMPDEST PUSH1 0x40 MLOAD DUP1 SWAP2 SUB SWAP1 RETURN JUMPDEST PUSH1 0x78 PUSH1 0x9A JUMP JUMPDEST PUSH1 0x40 MLOAD PUSH1 0x83 SWAP2 SWAP1 PUSH1 0xC4 JUMP JUMPDEST PUSH1 0x40 MLOAD DUP1 SWAP2 SUB SWAP1 RETURN JUMPDEST PUSH0 SLOAD DUP2 JUMP JUMPDEST PUSH0 PUSH1 0x1 SLOAD SWAP1 POP SWAP1 JUMP JUMPDEST PUSH0 PUSH1 0xA1 PUSH1 0xA6 JUMP JUMPDEST SWAP1 POP SWAP1 JUMP JUMPDEST PUSH0 DUP1 SLOAD SWAP1 POP SWAP1 JUMP JUMPDEST PUSH0 DUP2 SWAP1 POP SWAP2 SWAP1 POP JUMP JUMPDEST PUSH1 0xBE DUP2 PUSH1 0xAE JUMP JUMPDEST DUP3 MSTORE POP POP JUMP JUMPDEST PUSH0 PUSH1 0x20 DUP3 ADD SWAP1 POP PUSH1 0xD5 PUSH0 DUP4 ADD DUP5 PUSH1 0xB7 JUMP JUMPDEST SWAP3 SWAP2 POP POP JUMP INVALID LOG2 PUSH5 0x6970667358 0x22 SLT KECCAK256 SWAP9 0x4C 0xEF GASLIMIT 0xE3 0x1E PUSH3 0xE9160C DUP16 0xDE LOG2 NOT 0xD BLOCKHASH PREVRANDAO 0x4E PUSH1 0x79 DUP14 MSTORE MSIZE 0xEF SWAP4 0x29 0xBB 0xEF MOD ADD 0x28 0xF6 PUSH5 0x736F6C6343 STOP ADDMOD AND STOP CALLER "
		},
		"gasEstimates": {
			"creation": {
				"codeDepositCost": "54600",
				"executionCost": "44314",
				"totalCost": "98914"
			},
			"external": {
				"f2()": "2488",
				"get_y()": "2432",
				"x()": "2402"
			},
			"internal": {
				"f1()": "2122",
				"f3()": "infinite"
			}
		},
		"methodIdentifiers": {
			"f2()": "9942ec6f",
			"get_y()": "28d69c6d",
			"x()": "0c55699c"
		}
	},
	"abi": [
		{
			"inputs": [],
			"name": "f2",
			"outputs": [
				{
					"internalType": "int256",
					"name": "",
					"type": "int256"
				}
			],
			"stateMutability": "view",
			"type": "function"
		},
		{
			"inputs": [],
			"name": "get_y",
			"outputs": [
				{
					"internalType": "int256",
					"name": "",
					"type": "int256"
				}
			],
			"stateMutability": "view",
			"type": "function"
		},
		{
			"inputs": [],
			"name": "x",
			"outputs": [
				{
					"internalType": "int256",
					"name": "",
					"type": "int256"
				}
			],
			"stateMutability": "view",
			"type": "function"
		}
	]
}